{
  "_format": "hh-sol-artifact-1",
  "contractName": "Event",
  "sourceName": "contracts/Event.sol",
  "abi": [
    {
      "inputs": [],
      "stateMutability": "nonpayable",
      "type": "constructor"
    },
    {
      "anonymous": false,
      "inputs": [
        {
          "indexed": false,
          "internalType": "address",
          "name": "previousAdmin",
          "type": "address"
        },
        {
          "indexed": false,
          "internalType": "address",
          "name": "newAdmin",
          "type": "address"
        }
      ],
      "name": "AdminChanged",
      "type": "event"
    },
    {
      "anonymous": false,
      "inputs": [
        {
          "indexed": true,
          "internalType": "address",
          "name": "account",
          "type": "address"
        },
        {
          "indexed": true,
          "internalType": "address",
          "name": "operator",
          "type": "address"
        },
        {
          "indexed": false,
          "internalType": "bool",
          "name": "approved",
          "type": "bool"
        }
      ],
      "name": "ApprovalForAll",
      "type": "event"
    },
    {
      "anonymous": false,
      "inputs": [
        {
          "indexed": true,
          "internalType": "address",
          "name": "beacon",
          "type": "address"
        }
      ],
      "name": "BeaconUpgraded",
      "type": "event"
    },
    {
      "anonymous": false,
      "inputs": [
        {
          "indexed": true,
          "internalType": "address",
          "name": "previousOwner",
          "type": "address"
        },
        {
          "indexed": true,
          "internalType": "address",
          "name": "newOwner",
          "type": "address"
        }
      ],
      "name": "OwnershipTransferred",
      "type": "event"
    },
    {
      "anonymous": false,
      "inputs": [
        {
          "indexed": false,
          "internalType": "address",
          "name": "account",
          "type": "address"
        }
      ],
      "name": "Paused",
      "type": "event"
    },
    {
      "anonymous": false,
      "inputs": [
        {
          "indexed": true,
          "internalType": "address",
          "name": "operator",
          "type": "address"
        },
        {
          "indexed": true,
          "internalType": "address",
          "name": "from",
          "type": "address"
        },
        {
          "indexed": true,
          "internalType": "address",
          "name": "to",
          "type": "address"
        },
        {
          "indexed": false,
          "internalType": "uint256[]",
          "name": "ids",
          "type": "uint256[]"
        },
        {
          "indexed": false,
          "internalType": "uint256[]",
          "name": "values",
          "type": "uint256[]"
        }
      ],
      "name": "TransferBatch",
      "type": "event"
    },
    {
      "anonymous": false,
      "inputs": [
        {
          "indexed": true,
          "internalType": "address",
          "name": "operator",
          "type": "address"
        },
        {
          "indexed": true,
          "internalType": "address",
          "name": "from",
          "type": "address"
        },
        {
          "indexed": true,
          "internalType": "address",
          "name": "to",
          "type": "address"
        },
        {
          "indexed": false,
          "internalType": "uint256",
          "name": "id",
          "type": "uint256"
        },
        {
          "indexed": false,
          "internalType": "uint256",
          "name": "value",
          "type": "uint256"
        }
      ],
      "name": "TransferSingle",
      "type": "event"
    },
    {
      "anonymous": false,
      "inputs": [
        {
          "indexed": false,
          "internalType": "string",
          "name": "value",
          "type": "string"
        },
        {
          "indexed": true,
          "internalType": "uint256",
          "name": "id",
          "type": "uint256"
        }
      ],
      "name": "URI",
      "type": "event"
    },
    {
      "anonymous": false,
      "inputs": [
        {
          "indexed": false,
          "internalType": "address",
          "name": "account",
          "type": "address"
        }
      ],
      "name": "Unpaused",
      "type": "event"
    },
    {
      "anonymous": false,
      "inputs": [
        {
          "indexed": true,
          "internalType": "address",
          "name": "implementation",
          "type": "address"
        }
      ],
      "name": "Upgraded",
      "type": "event"
    },
    {
      "inputs": [
        {
          "internalType": "address",
          "name": "account",
          "type": "address"
        },
        {
          "internalType": "uint256",
          "name": "id",
          "type": "uint256"
        }
      ],
      "name": "balanceOf",
      "outputs": [
        {
          "internalType": "uint256",
          "name": "",
          "type": "uint256"
        }
      ],
      "stateMutability": "view",
      "type": "function"
    },
    {
      "inputs": [
        {
          "internalType": "address[]",
          "name": "accounts",
          "type": "address[]"
        },
        {
          "internalType": "uint256[]",
          "name": "ids",
          "type": "uint256[]"
        }
      ],
      "name": "balanceOfBatch",
      "outputs": [
        {
          "internalType": "uint256[]",
          "name": "",
          "type": "uint256[]"
        }
      ],
      "stateMutability": "view",
      "type": "function"
    },
    {
      "inputs": [
        {
          "internalType": "address",
          "name": "account",
          "type": "address"
        },
        {
          "internalType": "uint256",
          "name": "id",
          "type": "uint256"
        },
        {
          "internalType": "uint256",
          "name": "value",
          "type": "uint256"
        }
      ],
      "name": "burn",
      "outputs": [],
      "stateMutability": "nonpayable",
      "type": "function"
    },
    {
      "inputs": [
        {
          "internalType": "address",
          "name": "account",
          "type": "address"
        },
        {
          "internalType": "uint256[]",
          "name": "ids",
          "type": "uint256[]"
        },
        {
          "internalType": "uint256[]",
          "name": "values",
          "type": "uint256[]"
        }
      ],
      "name": "burnBatch",
      "outputs": [],
      "stateMutability": "nonpayable",
      "type": "function"
    },
    {
      "inputs": [
        {
          "internalType": "uint256",
          "name": "id",
          "type": "uint256"
        }
      ],
      "name": "exists",
      "outputs": [
        {
          "internalType": "bool",
          "name": "",
          "type": "bool"
        }
      ],
      "stateMutability": "view",
      "type": "function"
    },
    {
      "inputs": [],
      "name": "initialize",
      "outputs": [],
      "stateMutability": "nonpayable",
      "type": "function"
    },
    {
      "inputs": [
        {
          "internalType": "address",
          "name": "account",
          "type": "address"
        },
        {
          "internalType": "address",
          "name": "operator",
          "type": "address"
        }
      ],
      "name": "isApprovedForAll",
      "outputs": [
        {
          "internalType": "bool",
          "name": "",
          "type": "bool"
        }
      ],
      "stateMutability": "view",
      "type": "function"
    },
    {
      "inputs": [
        {
          "internalType": "address",
          "name": "account",
          "type": "address"
        },
        {
          "internalType": "uint256",
          "name": "id",
          "type": "uint256"
        },
        {
          "internalType": "uint256",
          "name": "amount",
          "type": "uint256"
        },
        {
          "internalType": "bytes",
          "name": "data",
          "type": "bytes"
        }
      ],
      "name": "mint",
      "outputs": [
        {
          "internalType": "uint256",
          "name": "",
          "type": "uint256"
        }
      ],
      "stateMutability": "nonpayable",
      "type": "function"
    },
    {
      "inputs": [
        {
          "internalType": "address",
          "name": "to",
          "type": "address"
        },
        {
          "internalType": "uint256[]",
          "name": "ids",
          "type": "uint256[]"
        },
        {
          "internalType": "uint256[]",
          "name": "amounts",
          "type": "uint256[]"
        },
        {
          "internalType": "bytes",
          "name": "data",
          "type": "bytes"
        }
      ],
      "name": "mintBatch",
      "outputs": [],
      "stateMutability": "nonpayable",
      "type": "function"
    },
    {
      "inputs": [],
      "name": "owner",
      "outputs": [
        {
          "internalType": "address",
          "name": "",
          "type": "address"
        }
      ],
      "stateMutability": "view",
      "type": "function"
    },
    {
      "inputs": [],
      "name": "pause",
      "outputs": [],
      "stateMutability": "nonpayable",
      "type": "function"
    },
    {
      "inputs": [],
      "name": "paused",
      "outputs": [
        {
          "internalType": "bool",
          "name": "",
          "type": "bool"
        }
      ],
      "stateMutability": "view",
      "type": "function"
    },
    {
      "inputs": [
        {
          "internalType": "address",
          "name": "account",
          "type": "address"
        },
        {
          "internalType": "uint256[]",
          "name": "ids",
          "type": "uint256[]"
        },
        {
          "internalType": "uint256[]",
          "name": "values",
          "type": "uint256[]"
        }
      ],
      "name": "reduceSuppleBatch",
      "outputs": [],
      "stateMutability": "nonpayable",
      "type": "function"
    },
    {
      "inputs": [
        {
          "internalType": "address",
          "name": "account",
          "type": "address"
        },
        {
          "internalType": "uint256",
          "name": "id",
          "type": "uint256"
        },
        {
          "internalType": "uint256",
          "name": "amount",
          "type": "uint256"
        }
      ],
      "name": "reduceSupply",
      "outputs": [],
      "stateMutability": "nonpayable",
      "type": "function"
    },
    {
      "inputs": [],
      "name": "renounceOwnership",
      "outputs": [],
      "stateMutability": "nonpayable",
      "type": "function"
    },
    {
      "inputs": [
        {
          "internalType": "address",
          "name": "from",
          "type": "address"
        },
        {
          "internalType": "address",
          "name": "to",
          "type": "address"
        },
        {
          "internalType": "uint256[]",
          "name": "ids",
          "type": "uint256[]"
        },
        {
          "internalType": "uint256[]",
          "name": "amounts",
          "type": "uint256[]"
        },
        {
          "internalType": "bytes",
          "name": "data",
          "type": "bytes"
        }
      ],
      "name": "safeBatchTransferFrom",
      "outputs": [],
      "stateMutability": "nonpayable",
      "type": "function"
    },
    {
      "inputs": [
        {
          "internalType": "address",
          "name": "from",
          "type": "address"
        },
        {
          "internalType": "address",
          "name": "to",
          "type": "address"
        },
        {
          "internalType": "uint256",
          "name": "id",
          "type": "uint256"
        },
        {
          "internalType": "uint256",
          "name": "amount",
          "type": "uint256"
        },
        {
          "internalType": "bytes",
          "name": "data",
          "type": "bytes"
        }
      ],
      "name": "safeTransferFrom",
      "outputs": [],
      "stateMutability": "nonpayable",
      "type": "function"
    },
    {
      "inputs": [
        {
          "internalType": "address",
          "name": "operator",
          "type": "address"
        },
        {
          "internalType": "bool",
          "name": "approved",
          "type": "bool"
        }
      ],
      "name": "setApprovalForAll",
      "outputs": [],
      "stateMutability": "nonpayable",
      "type": "function"
    },
    {
      "inputs": [
        {
          "internalType": "bytes4",
          "name": "interfaceId",
          "type": "bytes4"
        }
      ],
      "name": "supportsInterface",
      "outputs": [
        {
          "internalType": "bool",
          "name": "",
          "type": "bool"
        }
      ],
      "stateMutability": "view",
      "type": "function"
    },
    {
      "inputs": [
        {
          "internalType": "uint256",
          "name": "id",
          "type": "uint256"
        }
      ],
      "name": "totalSupply",
      "outputs": [
        {
          "internalType": "uint256",
          "name": "",
          "type": "uint256"
        }
      ],
      "stateMutability": "view",
      "type": "function"
    },
    {
      "inputs": [
        {
          "internalType": "address",
          "name": "newOwner",
          "type": "address"
        }
      ],
      "name": "transferOwnership",
      "outputs": [],
      "stateMutability": "nonpayable",
      "type": "function"
    },
    {
      "inputs": [],
      "name": "unpause",
      "outputs": [],
      "stateMutability": "nonpayable",
      "type": "function"
    },
    {
      "inputs": [
        {
          "internalType": "address",
          "name": "newImplementation",
          "type": "address"
        }
      ],
      "name": "upgradeTo",
      "outputs": [],
      "stateMutability": "nonpayable",
      "type": "function"
    },
    {
      "inputs": [
        {
          "internalType": "address",
          "name": "newImplementation",
          "type": "address"
        },
        {
          "internalType": "bytes",
          "name": "data",
          "type": "bytes"
        }
      ],
      "name": "upgradeToAndCall",
      "outputs": [],
      "stateMutability": "payable",
      "type": "function"
    },
    {
      "inputs": [
        {
          "internalType": "uint256",
          "name": "",
          "type": "uint256"
        }
      ],
      "name": "uri",
      "outputs": [
        {
          "internalType": "string",
          "name": "",
          "type": "string"
        }
      ],
      "stateMutability": "view",
      "type": "function"
    }
  ],
  "bytecode": "0x60a06040523073ffffffffffffffffffffffffffffffffffffffff1660809073ffffffffffffffffffffffffffffffffffffffff1660601b8152503480156200004757600080fd5b50600060019054906101000a900460ff16620000725760008054906101000a900460ff161562000083565b620000826200013f60201b60201c565b5b620000c5576040517f08c379a0000000000000000000000000000000000000000000000000000000008152600401620000bc9062000197565b60405180910390fd5b60008060019054906101000a900460ff16159050801562000116576001600060016101000a81548160ff02191690831515021790555060016000806101000a81548160ff0219169083151502179055505b8015620001385760008060016101000a81548160ff0219169083151502179055505b5062000219565b600062000157306200015d60201b6200166d1760201c565b15905090565b600080823b905060008111915050919050565b60006200017f602e83620001b9565b91506200018c82620001ca565b604082019050919050565b60006020820190508181036000830152620001b28162000170565b9050919050565b600082825260208201905092915050565b7f496e697469616c697a61626c653a20636f6e747261637420697320616c72656160008201527f647920696e697469616c697a6564000000000000000000000000000000000000602082015250565b60805160601c6158d86200024d6000396000818161092b015281816109ba01528181610d110152610da001526158d86000f3fe6080604052600436106101655760003560e01c8063715018a6116100d1578063a22cb4651161008a578063e985e9c511610064578063e985e9c514610502578063f242432a1461053f578063f2fde38b14610568578063f5298aca1461059157610165565b8063a22cb46514610473578063bd85b0391461049c578063cc984b8a146104d957610165565b8063715018a61461039d578063731133e9146103b45780638129fc1c146103f15780638456cb59146104085780638da5cb5b1461041f5780639881bd7b1461044a57610165565b80633f4ba83a116101235780633f4ba83a1461029c5780634e1273f4146102b35780634f1ef286146102f05780634f558e791461030c5780635c975abb146103495780636b20c4541461037457610165565b8062fdd58e1461016a57806301ffc9a7146101a75780630e89341c146101e45780631f7fdffa146102215780632eb2c2d61461024a5780633659cfe614610273575b600080fd5b34801561017657600080fd5b50610191600480360381019061018c9190614158565b6105ba565b60405161019e9190614c6c565b60405180910390f35b3480156101b357600080fd5b506101ce60048036038101906101c991906142ca565b610684565b6040516101db919061492f565b60405180910390f35b3480156101f057600080fd5b5061020b6004803603810190610206919061431c565b610766565b604051610218919061494a565b60405180910390f35b34801561022d57600080fd5b506102486004803603810190610243919061401d565b6107fa565b005b34801561025657600080fd5b50610271600480360381019061026c9190613e50565b610888565b005b34801561027f57600080fd5b5061029a60048036038101906102959190613deb565b610929565b005b3480156102a857600080fd5b506102b1610ad8565b005b3480156102bf57600080fd5b506102da60048036038101906102d5919061425e565b610b5e565b6040516102e791906148d6565b60405180910390f35b61030a60048036038101906103059190614104565b610d0f565b005b34801561031857600080fd5b50610333600480360381019061032e919061431c565b610e4c565b604051610340919061492f565b60405180910390f35b34801561035557600080fd5b5061035e610e60565b60405161036b919061492f565b60405180910390f35b34801561038057600080fd5b5061039b60048036038101906103969190613f9e565b610e77565b005b3480156103a957600080fd5b506103b2610f14565b005b3480156103c057600080fd5b506103db60048036038101906103d691906141e3565b610f9c565b6040516103e89190614c6c565b60405180910390f35b3480156103fd57600080fd5b5061040661105d565b005b34801561041457600080fd5b5061041d6111a7565b005b34801561042b57600080fd5b5061043461122d565b60405161044191906147f9565b60405180910390f35b34801561045657600080fd5b50610471600480360381019061046c9190614194565b611257565b005b34801561047f57600080fd5b5061049a600480360381019061049591906140c8565b6112e3565b005b3480156104a857600080fd5b506104c360048036038101906104be919061431c565b6112f9565b6040516104d09190614c6c565b60405180910390f35b3480156104e557600080fd5b5061050060048036038101906104fb9190613f9e565b611317565b005b34801561050e57600080fd5b5061052960048036038101906105249190613e14565b6113a3565b604051610536919061492f565b60405180910390f35b34801561054b57600080fd5b5061056660048036038101906105619190613f0f565b611437565b005b34801561057457600080fd5b5061058f600480360381019061058a9190613deb565b6114d8565b005b34801561059d57600080fd5b506105b860048036038101906105b39190614194565b6115d0565b005b60008073ffffffffffffffffffffffffffffffffffffffff168373ffffffffffffffffffffffffffffffffffffffff16141561062b576040517f08c379a0000000000000000000000000000000000000000000000000000000008152600401610622906149cc565b60405180910390fd5b6065600083815260200190815260200160002060008473ffffffffffffffffffffffffffffffffffffffff1673ffffffffffffffffffffffffffffffffffffffff16815260200190815260200160002054905092915050565b60007fd9b67a26000000000000000000000000000000000000000000000000000000007bffffffffffffffffffffffffffffffffffffffffffffffffffffffff1916827bffffffffffffffffffffffffffffffffffffffffffffffffffffffff1916148061074f57507f0e89341c000000000000000000000000000000000000000000000000000000007bffffffffffffffffffffffffffffffffffffffffffffffffffffffff1916827bffffffffffffffffffffffffffffffffffffffffffffffffffffffff1916145b8061075f575061075e82611680565b5b9050919050565b60606067805461077590614f1a565b80601f01602080910402602001604051908101604052809291908181526020018280546107a190614f1a565b80156107ee5780601f106107c3576101008083540402835291602001916107ee565b820191906000526020600020905b8154815290600101906020018083116107d157829003601f168201915b50505050509050919050565b6108026116ea565b73ffffffffffffffffffffffffffffffffffffffff1661082061122d565b73ffffffffffffffffffffffffffffffffffffffff1614610876576040517f08c379a000000000000000000000000000000000000000000000000000000000815260040161086d90614b8c565b60405180910390fd5b610882848484846116f2565b50505050565b6108906116ea565b73ffffffffffffffffffffffffffffffffffffffff168573ffffffffffffffffffffffffffffffffffffffff1614806108d657506108d5856108d06116ea565b6113a3565b5b610915576040517f08c379a000000000000000000000000000000000000000000000000000000000815260040161090c90614aec565b60405180910390fd5b610922858585858561195d565b5050505050565b7f000000000000000000000000000000000000000000000000000000000000000073ffffffffffffffffffffffffffffffffffffffff163073ffffffffffffffffffffffffffffffffffffffff1614156109b8576040517f08c379a00000000000000000000000000000000000000000000000000000000081526004016109af90614a4c565b60405180910390fd5b7f000000000000000000000000000000000000000000000000000000000000000073ffffffffffffffffffffffffffffffffffffffff166109f7611cc0565b73ffffffffffffffffffffffffffffffffffffffff1614610a4d576040517f08c379a0000000000000000000000000000000000000000000000000000000008152600401610a4490614a8c565b60405180910390fd5b610a5681611d17565b610ad581600067ffffffffffffffff811115610a9b577f4e487b7100000000000000000000000000000000000000000000000000000000600052604160045260246000fd5b6040519080825280601f01601f191660200182016040528015610acd5781602001600182028036833780820191505090505b506000611d96565b50565b610ae06116ea565b73ffffffffffffffffffffffffffffffffffffffff16610afe61122d565b73ffffffffffffffffffffffffffffffffffffffff1614610b54576040517f08c379a0000000000000000000000000000000000000000000000000000000008152600401610b4b90614b8c565b60405180910390fd5b610b5c611f67565b565b60608151835114610ba4576040517f08c379a0000000000000000000000000000000000000000000000000000000008152600401610b9b90614c0c565b60405180910390fd5b6000835167ffffffffffffffff811115610be7577f4e487b7100000000000000000000000000000000000000000000000000000000600052604160045260246000fd5b604051908082528060200260200182016040528015610c155781602001602082028036833780820191505090505b50905060005b8451811015610d0457610cae858281518110610c60577f4e487b7100000000000000000000000000000000000000000000000000000000600052603260045260246000fd5b6020026020010151858381518110610ca1577f4e487b7100000000000000000000000000000000000000000000000000000000600052603260045260246000fd5b60200260200101516105ba565b828281518110610ce7577f4e487b7100000000000000000000000000000000000000000000000000000000600052603260045260246000fd5b60200260200101818152505080610cfd90614f7d565b9050610c1b565b508091505092915050565b7f000000000000000000000000000000000000000000000000000000000000000073ffffffffffffffffffffffffffffffffffffffff163073ffffffffffffffffffffffffffffffffffffffff161415610d9e576040517f08c379a0000000000000000000000000000000000000000000000000000000008152600401610d9590614a4c565b60405180910390fd5b7f000000000000000000000000000000000000000000000000000000000000000073ffffffffffffffffffffffffffffffffffffffff16610ddd611cc0565b73ffffffffffffffffffffffffffffffffffffffff1614610e33576040517f08c379a0000000000000000000000000000000000000000000000000000000008152600401610e2a90614a8c565b60405180910390fd5b610e3c82611d17565b610e4882826001611d96565b5050565b600080610e58836112f9565b119050919050565b600060fb60009054906101000a900460ff16905090565b610e7f6116ea565b73ffffffffffffffffffffffffffffffffffffffff168373ffffffffffffffffffffffffffffffffffffffff161480610ec55750610ec483610ebf6116ea565b6113a3565b5b610f04576040517f08c379a0000000000000000000000000000000000000000000000000000000008152600401610efb90614a6c565b60405180910390fd5b610f0f838383612009565b505050565b610f1c6116ea565b73ffffffffffffffffffffffffffffffffffffffff16610f3a61122d565b73ffffffffffffffffffffffffffffffffffffffff1614610f90576040517f08c379a0000000000000000000000000000000000000000000000000000000008152600401610f8790614b8c565b60405180910390fd5b610f9a6000612308565b565b6000610fa66116ea565b73ffffffffffffffffffffffffffffffffffffffff16610fc461122d565b73ffffffffffffffffffffffffffffffffffffffff161461101a576040517f08c379a000000000000000000000000000000000000000000000000000000000815260040161101190614b8c565b60405180910390fd5b600033905061102a6101c36123ce565b60006110376101c36123e4565b9050611045338287876123f2565b6110508260016112e3565b8092505050949350505050565b600060019054906101000a900460ff166110855760008054906101000a900460ff161561108e565b61108d612589565b5b6110cd576040517f08c379a00000000000000000000000000000000000000000000000000000000081526004016110c490614b0c565b60405180910390fd5b60008060019054906101000a900460ff16159050801561111d576001600060016101000a81548160ff02191690831515021790555060016000806101000a81548160ff0219169083151502179055505b61115b6040518060400160405280601081526020017f697066733a2f2f7b69647d2e6a736f6e0000000000000000000000000000000081525061259a565b611163612605565b61116b612666565b6111736126c7565b61117b612730565b611183612791565b80156111a45760008060016101000a81548160ff0219169083151502179055505b50565b6111af6116ea565b73ffffffffffffffffffffffffffffffffffffffff166111cd61122d565b73ffffffffffffffffffffffffffffffffffffffff1614611223576040517f08c379a000000000000000000000000000000000000000000000000000000000815260040161121a90614b8c565b60405180910390fd5b61122b6127fa565b565b600060c960009054906101000a900473ffffffffffffffffffffffffffffffffffffffff16905090565b61125f6116ea565b73ffffffffffffffffffffffffffffffffffffffff1661127d61122d565b73ffffffffffffffffffffffffffffffffffffffff16146112d3576040517f08c379a00000000000000000000000000000000000000000000000000000000081526004016112ca90614b8c565b60405180910390fd5b6112de8383836115d0565b505050565b6112f56112ee6116ea565b838361289d565b5050565b600061012d6000838152602001908152602001600020549050919050565b61131f6116ea565b73ffffffffffffffffffffffffffffffffffffffff1661133d61122d565b73ffffffffffffffffffffffffffffffffffffffff1614611393576040517f08c379a000000000000000000000000000000000000000000000000000000000815260040161138a90614b8c565b60405180910390fd5b61139e838383610e77565b505050565b6000606660008473ffffffffffffffffffffffffffffffffffffffff1673ffffffffffffffffffffffffffffffffffffffff16815260200190815260200160002060008373ffffffffffffffffffffffffffffffffffffffff1673ffffffffffffffffffffffffffffffffffffffff16815260200190815260200160002060009054906101000a900460ff16905092915050565b61143f6116ea565b73ffffffffffffffffffffffffffffffffffffffff168573ffffffffffffffffffffffffffffffffffffffff16148061148557506114848561147f6116ea565b6113a3565b5b6114c4576040517f08c379a00000000000000000000000000000000000000000000000000000000081526004016114bb90614a6c565b60405180910390fd5b6114d18585858585612a0a565b5050505050565b6114e06116ea565b73ffffffffffffffffffffffffffffffffffffffff166114fe61122d565b73ffffffffffffffffffffffffffffffffffffffff1614611554576040517f08c379a000000000000000000000000000000000000000000000000000000000815260040161154b90614b8c565b60405180910390fd5b600073ffffffffffffffffffffffffffffffffffffffff168173ffffffffffffffffffffffffffffffffffffffff1614156115c4576040517f08c379a00000000000000000000000000000000000000000000000000000000081526004016115bb90614a0c565b60405180910390fd5b6115cd81612308565b50565b6115d86116ea565b73ffffffffffffffffffffffffffffffffffffffff168373ffffffffffffffffffffffffffffffffffffffff16148061161e575061161d836116186116ea565b6113a3565b5b61165d576040517f08c379a000000000000000000000000000000000000000000000000000000000815260040161165490614a6c565b60405180910390fd5b611668838383612c8f565b505050565b600080823b905060008111915050919050565b60007f01ffc9a7000000000000000000000000000000000000000000000000000000007bffffffffffffffffffffffffffffffffffffffffffffffffffffffff1916827bffffffffffffffffffffffffffffffffffffffffffffffffffffffff1916149050919050565b600033905090565b600073ffffffffffffffffffffffffffffffffffffffff168473ffffffffffffffffffffffffffffffffffffffff161415611762576040517f08c379a000000000000000000000000000000000000000000000000000000000815260040161175990614c4c565b60405180910390fd5b81518351146117a6576040517f08c379a000000000000000000000000000000000000000000000000000000000815260040161179d90614c2c565b60405180910390fd5b60006117b06116ea565b90506117c181600087878787612eae565b60005b84518110156118c757838181518110611806577f4e487b7100000000000000000000000000000000000000000000000000000000600052603260045260246000fd5b60200260200101516065600087848151811061184b577f4e487b7100000000000000000000000000000000000000000000000000000000600052603260045260246000fd5b6020026020010151815260200190815260200160002060008873ffffffffffffffffffffffffffffffffffffffff1673ffffffffffffffffffffffffffffffffffffffff16815260200190815260200160002060008282546118ad9190614dda565b9250508190555080806118bf90614f7d565b9150506117c4565b508473ffffffffffffffffffffffffffffffffffffffff16600073ffffffffffffffffffffffffffffffffffffffff168273ffffffffffffffffffffffffffffffffffffffff167f4a39dc06d4c0dbc64b70af90fd698a233a518aa5d07e595d983b8c0526c8f7fb878760405161193f9291906148f8565b60405180910390a461195681600087878787612f0c565b5050505050565b81518351146119a1576040517f08c379a000000000000000000000000000000000000000000000000000000000815260040161199890614c2c565b60405180910390fd5b600073ffffffffffffffffffffffffffffffffffffffff168473ffffffffffffffffffffffffffffffffffffffff161415611a11576040517f08c379a0000000000000000000000000000000000000000000000000000000008152600401611a0890614acc565b60405180910390fd5b6000611a1b6116ea565b9050611a2b818787878787612eae565b60005b8451811015611c2b576000858281518110611a72577f4e487b7100000000000000000000000000000000000000000000000000000000600052603260045260246000fd5b602002602001015190506000858381518110611ab7577f4e487b7100000000000000000000000000000000000000000000000000000000600052603260045260246000fd5b6020026020010151905060006065600084815260200190815260200160002060008b73ffffffffffffffffffffffffffffffffffffffff1673ffffffffffffffffffffffffffffffffffffffff16815260200190815260200160002054905081811015611b59576040517f08c379a0000000000000000000000000000000000000000000000000000000008152600401611b5090614b4c565b60405180910390fd5b8181036065600085815260200190815260200160002060008c73ffffffffffffffffffffffffffffffffffffffff1673ffffffffffffffffffffffffffffffffffffffff16815260200190815260200160002081905550816065600085815260200190815260200160002060008b73ffffffffffffffffffffffffffffffffffffffff1673ffffffffffffffffffffffffffffffffffffffff1681526020019081526020016000206000828254611c109190614dda565b9250508190555050505080611c2490614f7d565b9050611a2e565b508473ffffffffffffffffffffffffffffffffffffffff168673ffffffffffffffffffffffffffffffffffffffff168273ffffffffffffffffffffffffffffffffffffffff167f4a39dc06d4c0dbc64b70af90fd698a233a518aa5d07e595d983b8c0526c8f7fb8787604051611ca29291906148f8565b60405180910390a4611cb8818787878787612f0c565b505050505050565b6000611cee7f360894a13ba1a3210667c828492db98dca3e2076cc3735a920a3ca505d382bbc60001b6130f3565b60000160009054906101000a900473ffffffffffffffffffffffffffffffffffffffff16905090565b611d1f6116ea565b73ffffffffffffffffffffffffffffffffffffffff16611d3d61122d565b73ffffffffffffffffffffffffffffffffffffffff1614611d93576040517f08c379a0000000000000000000000000000000000000000000000000000000008152600401611d8a90614b8c565b60405180910390fd5b50565b6000611da0611cc0565b9050611dab846130fd565b600083511180611db85750815b15611dc957611dc784846131b6565b505b6000611df77f4910fdfa16fed3260ed0e7147f7cc6da11a60208b5b9406d12a635614ffd914360001b61329a565b90508060000160009054906101000a900460ff16611f605760018160000160006101000a81548160ff021916908315150217905550611ec38583604051602401611e4191906147f9565b6040516020818303038152906040527f3659cfe6000000000000000000000000000000000000000000000000000000007bffffffffffffffffffffffffffffffffffffffffffffffffffffffff19166020820180517bffffffffffffffffffffffffffffffffffffffffffffffffffffffff83818316178352505050506131b6565b5060008160000160006101000a81548160ff021916908315150217905550611ee9611cc0565b73ffffffffffffffffffffffffffffffffffffffff168273ffffffffffffffffffffffffffffffffffffffff1614611f56576040517f08c379a0000000000000000000000000000000000000000000000000000000008152600401611f4d906149ec565b60405180910390fd5b611f5f856132a4565b5b5050505050565b611f6f610e60565b611fae576040517f08c379a0000000000000000000000000000000000000000000000000000000008152600401611fa5906149ac565b60405180910390fd5b600060fb60006101000a81548160ff0219169083151502179055507f5db9ee0a495bf2e6ff9c91a7834c1ba4fdd244a5e8aa4e537bd38aeae4b073aa611ff26116ea565b604051611fff91906147f9565b60405180910390a1565b600073ffffffffffffffffffffffffffffffffffffffff168373ffffffffffffffffffffffffffffffffffffffff161415612079576040517f08c379a000000000000000000000000000000000000000000000000000000000815260040161207090614b2c565b60405180910390fd5b80518251146120bd576040517f08c379a00000000000000000000000000000000000000000000000000000000081526004016120b490614c2c565b60405180910390fd5b60006120c76116ea565b90506120e781856000868660405180602001604052806000815250612eae565b60005b835181101561228257600084828151811061212e577f4e487b7100000000000000000000000000000000000000000000000000000000600052603260045260246000fd5b602002602001015190506000848381518110612173577f4e487b7100000000000000000000000000000000000000000000000000000000600052603260045260246000fd5b6020026020010151905060006065600084815260200190815260200160002060008973ffffffffffffffffffffffffffffffffffffffff1673ffffffffffffffffffffffffffffffffffffffff16815260200190815260200160002054905081811015612215576040517f08c379a000000000000000000000000000000000000000000000000000000000815260040161220c90614a2c565b60405180910390fd5b8181036065600085815260200190815260200160002060008a73ffffffffffffffffffffffffffffffffffffffff1673ffffffffffffffffffffffffffffffffffffffff16815260200190815260200160002081905550505050808061227a90614f7d565b9150506120ea565b50600073ffffffffffffffffffffffffffffffffffffffff168473ffffffffffffffffffffffffffffffffffffffff168273ffffffffffffffffffffffffffffffffffffffff167f4a39dc06d4c0dbc64b70af90fd698a233a518aa5d07e595d983b8c0526c8f7fb86866040516122fa9291906148f8565b60405180910390a450505050565b600060c960009054906101000a900473ffffffffffffffffffffffffffffffffffffffff1690508160c960006101000a81548173ffffffffffffffffffffffffffffffffffffffff021916908373ffffffffffffffffffffffffffffffffffffffff1602179055508173ffffffffffffffffffffffffffffffffffffffff168173ffffffffffffffffffffffffffffffffffffffff167f8be0079c531659141344cd1fd0a4f28419497f9722a3daafe3b4186f6b6457e060405160405180910390a35050565b6001816000016000828254019250508190555050565b600081600001549050919050565b600073ffffffffffffffffffffffffffffffffffffffff168473ffffffffffffffffffffffffffffffffffffffff161415612462576040517f08c379a000000000000000000000000000000000000000000000000000000000815260040161245990614c4c565b60405180910390fd5b600061246c6116ea565b905061248d8160008761247e886132f3565b612487886132f3565b87612eae565b826065600086815260200190815260200160002060008773ffffffffffffffffffffffffffffffffffffffff1673ffffffffffffffffffffffffffffffffffffffff16815260200190815260200160002060008282546124ed9190614dda565b925050819055508473ffffffffffffffffffffffffffffffffffffffff16600073ffffffffffffffffffffffffffffffffffffffff168273ffffffffffffffffffffffffffffffffffffffff167fc3d58168c5ae7397731d063d5bbf3d657854427343f4c083240f7aacaa2d0f62878760405161256b929190614c87565b60405180910390a4612582816000878787876133b9565b5050505050565b60006125943061166d565b15905090565b600060019054906101000a900460ff166125e9576040517f08c379a00000000000000000000000000000000000000000000000000000000081526004016125e090614bcc565b60405180910390fd5b6125f16135a0565b6125f96135f1565b61260281613642565b50565b600060019054906101000a900460ff16612654576040517f08c379a000000000000000000000000000000000000000000000000000000000815260040161264b90614bcc565b60405180910390fd5b61265c6135a0565b61266461369d565b565b600060019054906101000a900460ff166126b5576040517f08c379a00000000000000000000000000000000000000000000000000000000081526004016126ac90614bcc565b60405180910390fd5b6126bd6135a0565b6126c56136fe565b565b600060019054906101000a900460ff16612716576040517f08c379a000000000000000000000000000000000000000000000000000000000815260040161270d90614bcc565b60405180910390fd5b61271e6135a0565b6127266135f1565b61272e61376a565b565b600060019054906101000a900460ff1661277f576040517f08c379a000000000000000000000000000000000000000000000000000000000815260040161277690614bcc565b60405180910390fd5b6127876137bb565b61278f61380c565b565b600060019054906101000a900460ff166127e0576040517f08c379a00000000000000000000000000000000000000000000000000000000081526004016127d790614bcc565b60405180910390fd5b6127e86135a0565b6127f06135f1565b6127f861385d565b565b612802610e60565b15612842576040517f08c379a000000000000000000000000000000000000000000000000000000000815260040161283990614aac565b60405180910390fd5b600160fb60006101000a81548160ff0219169083151502179055507f62e78cea01bee320cd4e420270b5ea74000d11b0c9f74754ebdbfc544b05a2586128866116ea565b60405161289391906147f9565b60405180910390a1565b8173ffffffffffffffffffffffffffffffffffffffff168373ffffffffffffffffffffffffffffffffffffffff16141561290c576040517f08c379a000000000000000000000000000000000000000000000000000000000815260040161290390614bec565b60405180910390fd5b80606660008573ffffffffffffffffffffffffffffffffffffffff1673ffffffffffffffffffffffffffffffffffffffff16815260200190815260200160002060008473ffffffffffffffffffffffffffffffffffffffff1673ffffffffffffffffffffffffffffffffffffffff16815260200190815260200160002060006101000a81548160ff0219169083151502179055508173ffffffffffffffffffffffffffffffffffffffff168373ffffffffffffffffffffffffffffffffffffffff167f17307eab39ab6107e8899845ad3d59bd9653f200f220920489ca2b5937696c31836040516129fd919061492f565b60405180910390a3505050565b600073ffffffffffffffffffffffffffffffffffffffff168473ffffffffffffffffffffffffffffffffffffffff161415612a7a576040517f08c379a0000000000000000000000000000000000000000000000000000000008152600401612a7190614acc565b60405180910390fd5b6000612a846116ea565b9050612aa4818787612a95886132f3565b612a9e886132f3565b87612eae565b60006065600086815260200190815260200160002060008873ffffffffffffffffffffffffffffffffffffffff1673ffffffffffffffffffffffffffffffffffffffff16815260200190815260200160002054905083811015612b3c576040517f08c379a0000000000000000000000000000000000000000000000000000000008152600401612b3390614b4c565b60405180910390fd5b8381036065600087815260200190815260200160002060008973ffffffffffffffffffffffffffffffffffffffff1673ffffffffffffffffffffffffffffffffffffffff16815260200190815260200160002081905550836065600087815260200190815260200160002060008873ffffffffffffffffffffffffffffffffffffffff1673ffffffffffffffffffffffffffffffffffffffff1681526020019081526020016000206000828254612bf39190614dda565b925050819055508573ffffffffffffffffffffffffffffffffffffffff168773ffffffffffffffffffffffffffffffffffffffff168373ffffffffffffffffffffffffffffffffffffffff167fc3d58168c5ae7397731d063d5bbf3d657854427343f4c083240f7aacaa2d0f628888604051612c70929190614c87565b60405180910390a4612c868288888888886133b9565b50505050505050565b600073ffffffffffffffffffffffffffffffffffffffff168373ffffffffffffffffffffffffffffffffffffffff161415612cff576040517f08c379a0000000000000000000000000000000000000000000000000000000008152600401612cf690614b2c565b60405180910390fd5b6000612d096116ea565b9050612d3981856000612d1b876132f3565b612d24876132f3565b60405180602001604052806000815250612eae565b60006065600085815260200190815260200160002060008673ffffffffffffffffffffffffffffffffffffffff1673ffffffffffffffffffffffffffffffffffffffff16815260200190815260200160002054905082811015612dd1576040517f08c379a0000000000000000000000000000000000000000000000000000000008152600401612dc890614a2c565b60405180910390fd5b8281036065600086815260200190815260200160002060008773ffffffffffffffffffffffffffffffffffffffff1673ffffffffffffffffffffffffffffffffffffffff16815260200190815260200160002081905550600073ffffffffffffffffffffffffffffffffffffffff168573ffffffffffffffffffffffffffffffffffffffff168373ffffffffffffffffffffffffffffffffffffffff167fc3d58168c5ae7397731d063d5bbf3d657854427343f4c083240f7aacaa2d0f628787604051612e9f929190614c87565b60405180910390a45050505050565b612eb6610e60565b15612ef6576040517f08c379a0000000000000000000000000000000000000000000000000000000008152600401612eed90614aac565b60405180910390fd5b612f048686868686866138ae565b505050505050565b612f2b8473ffffffffffffffffffffffffffffffffffffffff1661166d565b156130eb578373ffffffffffffffffffffffffffffffffffffffff1663bc197c8187878686866040518663ffffffff1660e01b8152600401612f71959493929190614814565b602060405180830381600087803b158015612f8b57600080fd5b505af1925050508015612fbc57506040513d601f19601f82011682018060405250810190612fb991906142f3565b60015b61306257612fc8615053565b806308c379a014156130255750612fdd615789565b80612fe85750613027565b806040517f08c379a000000000000000000000000000000000000000000000000000000000815260040161301c919061494a565b60405180910390fd5b505b6040517f08c379a00000000000000000000000000000000000000000000000000000000081526004016130599061496c565b60405180910390fd5b63bc197c8160e01b7bffffffffffffffffffffffffffffffffffffffffffffffffffffffff1916817bffffffffffffffffffffffffffffffffffffffffffffffffffffffff1916146130e9576040517f08c379a00000000000000000000000000000000000000000000000000000000081526004016130e09061498c565b60405180910390fd5b505b505050505050565b6000819050919050565b6131068161166d565b613145576040517f08c379a000000000000000000000000000000000000000000000000000000000815260040161313c90614b6c565b60405180910390fd5b806131727f360894a13ba1a3210667c828492db98dca3e2076cc3735a920a3ca505d382bbc60001b6130f3565b60000160006101000a81548173ffffffffffffffffffffffffffffffffffffffff021916908373ffffffffffffffffffffffffffffffffffffffff16021790555050565b60606131c18361166d565b613200576040517f08c379a00000000000000000000000000000000000000000000000000000000081526004016131f790614bac565b60405180910390fd5b6000808473ffffffffffffffffffffffffffffffffffffffff168460405161322891906147e2565b600060405180830381855af49150503d8060008114613263576040519150601f19603f3d011682016040523d82523d6000602084013e613268565b606091505b5091509150613290828260405180606001604052806027815260200161587c60279139613ac2565b9250505092915050565b6000819050919050565b6132ad816130fd565b8073ffffffffffffffffffffffffffffffffffffffff167fbc7cd75a20ee27fd9adebab32041f755214dbc6bffa90cc0225b39da2e5c2d3b60405160405180910390a250565b60606000600167ffffffffffffffff811115613338577f4e487b7100000000000000000000000000000000000000000000000000000000600052604160045260246000fd5b6040519080825280602002602001820160405280156133665781602001602082028036833780820191505090505b50905082816000815181106133a4577f4e487b7100000000000000000000000000000000000000000000000000000000600052603260045260246000fd5b60200260200101818152505080915050919050565b6133d88473ffffffffffffffffffffffffffffffffffffffff1661166d565b15613598578373ffffffffffffffffffffffffffffffffffffffff1663f23a6e6187878686866040518663ffffffff1660e01b815260040161341e95949392919061487c565b602060405180830381600087803b15801561343857600080fd5b505af192505050801561346957506040513d601f19601f8201168201806040525081019061346691906142f3565b60015b61350f57613475615053565b806308c379a014156134d2575061348a615789565b8061349557506134d4565b806040517f08c379a00000000000000000000000000000000000000000000000000000000081526004016134c9919061494a565b60405180910390fd5b505b6040517f08c379a00000000000000000000000000000000000000000000000000000000081526004016135069061496c565b60405180910390fd5b63f23a6e6160e01b7bffffffffffffffffffffffffffffffffffffffffffffffffffffffff1916817bffffffffffffffffffffffffffffffffffffffffffffffffffffffff191614613596576040517f08c379a000000000000000000000000000000000000000000000000000000000815260040161358d9061498c565b60405180910390fd5b505b505050505050565b600060019054906101000a900460ff166135ef576040517f08c379a00000000000000000000000000000000000000000000000000000000081526004016135e690614bcc565b60405180910390fd5b565b600060019054906101000a900460ff16613640576040517f08c379a000000000000000000000000000000000000000000000000000000000815260040161363790614bcc565b60405180910390fd5b565b600060019054906101000a900460ff16613691576040517f08c379a000000000000000000000000000000000000000000000000000000000815260040161368890614bcc565b60405180910390fd5b61369a81613b29565b50565b600060019054906101000a900460ff166136ec576040517f08c379a00000000000000000000000000000000000000000000000000000000081526004016136e390614bcc565b60405180910390fd5b6136fc6136f76116ea565b612308565b565b600060019054906101000a900460ff1661374d576040517f08c379a000000000000000000000000000000000000000000000000000000000815260040161374490614bcc565b60405180910390fd5b600060fb60006101000a81548160ff021916908315150217905550565b600060019054906101000a900460ff166137b9576040517f08c379a00000000000000000000000000000000000000000000000000000000081526004016137b090614bcc565b60405180910390fd5b565b600060019054906101000a900460ff1661380a576040517f08c379a000000000000000000000000000000000000000000000000000000000815260040161380190614bcc565b60405180910390fd5b565b600060019054906101000a900460ff1661385b576040517f08c379a000000000000000000000000000000000000000000000000000000000815260040161385290614bcc565b60405180910390fd5b565b600060019054906101000a900460ff166138ac576040517f08c379a00000000000000000000000000000000000000000000000000000000081526004016138a390614bcc565b60405180910390fd5b565b6138bc868686868686613b43565b600073ffffffffffffffffffffffffffffffffffffffff168573ffffffffffffffffffffffffffffffffffffffff1614156139bb5760005b83518110156139b957828181518110613936577f4e487b7100000000000000000000000000000000000000000000000000000000600052603260045260246000fd5b602002602001015161012d600086848151811061397c577f4e487b7100000000000000000000000000000000000000000000000000000000600052603260045260246000fd5b6020026020010151815260200190815260200160002060008282546139a19190614dda565b92505081905550806139b290614f7d565b90506138f4565b505b600073ffffffffffffffffffffffffffffffffffffffff168473ffffffffffffffffffffffffffffffffffffffff161415613aba5760005b8351811015613ab857828181518110613a35577f4e487b7100000000000000000000000000000000000000000000000000000000600052603260045260246000fd5b602002602001015161012d6000868481518110613a7b577f4e487b7100000000000000000000000000000000000000000000000000000000600052603260045260246000fd5b602002602001015181526020019081526020016000206000828254613aa09190614e30565b9250508190555080613ab190614f7d565b90506139f3565b505b505050505050565b60608315613ad257829050613b22565b600083511115613ae55782518084602001fd5b816040517f08c379a0000000000000000000000000000000000000000000000000000000008152600401613b19919061494a565b60405180910390fd5b9392505050565b8060679080519060200190613b3f929190613b4b565b5050565b505050505050565b828054613b5790614f1a565b90600052602060002090601f016020900481019282613b795760008555613bc0565b82601f10613b9257805160ff1916838001178555613bc0565b82800160010185558215613bc0579182015b82811115613bbf578251825591602001919060010190613ba4565b5b509050613bcd9190613bd1565b5090565b5b80821115613bea576000816000905550600101613bd2565b5090565b6000613c01613bfc84614cd5565b614cb0565b90508083825260208201905082856020860282011115613c2057600080fd5b60005b85811015613c505781613c368882613d04565b845260208401935060208301925050600181019050613c23565b5050509392505050565b6000613c6d613c6884614d01565b614cb0565b90508083825260208201905082856020860282011115613c8c57600080fd5b60005b85811015613cbc5781613ca28882613dd6565b845260208401935060208301925050600181019050613c8f565b5050509392505050565b6000613cd9613cd484614d2d565b614cb0565b905082815260208101848484011115613cf157600080fd5b613cfc848285614ed8565b509392505050565b600081359050613d138161581f565b92915050565b600082601f830112613d2a57600080fd5b8135613d3a848260208601613bee565b91505092915050565b600082601f830112613d5457600080fd5b8135613d64848260208601613c5a565b91505092915050565b600081359050613d7c81615836565b92915050565b600081359050613d918161584d565b92915050565b600081519050613da68161584d565b92915050565b600082601f830112613dbd57600080fd5b8135613dcd848260208601613cc6565b91505092915050565b600081359050613de581615864565b92915050565b600060208284031215613dfd57600080fd5b6000613e0b84828501613d04565b91505092915050565b60008060408385031215613e2757600080fd5b6000613e3585828601613d04565b9250506020613e4685828601613d04565b9150509250929050565b600080600080600060a08688031215613e6857600080fd5b6000613e7688828901613d04565b9550506020613e8788828901613d04565b945050604086013567ffffffffffffffff811115613ea457600080fd5b613eb088828901613d43565b935050606086013567ffffffffffffffff811115613ecd57600080fd5b613ed988828901613d43565b925050608086013567ffffffffffffffff811115613ef657600080fd5b613f0288828901613dac565b9150509295509295909350565b600080600080600060a08688031215613f2757600080fd5b6000613f3588828901613d04565b9550506020613f4688828901613d04565b9450506040613f5788828901613dd6565b9350506060613f6888828901613dd6565b925050608086013567ffffffffffffffff811115613f8557600080fd5b613f9188828901613dac565b9150509295509295909350565b600080600060608486031215613fb357600080fd5b6000613fc186828701613d04565b935050602084013567ffffffffffffffff811115613fde57600080fd5b613fea86828701613d43565b925050604084013567ffffffffffffffff81111561400757600080fd5b61401386828701613d43565b9150509250925092565b6000806000806080858703121561403357600080fd5b600061404187828801613d04565b945050602085013567ffffffffffffffff81111561405e57600080fd5b61406a87828801613d43565b935050604085013567ffffffffffffffff81111561408757600080fd5b61409387828801613d43565b925050606085013567ffffffffffffffff8111156140b057600080fd5b6140bc87828801613dac565b91505092959194509250565b600080604083850312156140db57600080fd5b60006140e985828601613d04565b92505060206140fa85828601613d6d565b9150509250929050565b6000806040838503121561411757600080fd5b600061412585828601613d04565b925050602083013567ffffffffffffffff81111561414257600080fd5b61414e85828601613dac565b9150509250929050565b6000806040838503121561416b57600080fd5b600061417985828601613d04565b925050602061418a85828601613dd6565b9150509250929050565b6000806000606084860312156141a957600080fd5b60006141b786828701613d04565b93505060206141c886828701613dd6565b92505060406141d986828701613dd6565b9150509250925092565b600080600080608085870312156141f957600080fd5b600061420787828801613d04565b945050602061421887828801613dd6565b935050604061422987828801613dd6565b925050606085013567ffffffffffffffff81111561424657600080fd5b61425287828801613dac565b91505092959194509250565b6000806040838503121561427157600080fd5b600083013567ffffffffffffffff81111561428b57600080fd5b61429785828601613d19565b925050602083013567ffffffffffffffff8111156142b457600080fd5b6142c085828601613d43565b9150509250929050565b6000602082840312156142dc57600080fd5b60006142ea84828501613d82565b91505092915050565b60006020828403121561430557600080fd5b600061431384828501613d97565b91505092915050565b60006020828403121561432e57600080fd5b600061433c84828501613dd6565b91505092915050565b600061435183836147c4565b60208301905092915050565b61436681614e64565b82525050565b600061437782614d6e565b6143818185614d9c565b935061438c83614d5e565b8060005b838110156143bd5781516143a48882614345565b97506143af83614d8f565b925050600181019050614390565b5085935050505092915050565b6143d381614e76565b82525050565b60006143e482614d79565b6143ee8185614dad565b93506143fe818560208601614ee7565b61440781615075565b840191505092915050565b600061441d82614d79565b6144278185614dbe565b9350614437818560208601614ee7565b80840191505092915050565b600061444e82614d84565b6144588185614dc9565b9350614468818560208601614ee7565b61447181615075565b840191505092915050565b6000614489603483614dc9565b915061449482615093565b604082019050919050565b60006144ac602883614dc9565b91506144b7826150e2565b604082019050919050565b60006144cf601483614dc9565b91506144da82615131565b602082019050919050565b60006144f2602b83614dc9565b91506144fd8261515a565b604082019050919050565b6000614515602f83614dc9565b9150614520826151a9565b604082019050919050565b6000614538602683614dc9565b9150614543826151f8565b604082019050919050565b600061455b602483614dc9565b915061456682615247565b604082019050919050565b600061457e602c83614dc9565b915061458982615296565b604082019050919050565b60006145a1602983614dc9565b91506145ac826152e5565b604082019050919050565b60006145c4602c83614dc9565b91506145cf82615334565b604082019050919050565b60006145e7601083614dc9565b91506145f282615383565b602082019050919050565b600061460a602583614dc9565b9150614615826153ac565b604082019050919050565b600061462d603283614dc9565b9150614638826153fb565b604082019050919050565b6000614650602e83614dc9565b915061465b8261544a565b604082019050919050565b6000614673602383614dc9565b915061467e82615499565b604082019050919050565b6000614696602a83614dc9565b91506146a1826154e8565b604082019050919050565b60006146b9602d83614dc9565b91506146c482615537565b604082019050919050565b60006146dc602083614dc9565b91506146e782615586565b602082019050919050565b60006146ff602683614dc9565b915061470a826155af565b604082019050919050565b6000614722602b83614dc9565b915061472d826155fe565b604082019050919050565b6000614745602983614dc9565b91506147508261564d565b604082019050919050565b6000614768602983614dc9565b91506147738261569c565b604082019050919050565b600061478b602883614dc9565b9150614796826156eb565b604082019050919050565b60006147ae602183614dc9565b91506147b98261573a565b604082019050919050565b6147cd81614ece565b82525050565b6147dc81614ece565b82525050565b60006147ee8284614412565b915081905092915050565b600060208201905061480e600083018461435d565b92915050565b600060a082019050614829600083018861435d565b614836602083018761435d565b8181036040830152614848818661436c565b9050818103606083015261485c818561436c565b9050818103608083015261487081846143d9565b90509695505050505050565b600060a082019050614891600083018861435d565b61489e602083018761435d565b6148ab60408301866147d3565b6148b860608301856147d3565b81810360808301526148ca81846143d9565b90509695505050505050565b600060208201905081810360008301526148f0818461436c565b905092915050565b60006040820190508181036000830152614912818561436c565b90508181036020830152614926818461436c565b90509392505050565b600060208201905061494460008301846143ca565b92915050565b600060208201905081810360008301526149648184614443565b905092915050565b600060208201905081810360008301526149858161447c565b9050919050565b600060208201905081810360008301526149a58161449f565b9050919050565b600060208201905081810360008301526149c5816144c2565b9050919050565b600060208201905081810360008301526149e5816144e5565b9050919050565b60006020820190508181036000830152614a0581614508565b9050919050565b60006020820190508181036000830152614a258161452b565b9050919050565b60006020820190508181036000830152614a458161454e565b9050919050565b60006020820190508181036000830152614a6581614571565b9050919050565b60006020820190508181036000830152614a8581614594565b9050919050565b60006020820190508181036000830152614aa5816145b7565b9050919050565b60006020820190508181036000830152614ac5816145da565b9050919050565b60006020820190508181036000830152614ae5816145fd565b9050919050565b60006020820190508181036000830152614b0581614620565b9050919050565b60006020820190508181036000830152614b2581614643565b9050919050565b60006020820190508181036000830152614b4581614666565b9050919050565b60006020820190508181036000830152614b6581614689565b9050919050565b60006020820190508181036000830152614b85816146ac565b9050919050565b60006020820190508181036000830152614ba5816146cf565b9050919050565b60006020820190508181036000830152614bc5816146f2565b9050919050565b60006020820190508181036000830152614be581614715565b9050919050565b60006020820190508181036000830152614c0581614738565b9050919050565b60006020820190508181036000830152614c258161475b565b9050919050565b60006020820190508181036000830152614c458161477e565b9050919050565b60006020820190508181036000830152614c65816147a1565b9050919050565b6000602082019050614c8160008301846147d3565b92915050565b6000604082019050614c9c60008301856147d3565b614ca960208301846147d3565b9392505050565b6000614cba614ccb565b9050614cc68282614f4c565b919050565b6000604051905090565b600067ffffffffffffffff821115614cf057614cef615024565b5b602082029050602081019050919050565b600067ffffffffffffffff821115614d1c57614d1b615024565b5b602082029050602081019050919050565b600067ffffffffffffffff821115614d4857614d47615024565b5b614d5182615075565b9050602081019050919050565b6000819050602082019050919050565b600081519050919050565b600081519050919050565b600081519050919050565b6000602082019050919050565b600082825260208201905092915050565b600082825260208201905092915050565b600081905092915050565b600082825260208201905092915050565b6000614de582614ece565b9150614df083614ece565b9250827fffffffffffffffffffffffffffffffffffffffffffffffffffffffffffffffff03821115614e2557614e24614fc6565b5b828201905092915050565b6000614e3b82614ece565b9150614e4683614ece565b925082821015614e5957614e58614fc6565b5b828203905092915050565b6000614e6f82614eae565b9050919050565b60008115159050919050565b60007fffffffff0000000000000000000000000000000000000000000000000000000082169050919050565b600073ffffffffffffffffffffffffffffffffffffffff82169050919050565b6000819050919050565b82818337600083830152505050565b60005b83811015614f05578082015181840152602081019050614eea565b83811115614f14576000848401525b50505050565b60006002820490506001821680614f3257607f821691505b60208210811415614f4657614f45614ff5565b5b50919050565b614f5582615075565b810181811067ffffffffffffffff82111715614f7457614f73615024565b5b80604052505050565b6000614f8882614ece565b91507fffffffffffffffffffffffffffffffffffffffffffffffffffffffffffffffff821415614fbb57614fba614fc6565b5b600182019050919050565b7f4e487b7100000000000000000000000000000000000000000000000000000000600052601160045260246000fd5b7f4e487b7100000000000000000000000000000000000000000000000000000000600052602260045260246000fd5b7f4e487b7100000000000000000000000000000000000000000000000000000000600052604160045260246000fd5b600060033d11156150725760046000803e61506f600051615086565b90505b90565b6000601f19601f8301169050919050565b60008160e01c9050919050565b7f455243313135353a207472616e7366657220746f206e6f6e204552433131353560008201527f526563656976657220696d706c656d656e746572000000000000000000000000602082015250565b7f455243313135353a204552433131353552656365697665722072656a6563746560008201527f6420746f6b656e73000000000000000000000000000000000000000000000000602082015250565b7f5061757361626c653a206e6f7420706175736564000000000000000000000000600082015250565b7f455243313135353a2062616c616e636520717565727920666f7220746865207a60008201527f65726f2061646472657373000000000000000000000000000000000000000000602082015250565b7f45524331393637557067726164653a207570677261646520627265616b73206660008201527f7572746865722075706772616465730000000000000000000000000000000000602082015250565b7f4f776e61626c653a206e6577206f776e657220697320746865207a65726f206160008201527f6464726573730000000000000000000000000000000000000000000000000000602082015250565b7f455243313135353a206275726e20616d6f756e7420657863656564732062616c60008201527f616e636500000000000000000000000000000000000000000000000000000000602082015250565b7f46756e6374696f6e206d7573742062652063616c6c6564207468726f7567682060008201527f64656c656761746563616c6c0000000000000000000000000000000000000000602082015250565b7f455243313135353a2063616c6c6572206973206e6f74206f776e6572206e6f7260008201527f20617070726f7665640000000000000000000000000000000000000000000000602082015250565b7f46756e6374696f6e206d7573742062652063616c6c6564207468726f7567682060008201527f6163746976652070726f78790000000000000000000000000000000000000000602082015250565b7f5061757361626c653a2070617573656400000000000000000000000000000000600082015250565b7f455243313135353a207472616e7366657220746f20746865207a65726f20616460008201527f6472657373000000000000000000000000000000000000000000000000000000602082015250565b7f455243313135353a207472616e736665722063616c6c6572206973206e6f742060008201527f6f776e6572206e6f7220617070726f7665640000000000000000000000000000602082015250565b7f496e697469616c697a61626c653a20636f6e747261637420697320616c72656160008201527f647920696e697469616c697a6564000000000000000000000000000000000000602082015250565b7f455243313135353a206275726e2066726f6d20746865207a65726f206164647260008201527f6573730000000000000000000000000000000000000000000000000000000000602082015250565b7f455243313135353a20696e73756666696369656e742062616c616e636520666f60008201527f72207472616e7366657200000000000000000000000000000000000000000000602082015250565b7f455243313936373a206e657720696d706c656d656e746174696f6e206973206e60008201527f6f74206120636f6e747261637400000000000000000000000000000000000000602082015250565b7f4f776e61626c653a2063616c6c6572206973206e6f7420746865206f776e6572600082015250565b7f416464726573733a2064656c65676174652063616c6c20746f206e6f6e2d636f60008201527f6e74726163740000000000000000000000000000000000000000000000000000602082015250565b7f496e697469616c697a61626c653a20636f6e7472616374206973206e6f74206960008201527f6e697469616c697a696e67000000000000000000000000000000000000000000602082015250565b7f455243313135353a2073657474696e6720617070726f76616c2073746174757360008201527f20666f722073656c660000000000000000000000000000000000000000000000602082015250565b7f455243313135353a206163636f756e747320616e6420696473206c656e67746860008201527f206d69736d617463680000000000000000000000000000000000000000000000602082015250565b7f455243313135353a2069647320616e6420616d6f756e7473206c656e6774682060008201527f6d69736d61746368000000000000000000000000000000000000000000000000602082015250565b7f455243313135353a206d696e7420746f20746865207a65726f2061646472657360008201527f7300000000000000000000000000000000000000000000000000000000000000602082015250565b600060443d10156157995761581c565b6157a1614ccb565b60043d036004823e80513d602482011167ffffffffffffffff821117156157c957505061581c565b808201805167ffffffffffffffff8111156157e7575050505061581c565b80602083010160043d03850181111561580457505050505061581c565b61581382602001850186614f4c565b82955050505050505b90565b61582881614e64565b811461583357600080fd5b50565b61583f81614e76565b811461584a57600080fd5b50565b61585681614e82565b811461586157600080fd5b50565b61586d81614ece565b811461587857600080fd5b5056fe416464726573733a206c6f772d6c6576656c2064656c65676174652063616c6c206661696c6564a2646970667358221220a4d081619ff4286b5d71b6c73ef73c7813c4d94a8ad6319a83745c8a1f412d2864736f6c63430008040033",
  "linkReferences": {},
  "deployedLinkReferences": {}
}