{
  "_format": "hh-sol-artifact-1",
  "contractName": "Event",
  "sourceName": "contracts/Event.sol",
  "abi": [
    {
      "inputs": [],
      "stateMutability": "nonpayable",
      "type": "constructor"
    },
    {
      "anonymous": false,
      "inputs": [
        {
          "indexed": false,
          "internalType": "address",
          "name": "previousAdmin",
          "type": "address"
        },
        {
          "indexed": false,
          "internalType": "address",
          "name": "newAdmin",
          "type": "address"
        }
      ],
      "name": "AdminChanged",
      "type": "event"
    },
    {
      "anonymous": false,
      "inputs": [
        {
          "indexed": true,
          "internalType": "address",
          "name": "account",
          "type": "address"
        },
        {
          "indexed": true,
          "internalType": "address",
          "name": "operator",
          "type": "address"
        },
        {
          "indexed": false,
          "internalType": "bool",
          "name": "approved",
          "type": "bool"
        }
      ],
      "name": "ApprovalForAll",
      "type": "event"
    },
    {
      "anonymous": false,
      "inputs": [
        {
          "indexed": true,
          "internalType": "address",
          "name": "beacon",
          "type": "address"
        }
      ],
      "name": "BeaconUpgraded",
      "type": "event"
    },
    {
      "anonymous": false,
      "inputs": [
        {
          "indexed": true,
          "internalType": "uint256",
          "name": "itemId",
          "type": "uint256"
        },
        {
          "indexed": true,
          "internalType": "address",
          "name": "nftContract",
          "type": "address"
        },
        {
          "indexed": true,
          "internalType": "uint256",
          "name": "tokenId",
          "type": "uint256"
        },
        {
          "indexed": false,
          "internalType": "address",
          "name": "seller",
          "type": "address"
        },
        {
          "indexed": false,
          "internalType": "address",
          "name": "owner",
          "type": "address"
        },
        {
          "indexed": false,
          "internalType": "uint256",
          "name": "price",
          "type": "uint256"
        },
        {
          "indexed": false,
          "internalType": "bool",
          "name": "sold",
          "type": "bool"
        }
      ],
      "name": "EventItemCreated",
      "type": "event"
    },
    {
      "anonymous": false,
      "inputs": [
        {
          "indexed": true,
          "internalType": "address",
          "name": "previousOwner",
          "type": "address"
        },
        {
          "indexed": true,
          "internalType": "address",
          "name": "newOwner",
          "type": "address"
        }
      ],
      "name": "OwnershipTransferred",
      "type": "event"
    },
    {
      "anonymous": false,
      "inputs": [
        {
          "indexed": false,
          "internalType": "address",
          "name": "account",
          "type": "address"
        }
      ],
      "name": "Paused",
      "type": "event"
    },
    {
      "anonymous": false,
      "inputs": [
        {
          "indexed": true,
          "internalType": "address",
          "name": "operator",
          "type": "address"
        },
        {
          "indexed": true,
          "internalType": "address",
          "name": "from",
          "type": "address"
        },
        {
          "indexed": true,
          "internalType": "address",
          "name": "to",
          "type": "address"
        },
        {
          "indexed": false,
          "internalType": "uint256[]",
          "name": "ids",
          "type": "uint256[]"
        },
        {
          "indexed": false,
          "internalType": "uint256[]",
          "name": "values",
          "type": "uint256[]"
        }
      ],
      "name": "TransferBatch",
      "type": "event"
    },
    {
      "anonymous": false,
      "inputs": [
        {
          "indexed": true,
          "internalType": "address",
          "name": "operator",
          "type": "address"
        },
        {
          "indexed": true,
          "internalType": "address",
          "name": "from",
          "type": "address"
        },
        {
          "indexed": true,
          "internalType": "address",
          "name": "to",
          "type": "address"
        },
        {
          "indexed": false,
          "internalType": "uint256",
          "name": "id",
          "type": "uint256"
        },
        {
          "indexed": false,
          "internalType": "uint256",
          "name": "value",
          "type": "uint256"
        }
      ],
      "name": "TransferSingle",
      "type": "event"
    },
    {
      "anonymous": false,
      "inputs": [
        {
          "indexed": false,
          "internalType": "string",
          "name": "value",
          "type": "string"
        },
        {
          "indexed": true,
          "internalType": "uint256",
          "name": "id",
          "type": "uint256"
        }
      ],
      "name": "URI",
      "type": "event"
    },
    {
      "anonymous": false,
      "inputs": [
        {
          "indexed": false,
          "internalType": "address",
          "name": "account",
          "type": "address"
        }
      ],
      "name": "Unpaused",
      "type": "event"
    },
    {
      "anonymous": false,
      "inputs": [
        {
          "indexed": true,
          "internalType": "address",
          "name": "implementation",
          "type": "address"
        }
      ],
      "name": "Upgraded",
      "type": "event"
    },
    {
      "inputs": [],
      "name": "_owner",
      "outputs": [
        {
          "internalType": "address",
          "name": "",
          "type": "address"
        }
      ],
      "stateMutability": "view",
      "type": "function"
    },
    {
      "inputs": [
        {
          "internalType": "address",
          "name": "account",
          "type": "address"
        },
        {
          "internalType": "uint256",
          "name": "id",
          "type": "uint256"
        }
      ],
      "name": "balanceOf",
      "outputs": [
        {
          "internalType": "uint256",
          "name": "",
          "type": "uint256"
        }
      ],
      "stateMutability": "view",
      "type": "function"
    },
    {
      "inputs": [
        {
          "internalType": "address[]",
          "name": "accounts",
          "type": "address[]"
        },
        {
          "internalType": "uint256[]",
          "name": "ids",
          "type": "uint256[]"
        }
      ],
      "name": "balanceOfBatch",
      "outputs": [
        {
          "internalType": "uint256[]",
          "name": "",
          "type": "uint256[]"
        }
      ],
      "stateMutability": "view",
      "type": "function"
    },
    {
      "inputs": [
        {
          "internalType": "address",
          "name": "account",
          "type": "address"
        },
        {
          "internalType": "uint256",
          "name": "id",
          "type": "uint256"
        },
        {
          "internalType": "uint256",
          "name": "value",
          "type": "uint256"
        }
      ],
      "name": "burn",
      "outputs": [],
      "stateMutability": "nonpayable",
      "type": "function"
    },
    {
      "inputs": [
        {
          "internalType": "address",
          "name": "account",
          "type": "address"
        },
        {
          "internalType": "uint256[]",
          "name": "ids",
          "type": "uint256[]"
        },
        {
          "internalType": "uint256[]",
          "name": "values",
          "type": "uint256[]"
        }
      ],
      "name": "burnBatch",
      "outputs": [],
      "stateMutability": "nonpayable",
      "type": "function"
    },
    {
      "inputs": [
        {
          "internalType": "address",
          "name": "account",
          "type": "address"
        },
        {
          "internalType": "uint256",
          "name": "id",
          "type": "uint256"
        },
        {
          "internalType": "uint256",
          "name": "amount",
          "type": "uint256"
        },
        {
          "internalType": "bytes",
          "name": "data",
          "type": "bytes"
        }
      ],
      "name": "createEvent",
      "outputs": [],
      "stateMutability": "nonpayable",
      "type": "function"
    },
    {
      "inputs": [
        {
          "internalType": "uint256",
          "name": "id",
          "type": "uint256"
        }
      ],
      "name": "exists",
      "outputs": [
        {
          "internalType": "bool",
          "name": "",
          "type": "bool"
        }
      ],
      "stateMutability": "view",
      "type": "function"
    },
    {
      "inputs": [
        {
          "internalType": "address",
          "name": "marketplaceAddress",
          "type": "address"
        }
      ],
      "name": "initialize",
      "outputs": [],
      "stateMutability": "nonpayable",
      "type": "function"
    },
    {
      "inputs": [
        {
          "internalType": "address",
          "name": "account",
          "type": "address"
        },
        {
          "internalType": "address",
          "name": "operator",
          "type": "address"
        }
      ],
      "name": "isApprovedForAll",
      "outputs": [
        {
          "internalType": "bool",
          "name": "",
          "type": "bool"
        }
      ],
      "stateMutability": "view",
      "type": "function"
    },
    {
      "inputs": [
        {
          "internalType": "address",
          "name": "to",
          "type": "address"
        },
        {
          "internalType": "uint256[]",
          "name": "ids",
          "type": "uint256[]"
        },
        {
          "internalType": "uint256[]",
          "name": "amounts",
          "type": "uint256[]"
        },
        {
          "internalType": "bytes",
          "name": "data",
          "type": "bytes"
        }
      ],
      "name": "mintBatch",
      "outputs": [],
      "stateMutability": "nonpayable",
      "type": "function"
    },
    {
      "inputs": [],
      "name": "owner",
      "outputs": [
        {
          "internalType": "address",
          "name": "",
          "type": "address"
        }
      ],
      "stateMutability": "view",
      "type": "function"
    },
    {
      "inputs": [],
      "name": "pause",
      "outputs": [],
      "stateMutability": "nonpayable",
      "type": "function"
    },
    {
      "inputs": [],
      "name": "paused",
      "outputs": [
        {
          "internalType": "bool",
          "name": "",
          "type": "bool"
        }
      ],
      "stateMutability": "view",
      "type": "function"
    },
    {
      "inputs": [
        {
          "internalType": "address",
          "name": "account",
          "type": "address"
        },
        {
          "internalType": "uint256[]",
          "name": "ids",
          "type": "uint256[]"
        },
        {
          "internalType": "uint256[]",
          "name": "values",
          "type": "uint256[]"
        }
      ],
      "name": "reduceSuppleBatch",
      "outputs": [],
      "stateMutability": "nonpayable",
      "type": "function"
    },
    {
      "inputs": [
        {
          "internalType": "address",
          "name": "account",
          "type": "address"
        },
        {
          "internalType": "uint256",
          "name": "id",
          "type": "uint256"
        },
        {
          "internalType": "uint256",
          "name": "amount",
          "type": "uint256"
        }
      ],
      "name": "reduceSupply",
      "outputs": [],
      "stateMutability": "nonpayable",
      "type": "function"
    },
    {
      "inputs": [],
      "name": "renounceOwnership",
      "outputs": [],
      "stateMutability": "nonpayable",
      "type": "function"
    },
    {
      "inputs": [
        {
          "internalType": "address",
          "name": "from",
          "type": "address"
        },
        {
          "internalType": "address",
          "name": "to",
          "type": "address"
        },
        {
          "internalType": "uint256[]",
          "name": "ids",
          "type": "uint256[]"
        },
        {
          "internalType": "uint256[]",
          "name": "amounts",
          "type": "uint256[]"
        },
        {
          "internalType": "bytes",
          "name": "data",
          "type": "bytes"
        }
      ],
      "name": "safeBatchTransferFrom",
      "outputs": [],
      "stateMutability": "nonpayable",
      "type": "function"
    },
    {
      "inputs": [
        {
          "internalType": "address",
          "name": "from",
          "type": "address"
        },
        {
          "internalType": "address",
          "name": "to",
          "type": "address"
        },
        {
          "internalType": "uint256",
          "name": "id",
          "type": "uint256"
        },
        {
          "internalType": "uint256",
          "name": "amount",
          "type": "uint256"
        },
        {
          "internalType": "bytes",
          "name": "data",
          "type": "bytes"
        }
      ],
      "name": "safeTransferFrom",
      "outputs": [],
      "stateMutability": "nonpayable",
      "type": "function"
    },
    {
      "inputs": [
        {
          "internalType": "address",
          "name": "operator",
          "type": "address"
        },
        {
          "internalType": "bool",
          "name": "approved",
          "type": "bool"
        }
      ],
      "name": "setApprovalForAll",
      "outputs": [],
      "stateMutability": "nonpayable",
      "type": "function"
    },
    {
      "inputs": [
        {
          "internalType": "bytes4",
          "name": "interfaceId",
          "type": "bytes4"
        }
      ],
      "name": "supportsInterface",
      "outputs": [
        {
          "internalType": "bool",
          "name": "",
          "type": "bool"
        }
      ],
      "stateMutability": "view",
      "type": "function"
    },
    {
      "inputs": [
        {
          "internalType": "uint256",
          "name": "id",
          "type": "uint256"
        }
      ],
      "name": "totalSupply",
      "outputs": [
        {
          "internalType": "uint256",
          "name": "",
          "type": "uint256"
        }
      ],
      "stateMutability": "view",
      "type": "function"
    },
    {
      "inputs": [
        {
          "internalType": "address",
          "name": "newOwner",
          "type": "address"
        }
      ],
      "name": "transferOwnership",
      "outputs": [],
      "stateMutability": "nonpayable",
      "type": "function"
    },
    {
      "inputs": [],
      "name": "unpause",
      "outputs": [],
      "stateMutability": "nonpayable",
      "type": "function"
    },
    {
      "inputs": [
        {
          "internalType": "address",
          "name": "newImplementation",
          "type": "address"
        }
      ],
      "name": "upgradeTo",
      "outputs": [],
      "stateMutability": "nonpayable",
      "type": "function"
    },
    {
      "inputs": [
        {
          "internalType": "address",
          "name": "newImplementation",
          "type": "address"
        },
        {
          "internalType": "bytes",
          "name": "data",
          "type": "bytes"
        }
      ],
      "name": "upgradeToAndCall",
      "outputs": [],
      "stateMutability": "payable",
      "type": "function"
    },
    {
      "inputs": [
        {
          "internalType": "uint256",
          "name": "",
          "type": "uint256"
        }
      ],
      "name": "uri",
      "outputs": [
        {
          "internalType": "string",
          "name": "",
          "type": "string"
        }
      ],
      "stateMutability": "view",
      "type": "function"
    }
  ],
  "bytecode": "0x60a06040523073ffffffffffffffffffffffffffffffffffffffff1660809073ffffffffffffffffffffffffffffffffffffffff1660601b8152503480156200004757600080fd5b50600060019054906101000a900460ff16620000725760008054906101000a900460ff161562000083565b620000826200013f60201b60201c565b5b620000c5576040517f08c379a0000000000000000000000000000000000000000000000000000000008152600401620000bc9062000197565b60405180910390fd5b60008060019054906101000a900460ff16159050801562000116576001600060016101000a81548160ff02191690831515021790555060016000806101000a81548160ff0219169083151502179055505b8015620001385760008060016101000a81548160ff0219169083151502179055505b5062000219565b600062000157306200015d60201b620016c51760201c565b15905090565b600080823b905060008111915050919050565b60006200017f602e83620001b9565b91506200018c82620001ca565b604082019050919050565b60006020820190508181036000830152620001b28162000170565b9050919050565b600082825260208201905092915050565b7f496e697469616c697a61626c653a20636f6e747261637420697320616c72656160008201527f647920696e697469616c697a6564000000000000000000000000000000000000602082015250565b60805160601c61591a6200024d60003960008181610a1c01528181610aab01528181610e020152610e91015261591a6000f3fe6080604052600436106101805760003560e01c8063715018a6116100d1578063bd85b0391161008a578063e985e9c511610064578063e985e9c514610546578063f242432a14610583578063f2fde38b146105ac578063f5298aca146105d557610180565b8063bd85b039146104b7578063c4d66de8146104f4578063cc984b8a1461051d57610180565b8063715018a6146103e15780638456cb59146103f85780638da5cb5b1461040f5780639881bd7b1461043a578063a22cb46514610463578063b2bdfa7b1461048c57610180565b80633659cfe61161013e5780634f1ef286116101185780634f1ef286146103345780634f558e79146103505780635c975abb1461038d5780636b20c454146103b857610180565b80633659cfe6146102b75780633f4ba83a146102e05780634e1273f4146102f757610180565b8062fdd58e1461018557806301ffc9a7146101c25780630687baad146101ff5780630e89341c146102285780631f7fdffa146102655780632eb2c2d61461028e575b600080fd5b34801561019157600080fd5b506101ac60048036038101906101a7919061419a565b6105fe565b6040516101b99190614cae565b60405180910390f35b3480156101ce57600080fd5b506101e960048036038101906101e4919061430c565b6106c8565b6040516101f69190614971565b60405180910390f35b34801561020b57600080fd5b5061022660048036038101906102219190614225565b6107aa565b005b34801561023457600080fd5b5061024f600480360381019061024a919061435e565b610857565b60405161025c919061498c565b60405180910390f35b34801561027157600080fd5b5061028c6004803603810190610287919061405f565b6108eb565b005b34801561029a57600080fd5b506102b560048036038101906102b09190613e92565b610979565b005b3480156102c357600080fd5b506102de60048036038101906102d99190613e2d565b610a1a565b005b3480156102ec57600080fd5b506102f5610bc9565b005b34801561030357600080fd5b5061031e600480360381019061031991906142a0565b610c4f565b60405161032b9190614918565b60405180910390f35b61034e60048036038101906103499190614146565b610e00565b005b34801561035c57600080fd5b506103776004803603810190610372919061435e565b610f3d565b6040516103849190614971565b60405180910390f35b34801561039957600080fd5b506103a2610f51565b6040516103af9190614971565b60405180910390f35b3480156103c457600080fd5b506103df60048036038101906103da9190613fe0565b610f68565b005b3480156103ed57600080fd5b506103f6611005565b005b34801561040457600080fd5b5061040d61108d565b005b34801561041b57600080fd5b50610424611113565b604051610431919061483b565b60405180910390f35b34801561044657600080fd5b50610461600480360381019061045c91906141d6565b61113d565b005b34801561046f57600080fd5b5061048a6004803603810190610485919061410a565b6111c9565b005b34801561049857600080fd5b506104a16111df565b6040516104ae919061483b565b60405180910390f35b3480156104c357600080fd5b506104de60048036038101906104d9919061435e565b611206565b6040516104eb9190614cae565b60405180910390f35b34801561050057600080fd5b5061051b60048036038101906105169190613e2d565b611224565b005b34801561052957600080fd5b50610544600480360381019061053f9190613fe0565b61136f565b005b34801561055257600080fd5b5061056d60048036038101906105689190613e56565b6113fb565b60405161057a9190614971565b60405180910390f35b34801561058f57600080fd5b506105aa60048036038101906105a59190613f51565b61148f565b005b3480156105b857600080fd5b506105d360048036038101906105ce9190613e2d565b611530565b005b3480156105e157600080fd5b506105fc60048036038101906105f791906141d6565b611628565b005b60008073ffffffffffffffffffffffffffffffffffffffff168373ffffffffffffffffffffffffffffffffffffffff16141561066f576040517f08c379a000000000000000000000000000000000000000000000000000000000815260040161066690614a0e565b60405180910390fd5b6065600083815260200190815260200160002060008473ffffffffffffffffffffffffffffffffffffffff1673ffffffffffffffffffffffffffffffffffffffff16815260200190815260200160002054905092915050565b60007fd9b67a26000000000000000000000000000000000000000000000000000000007bffffffffffffffffffffffffffffffffffffffffffffffffffffffff1916827bffffffffffffffffffffffffffffffffffffffffffffffffffffffff1916148061079357507f0e89341c000000000000000000000000000000000000000000000000000000007bffffffffffffffffffffffffffffffffffffffffffffffffffffffff1916827bffffffffffffffffffffffffffffffffffffffffffffffffffffffff1916145b806107a357506107a2826116d8565b5b9050919050565b6107b2611742565b73ffffffffffffffffffffffffffffffffffffffff166107d0611113565b73ffffffffffffffffffffffffffffffffffffffff1614610826576040517f08c379a000000000000000000000000000000000000000000000000000000000815260040161081d90614bce565b60405180910390fd5b60006108336101c361174a565b905061085085858560405180602001604052806000815250611758565b5050505050565b60606067805461086690614f5c565b80601f016020809104026020016040519081016040528092919081815260200182805461089290614f5c565b80156108df5780601f106108b4576101008083540402835291602001916108df565b820191906000526020600020905b8154815290600101906020018083116108c257829003601f168201915b50505050509050919050565b6108f3611742565b73ffffffffffffffffffffffffffffffffffffffff16610911611113565b73ffffffffffffffffffffffffffffffffffffffff1614610967576040517f08c379a000000000000000000000000000000000000000000000000000000000815260040161095e90614bce565b60405180910390fd5b610973848484846118ef565b50505050565b610981611742565b73ffffffffffffffffffffffffffffffffffffffff168573ffffffffffffffffffffffffffffffffffffffff1614806109c757506109c6856109c1611742565b6113fb565b5b610a06576040517f08c379a00000000000000000000000000000000000000000000000000000000081526004016109fd90614b2e565b60405180910390fd5b610a138585858585611b5a565b5050505050565b7f000000000000000000000000000000000000000000000000000000000000000073ffffffffffffffffffffffffffffffffffffffff163073ffffffffffffffffffffffffffffffffffffffff161415610aa9576040517f08c379a0000000000000000000000000000000000000000000000000000000008152600401610aa090614a8e565b60405180910390fd5b7f000000000000000000000000000000000000000000000000000000000000000073ffffffffffffffffffffffffffffffffffffffff16610ae8611ebd565b73ffffffffffffffffffffffffffffffffffffffff1614610b3e576040517f08c379a0000000000000000000000000000000000000000000000000000000008152600401610b3590614ace565b60405180910390fd5b610b4781611f14565b610bc681600067ffffffffffffffff811115610b8c577f4e487b7100000000000000000000000000000000000000000000000000000000600052604160045260246000fd5b6040519080825280601f01601f191660200182016040528015610bbe5781602001600182028036833780820191505090505b506000611f93565b50565b610bd1611742565b73ffffffffffffffffffffffffffffffffffffffff16610bef611113565b73ffffffffffffffffffffffffffffffffffffffff1614610c45576040517f08c379a0000000000000000000000000000000000000000000000000000000008152600401610c3c90614bce565b60405180910390fd5b610c4d612164565b565b60608151835114610c95576040517f08c379a0000000000000000000000000000000000000000000000000000000008152600401610c8c90614c4e565b60405180910390fd5b6000835167ffffffffffffffff811115610cd8577f4e487b7100000000000000000000000000000000000000000000000000000000600052604160045260246000fd5b604051908082528060200260200182016040528015610d065781602001602082028036833780820191505090505b50905060005b8451811015610df557610d9f858281518110610d51577f4e487b7100000000000000000000000000000000000000000000000000000000600052603260045260246000fd5b6020026020010151858381518110610d92577f4e487b7100000000000000000000000000000000000000000000000000000000600052603260045260246000fd5b60200260200101516105fe565b828281518110610dd8577f4e487b7100000000000000000000000000000000000000000000000000000000600052603260045260246000fd5b60200260200101818152505080610dee90614fbf565b9050610d0c565b508091505092915050565b7f000000000000000000000000000000000000000000000000000000000000000073ffffffffffffffffffffffffffffffffffffffff163073ffffffffffffffffffffffffffffffffffffffff161415610e8f576040517f08c379a0000000000000000000000000000000000000000000000000000000008152600401610e8690614a8e565b60405180910390fd5b7f000000000000000000000000000000000000000000000000000000000000000073ffffffffffffffffffffffffffffffffffffffff16610ece611ebd565b73ffffffffffffffffffffffffffffffffffffffff1614610f24576040517f08c379a0000000000000000000000000000000000000000000000000000000008152600401610f1b90614ace565b60405180910390fd5b610f2d82611f14565b610f3982826001611f93565b5050565b600080610f4983611206565b119050919050565b600060fb60009054906101000a900460ff16905090565b610f70611742565b73ffffffffffffffffffffffffffffffffffffffff168373ffffffffffffffffffffffffffffffffffffffff161480610fb65750610fb583610fb0611742565b6113fb565b5b610ff5576040517f08c379a0000000000000000000000000000000000000000000000000000000008152600401610fec90614aae565b60405180910390fd5b611000838383612206565b505050565b61100d611742565b73ffffffffffffffffffffffffffffffffffffffff1661102b611113565b73ffffffffffffffffffffffffffffffffffffffff1614611081576040517f08c379a000000000000000000000000000000000000000000000000000000000815260040161107890614bce565b60405180910390fd5b61108b6000612505565b565b611095611742565b73ffffffffffffffffffffffffffffffffffffffff166110b3611113565b73ffffffffffffffffffffffffffffffffffffffff1614611109576040517f08c379a000000000000000000000000000000000000000000000000000000000815260040161110090614bce565b60405180910390fd5b6111116125cb565b565b600060c960009054906101000a900473ffffffffffffffffffffffffffffffffffffffff16905090565b611145611742565b73ffffffffffffffffffffffffffffffffffffffff16611163611113565b73ffffffffffffffffffffffffffffffffffffffff16146111b9576040517f08c379a00000000000000000000000000000000000000000000000000000000081526004016111b090614bce565b60405180910390fd5b6111c4838383611628565b505050565b6111db6111d4611742565b838361266e565b5050565b6101c460009054906101000a900473ffffffffffffffffffffffffffffffffffffffff1681565b600061012d6000838152602001908152602001600020549050919050565b600060019054906101000a900460ff1661124c5760008054906101000a900460ff1615611255565b6112546127db565b5b611294576040517f08c379a000000000000000000000000000000000000000000000000000000000815260040161128b90614b4e565b60405180910390fd5b60008060019054906101000a900460ff1615905080156112e4576001600060016101000a81548160ff02191690831515021790555060016000806101000a81548160ff0219169083151502179055505b6113226040518060400160405280601081526020017f697066733a2f2f7b69647d2e6a736f6e000000000000000000000000000000008152506127ec565b61132a612857565b6113326128b8565b61133a612919565b611342612982565b61134a6129e3565b801561136b5760008060016101000a81548160ff0219169083151502179055505b5050565b611377611742565b73ffffffffffffffffffffffffffffffffffffffff16611395611113565b73ffffffffffffffffffffffffffffffffffffffff16146113eb576040517f08c379a00000000000000000000000000000000000000000000000000000000081526004016113e290614bce565b60405180910390fd5b6113f6838383610f68565b505050565b6000606660008473ffffffffffffffffffffffffffffffffffffffff1673ffffffffffffffffffffffffffffffffffffffff16815260200190815260200160002060008373ffffffffffffffffffffffffffffffffffffffff1673ffffffffffffffffffffffffffffffffffffffff16815260200190815260200160002060009054906101000a900460ff16905092915050565b611497611742565b73ffffffffffffffffffffffffffffffffffffffff168573ffffffffffffffffffffffffffffffffffffffff1614806114dd57506114dc856114d7611742565b6113fb565b5b61151c576040517f08c379a000000000000000000000000000000000000000000000000000000000815260040161151390614aae565b60405180910390fd5b6115298585858585612a4c565b5050505050565b611538611742565b73ffffffffffffffffffffffffffffffffffffffff16611556611113565b73ffffffffffffffffffffffffffffffffffffffff16146115ac576040517f08c379a00000000000000000000000000000000000000000000000000000000081526004016115a390614bce565b60405180910390fd5b600073ffffffffffffffffffffffffffffffffffffffff168173ffffffffffffffffffffffffffffffffffffffff16141561161c576040517f08c379a000000000000000000000000000000000000000000000000000000000815260040161161390614a4e565b60405180910390fd5b61162581612505565b50565b611630611742565b73ffffffffffffffffffffffffffffffffffffffff168373ffffffffffffffffffffffffffffffffffffffff161480611676575061167583611670611742565b6113fb565b5b6116b5576040517f08c379a00000000000000000000000000000000000000000000000000000000081526004016116ac90614aae565b60405180910390fd5b6116c0838383612cd1565b505050565b600080823b905060008111915050919050565b60007f01ffc9a7000000000000000000000000000000000000000000000000000000007bffffffffffffffffffffffffffffffffffffffffffffffffffffffff1916827bffffffffffffffffffffffffffffffffffffffffffffffffffffffff1916149050919050565b600033905090565b600081600001549050919050565b600073ffffffffffffffffffffffffffffffffffffffff168473ffffffffffffffffffffffffffffffffffffffff1614156117c8576040517f08c379a00000000000000000000000000000000000000000000000000000000081526004016117bf90614c8e565b60405180910390fd5b60006117d2611742565b90506117f3816000876117e488612ef0565b6117ed88612ef0565b87612fb6565b826065600086815260200190815260200160002060008773ffffffffffffffffffffffffffffffffffffffff1673ffffffffffffffffffffffffffffffffffffffff16815260200190815260200160002060008282546118539190614e1c565b925050819055508473ffffffffffffffffffffffffffffffffffffffff16600073ffffffffffffffffffffffffffffffffffffffff168273ffffffffffffffffffffffffffffffffffffffff167fc3d58168c5ae7397731d063d5bbf3d657854427343f4c083240f7aacaa2d0f6287876040516118d1929190614cc9565b60405180910390a46118e881600087878787613014565b5050505050565b600073ffffffffffffffffffffffffffffffffffffffff168473ffffffffffffffffffffffffffffffffffffffff16141561195f576040517f08c379a000000000000000000000000000000000000000000000000000000000815260040161195690614c8e565b60405180910390fd5b81518351146119a3576040517f08c379a000000000000000000000000000000000000000000000000000000000815260040161199a90614c6e565b60405180910390fd5b60006119ad611742565b90506119be81600087878787612fb6565b60005b8451811015611ac457838181518110611a03577f4e487b7100000000000000000000000000000000000000000000000000000000600052603260045260246000fd5b602002602001015160656000878481518110611a48577f4e487b7100000000000000000000000000000000000000000000000000000000600052603260045260246000fd5b6020026020010151815260200190815260200160002060008873ffffffffffffffffffffffffffffffffffffffff1673ffffffffffffffffffffffffffffffffffffffff1681526020019081526020016000206000828254611aaa9190614e1c565b925050819055508080611abc90614fbf565b9150506119c1565b508473ffffffffffffffffffffffffffffffffffffffff16600073ffffffffffffffffffffffffffffffffffffffff168273ffffffffffffffffffffffffffffffffffffffff167f4a39dc06d4c0dbc64b70af90fd698a233a518aa5d07e595d983b8c0526c8f7fb8787604051611b3c92919061493a565b60405180910390a4611b53816000878787876131fb565b5050505050565b8151835114611b9e576040517f08c379a0000000000000000000000000000000000000000000000000000000008152600401611b9590614c6e565b60405180910390fd5b600073ffffffffffffffffffffffffffffffffffffffff168473ffffffffffffffffffffffffffffffffffffffff161415611c0e576040517f08c379a0000000000000000000000000000000000000000000000000000000008152600401611c0590614b0e565b60405180910390fd5b6000611c18611742565b9050611c28818787878787612fb6565b60005b8451811015611e28576000858281518110611c6f577f4e487b7100000000000000000000000000000000000000000000000000000000600052603260045260246000fd5b602002602001015190506000858381518110611cb4577f4e487b7100000000000000000000000000000000000000000000000000000000600052603260045260246000fd5b6020026020010151905060006065600084815260200190815260200160002060008b73ffffffffffffffffffffffffffffffffffffffff1673ffffffffffffffffffffffffffffffffffffffff16815260200190815260200160002054905081811015611d56576040517f08c379a0000000000000000000000000000000000000000000000000000000008152600401611d4d90614b8e565b60405180910390fd5b8181036065600085815260200190815260200160002060008c73ffffffffffffffffffffffffffffffffffffffff1673ffffffffffffffffffffffffffffffffffffffff16815260200190815260200160002081905550816065600085815260200190815260200160002060008b73ffffffffffffffffffffffffffffffffffffffff1673ffffffffffffffffffffffffffffffffffffffff1681526020019081526020016000206000828254611e0d9190614e1c565b9250508190555050505080611e2190614fbf565b9050611c2b565b508473ffffffffffffffffffffffffffffffffffffffff168673ffffffffffffffffffffffffffffffffffffffff168273ffffffffffffffffffffffffffffffffffffffff167f4a39dc06d4c0dbc64b70af90fd698a233a518aa5d07e595d983b8c0526c8f7fb8787604051611e9f92919061493a565b60405180910390a4611eb58187878787876131fb565b505050505050565b6000611eeb7f360894a13ba1a3210667c828492db98dca3e2076cc3735a920a3ca505d382bbc60001b6133e2565b60000160009054906101000a900473ffffffffffffffffffffffffffffffffffffffff16905090565b611f1c611742565b73ffffffffffffffffffffffffffffffffffffffff16611f3a611113565b73ffffffffffffffffffffffffffffffffffffffff1614611f90576040517f08c379a0000000000000000000000000000000000000000000000000000000008152600401611f8790614bce565b60405180910390fd5b50565b6000611f9d611ebd565b9050611fa8846133ec565b600083511180611fb55750815b15611fc657611fc484846134a5565b505b6000611ff47f4910fdfa16fed3260ed0e7147f7cc6da11a60208b5b9406d12a635614ffd914360001b613589565b90508060000160009054906101000a900460ff1661215d5760018160000160006101000a81548160ff0219169083151502179055506120c0858360405160240161203e919061483b565b6040516020818303038152906040527f3659cfe6000000000000000000000000000000000000000000000000000000007bffffffffffffffffffffffffffffffffffffffffffffffffffffffff19166020820180517bffffffffffffffffffffffffffffffffffffffffffffffffffffffff83818316178352505050506134a5565b5060008160000160006101000a81548160ff0219169083151502179055506120e6611ebd565b73ffffffffffffffffffffffffffffffffffffffff168273ffffffffffffffffffffffffffffffffffffffff1614612153576040517f08c379a000000000000000000000000000000000000000000000000000000000815260040161214a90614a2e565b60405180910390fd5b61215c85613593565b5b5050505050565b61216c610f51565b6121ab576040517f08c379a00000000000000000000000000000000000000000000000000000000081526004016121a2906149ee565b60405180910390fd5b600060fb60006101000a81548160ff0219169083151502179055507f5db9ee0a495bf2e6ff9c91a7834c1ba4fdd244a5e8aa4e537bd38aeae4b073aa6121ef611742565b6040516121fc919061483b565b60405180910390a1565b600073ffffffffffffffffffffffffffffffffffffffff168373ffffffffffffffffffffffffffffffffffffffff161415612276576040517f08c379a000000000000000000000000000000000000000000000000000000000815260040161226d90614b6e565b60405180910390fd5b80518251146122ba576040517f08c379a00000000000000000000000000000000000000000000000000000000081526004016122b190614c6e565b60405180910390fd5b60006122c4611742565b90506122e481856000868660405180602001604052806000815250612fb6565b60005b835181101561247f57600084828151811061232b577f4e487b7100000000000000000000000000000000000000000000000000000000600052603260045260246000fd5b602002602001015190506000848381518110612370577f4e487b7100000000000000000000000000000000000000000000000000000000600052603260045260246000fd5b6020026020010151905060006065600084815260200190815260200160002060008973ffffffffffffffffffffffffffffffffffffffff1673ffffffffffffffffffffffffffffffffffffffff16815260200190815260200160002054905081811015612412576040517f08c379a000000000000000000000000000000000000000000000000000000000815260040161240990614a6e565b60405180910390fd5b8181036065600085815260200190815260200160002060008a73ffffffffffffffffffffffffffffffffffffffff1673ffffffffffffffffffffffffffffffffffffffff16815260200190815260200160002081905550505050808061247790614fbf565b9150506122e7565b50600073ffffffffffffffffffffffffffffffffffffffff168473ffffffffffffffffffffffffffffffffffffffff168273ffffffffffffffffffffffffffffffffffffffff167f4a39dc06d4c0dbc64b70af90fd698a233a518aa5d07e595d983b8c0526c8f7fb86866040516124f792919061493a565b60405180910390a450505050565b600060c960009054906101000a900473ffffffffffffffffffffffffffffffffffffffff1690508160c960006101000a81548173ffffffffffffffffffffffffffffffffffffffff021916908373ffffffffffffffffffffffffffffffffffffffff1602179055508173ffffffffffffffffffffffffffffffffffffffff168173ffffffffffffffffffffffffffffffffffffffff167f8be0079c531659141344cd1fd0a4f28419497f9722a3daafe3b4186f6b6457e060405160405180910390a35050565b6125d3610f51565b15612613576040517f08c379a000000000000000000000000000000000000000000000000000000000815260040161260a90614aee565b60405180910390fd5b600160fb60006101000a81548160ff0219169083151502179055507f62e78cea01bee320cd4e420270b5ea74000d11b0c9f74754ebdbfc544b05a258612657611742565b604051612664919061483b565b60405180910390a1565b8173ffffffffffffffffffffffffffffffffffffffff168373ffffffffffffffffffffffffffffffffffffffff1614156126dd576040517f08c379a00000000000000000000000000000000000000000000000000000000081526004016126d490614c2e565b60405180910390fd5b80606660008573ffffffffffffffffffffffffffffffffffffffff1673ffffffffffffffffffffffffffffffffffffffff16815260200190815260200160002060008473ffffffffffffffffffffffffffffffffffffffff1673ffffffffffffffffffffffffffffffffffffffff16815260200190815260200160002060006101000a81548160ff0219169083151502179055508173ffffffffffffffffffffffffffffffffffffffff168373ffffffffffffffffffffffffffffffffffffffff167f17307eab39ab6107e8899845ad3d59bd9653f200f220920489ca2b5937696c31836040516127ce9190614971565b60405180910390a3505050565b60006127e6306116c5565b15905090565b600060019054906101000a900460ff1661283b576040517f08c379a000000000000000000000000000000000000000000000000000000000815260040161283290614c0e565b60405180910390fd5b6128436135e2565b61284b613633565b61285481613684565b50565b600060019054906101000a900460ff166128a6576040517f08c379a000000000000000000000000000000000000000000000000000000000815260040161289d90614c0e565b60405180910390fd5b6128ae6135e2565b6128b66136df565b565b600060019054906101000a900460ff16612907576040517f08c379a00000000000000000000000000000000000000000000000000000000081526004016128fe90614c0e565b60405180910390fd5b61290f6135e2565b612917613740565b565b600060019054906101000a900460ff16612968576040517f08c379a000000000000000000000000000000000000000000000000000000000815260040161295f90614c0e565b60405180910390fd5b6129706135e2565b612978613633565b6129806137ac565b565b600060019054906101000a900460ff166129d1576040517f08c379a00000000000000000000000000000000000000000000000000000000081526004016129c890614c0e565b60405180910390fd5b6129d96137fd565b6129e161384e565b565b600060019054906101000a900460ff16612a32576040517f08c379a0000000000000000000000000000000000000000000000000000000008152600401612a2990614c0e565b60405180910390fd5b612a3a6135e2565b612a42613633565b612a4a61389f565b565b600073ffffffffffffffffffffffffffffffffffffffff168473ffffffffffffffffffffffffffffffffffffffff161415612abc576040517f08c379a0000000000000000000000000000000000000000000000000000000008152600401612ab390614b0e565b60405180910390fd5b6000612ac6611742565b9050612ae6818787612ad788612ef0565b612ae088612ef0565b87612fb6565b60006065600086815260200190815260200160002060008873ffffffffffffffffffffffffffffffffffffffff1673ffffffffffffffffffffffffffffffffffffffff16815260200190815260200160002054905083811015612b7e576040517f08c379a0000000000000000000000000000000000000000000000000000000008152600401612b7590614b8e565b60405180910390fd5b8381036065600087815260200190815260200160002060008973ffffffffffffffffffffffffffffffffffffffff1673ffffffffffffffffffffffffffffffffffffffff16815260200190815260200160002081905550836065600087815260200190815260200160002060008873ffffffffffffffffffffffffffffffffffffffff1673ffffffffffffffffffffffffffffffffffffffff1681526020019081526020016000206000828254612c359190614e1c565b925050819055508573ffffffffffffffffffffffffffffffffffffffff168773ffffffffffffffffffffffffffffffffffffffff168373ffffffffffffffffffffffffffffffffffffffff167fc3d58168c5ae7397731d063d5bbf3d657854427343f4c083240f7aacaa2d0f628888604051612cb2929190614cc9565b60405180910390a4612cc8828888888888613014565b50505050505050565b600073ffffffffffffffffffffffffffffffffffffffff168373ffffffffffffffffffffffffffffffffffffffff161415612d41576040517f08c379a0000000000000000000000000000000000000000000000000000000008152600401612d3890614b6e565b60405180910390fd5b6000612d4b611742565b9050612d7b81856000612d5d87612ef0565b612d6687612ef0565b60405180602001604052806000815250612fb6565b60006065600085815260200190815260200160002060008673ffffffffffffffffffffffffffffffffffffffff1673ffffffffffffffffffffffffffffffffffffffff16815260200190815260200160002054905082811015612e13576040517f08c379a0000000000000000000000000000000000000000000000000000000008152600401612e0a90614a6e565b60405180910390fd5b8281036065600086815260200190815260200160002060008773ffffffffffffffffffffffffffffffffffffffff1673ffffffffffffffffffffffffffffffffffffffff16815260200190815260200160002081905550600073ffffffffffffffffffffffffffffffffffffffff168573ffffffffffffffffffffffffffffffffffffffff168373ffffffffffffffffffffffffffffffffffffffff167fc3d58168c5ae7397731d063d5bbf3d657854427343f4c083240f7aacaa2d0f628787604051612ee1929190614cc9565b60405180910390a45050505050565b60606000600167ffffffffffffffff811115612f35577f4e487b7100000000000000000000000000000000000000000000000000000000600052604160045260246000fd5b604051908082528060200260200182016040528015612f635781602001602082028036833780820191505090505b5090508281600081518110612fa1577f4e487b7100000000000000000000000000000000000000000000000000000000600052603260045260246000fd5b60200260200101818152505080915050919050565b612fbe610f51565b15612ffe576040517f08c379a0000000000000000000000000000000000000000000000000000000008152600401612ff590614aee565b60405180910390fd5b61300c8686868686866138f0565b505050505050565b6130338473ffffffffffffffffffffffffffffffffffffffff166116c5565b156131f3578373ffffffffffffffffffffffffffffffffffffffff1663f23a6e6187878686866040518663ffffffff1660e01b81526004016130799594939291906148be565b602060405180830381600087803b15801561309357600080fd5b505af19250505080156130c457506040513d601f19601f820116820180604052508101906130c19190614335565b60015b61316a576130d0615095565b806308c379a0141561312d57506130e56157cb565b806130f0575061312f565b806040517f08c379a0000000000000000000000000000000000000000000000000000000008152600401613124919061498c565b60405180910390fd5b505b6040517f08c379a0000000000000000000000000000000000000000000000000000000008152600401613161906149ae565b60405180910390fd5b63f23a6e6160e01b7bffffffffffffffffffffffffffffffffffffffffffffffffffffffff1916817bffffffffffffffffffffffffffffffffffffffffffffffffffffffff1916146131f1576040517f08c379a00000000000000000000000000000000000000000000000000000000081526004016131e8906149ce565b60405180910390fd5b505b505050505050565b61321a8473ffffffffffffffffffffffffffffffffffffffff166116c5565b156133da578373ffffffffffffffffffffffffffffffffffffffff1663bc197c8187878686866040518663ffffffff1660e01b8152600401613260959493929190614856565b602060405180830381600087803b15801561327a57600080fd5b505af19250505080156132ab57506040513d601f19601f820116820180604052508101906132a89190614335565b60015b613351576132b7615095565b806308c379a0141561331457506132cc6157cb565b806132d75750613316565b806040517f08c379a000000000000000000000000000000000000000000000000000000000815260040161330b919061498c565b60405180910390fd5b505b6040517f08c379a0000000000000000000000000000000000000000000000000000000008152600401613348906149ae565b60405180910390fd5b63bc197c8160e01b7bffffffffffffffffffffffffffffffffffffffffffffffffffffffff1916817bffffffffffffffffffffffffffffffffffffffffffffffffffffffff1916146133d8576040517f08c379a00000000000000000000000000000000000000000000000000000000081526004016133cf906149ce565b60405180910390fd5b505b505050505050565b6000819050919050565b6133f5816116c5565b613434576040517f08c379a000000000000000000000000000000000000000000000000000000000815260040161342b90614bae565b60405180910390fd5b806134617f360894a13ba1a3210667c828492db98dca3e2076cc3735a920a3ca505d382bbc60001b6133e2565b60000160006101000a81548173ffffffffffffffffffffffffffffffffffffffff021916908373ffffffffffffffffffffffffffffffffffffffff16021790555050565b60606134b0836116c5565b6134ef576040517f08c379a00000000000000000000000000000000000000000000000000000000081526004016134e690614bee565b60405180910390fd5b6000808473ffffffffffffffffffffffffffffffffffffffff16846040516135179190614824565b600060405180830381855af49150503d8060008114613552576040519150601f19603f3d011682016040523d82523d6000602084013e613557565b606091505b509150915061357f82826040518060600160405280602781526020016158be60279139613b04565b9250505092915050565b6000819050919050565b61359c816133ec565b8073ffffffffffffffffffffffffffffffffffffffff167fbc7cd75a20ee27fd9adebab32041f755214dbc6bffa90cc0225b39da2e5c2d3b60405160405180910390a250565b600060019054906101000a900460ff16613631576040517f08c379a000000000000000000000000000000000000000000000000000000000815260040161362890614c0e565b60405180910390fd5b565b600060019054906101000a900460ff16613682576040517f08c379a000000000000000000000000000000000000000000000000000000000815260040161367990614c0e565b60405180910390fd5b565b600060019054906101000a900460ff166136d3576040517f08c379a00000000000000000000000000000000000000000000000000000000081526004016136ca90614c0e565b60405180910390fd5b6136dc81613b6b565b50565b600060019054906101000a900460ff1661372e576040517f08c379a000000000000000000000000000000000000000000000000000000000815260040161372590614c0e565b60405180910390fd5b61373e613739611742565b612505565b565b600060019054906101000a900460ff1661378f576040517f08c379a000000000000000000000000000000000000000000000000000000000815260040161378690614c0e565b60405180910390fd5b600060fb60006101000a81548160ff021916908315150217905550565b600060019054906101000a900460ff166137fb576040517f08c379a00000000000000000000000000000000000000000000000000000000081526004016137f290614c0e565b60405180910390fd5b565b600060019054906101000a900460ff1661384c576040517f08c379a000000000000000000000000000000000000000000000000000000000815260040161384390614c0e565b60405180910390fd5b565b600060019054906101000a900460ff1661389d576040517f08c379a000000000000000000000000000000000000000000000000000000000815260040161389490614c0e565b60405180910390fd5b565b600060019054906101000a900460ff166138ee576040517f08c379a00000000000000000000000000000000000000000000000000000000081526004016138e590614c0e565b60405180910390fd5b565b6138fe868686868686613b85565b600073ffffffffffffffffffffffffffffffffffffffff168573ffffffffffffffffffffffffffffffffffffffff1614156139fd5760005b83518110156139fb57828181518110613978577f4e487b7100000000000000000000000000000000000000000000000000000000600052603260045260246000fd5b602002602001015161012d60008684815181106139be577f4e487b7100000000000000000000000000000000000000000000000000000000600052603260045260246000fd5b6020026020010151815260200190815260200160002060008282546139e39190614e1c565b92505081905550806139f490614fbf565b9050613936565b505b600073ffffffffffffffffffffffffffffffffffffffff168473ffffffffffffffffffffffffffffffffffffffff161415613afc5760005b8351811015613afa57828181518110613a77577f4e487b7100000000000000000000000000000000000000000000000000000000600052603260045260246000fd5b602002602001015161012d6000868481518110613abd577f4e487b7100000000000000000000000000000000000000000000000000000000600052603260045260246000fd5b602002602001015181526020019081526020016000206000828254613ae29190614e72565b9250508190555080613af390614fbf565b9050613a35565b505b505050505050565b60608315613b1457829050613b64565b600083511115613b275782518084602001fd5b816040517f08c379a0000000000000000000000000000000000000000000000000000000008152600401613b5b919061498c565b60405180910390fd5b9392505050565b8060679080519060200190613b81929190613b8d565b5050565b505050505050565b828054613b9990614f5c565b90600052602060002090601f016020900481019282613bbb5760008555613c02565b82601f10613bd457805160ff1916838001178555613c02565b82800160010185558215613c02579182015b82811115613c01578251825591602001919060010190613be6565b5b509050613c0f9190613c13565b5090565b5b80821115613c2c576000816000905550600101613c14565b5090565b6000613c43613c3e84614d17565b614cf2565b90508083825260208201905082856020860282011115613c6257600080fd5b60005b85811015613c925781613c788882613d46565b845260208401935060208301925050600181019050613c65565b5050509392505050565b6000613caf613caa84614d43565b614cf2565b90508083825260208201905082856020860282011115613cce57600080fd5b60005b85811015613cfe5781613ce48882613e18565b845260208401935060208301925050600181019050613cd1565b5050509392505050565b6000613d1b613d1684614d6f565b614cf2565b905082815260208101848484011115613d3357600080fd5b613d3e848285614f1a565b509392505050565b600081359050613d5581615861565b92915050565b600082601f830112613d6c57600080fd5b8135613d7c848260208601613c30565b91505092915050565b600082601f830112613d9657600080fd5b8135613da6848260208601613c9c565b91505092915050565b600081359050613dbe81615878565b92915050565b600081359050613dd38161588f565b92915050565b600081519050613de88161588f565b92915050565b600082601f830112613dff57600080fd5b8135613e0f848260208601613d08565b91505092915050565b600081359050613e27816158a6565b92915050565b600060208284031215613e3f57600080fd5b6000613e4d84828501613d46565b91505092915050565b60008060408385031215613e6957600080fd5b6000613e7785828601613d46565b9250506020613e8885828601613d46565b9150509250929050565b600080600080600060a08688031215613eaa57600080fd5b6000613eb888828901613d46565b9550506020613ec988828901613d46565b945050604086013567ffffffffffffffff811115613ee657600080fd5b613ef288828901613d85565b935050606086013567ffffffffffffffff811115613f0f57600080fd5b613f1b88828901613d85565b925050608086013567ffffffffffffffff811115613f3857600080fd5b613f4488828901613dee565b9150509295509295909350565b600080600080600060a08688031215613f6957600080fd5b6000613f7788828901613d46565b9550506020613f8888828901613d46565b9450506040613f9988828901613e18565b9350506060613faa88828901613e18565b925050608086013567ffffffffffffffff811115613fc757600080fd5b613fd388828901613dee565b9150509295509295909350565b600080600060608486031215613ff557600080fd5b600061400386828701613d46565b935050602084013567ffffffffffffffff81111561402057600080fd5b61402c86828701613d85565b925050604084013567ffffffffffffffff81111561404957600080fd5b61405586828701613d85565b9150509250925092565b6000806000806080858703121561407557600080fd5b600061408387828801613d46565b945050602085013567ffffffffffffffff8111156140a057600080fd5b6140ac87828801613d85565b935050604085013567ffffffffffffffff8111156140c957600080fd5b6140d587828801613d85565b925050606085013567ffffffffffffffff8111156140f257600080fd5b6140fe87828801613dee565b91505092959194509250565b6000806040838503121561411d57600080fd5b600061412b85828601613d46565b925050602061413c85828601613daf565b9150509250929050565b6000806040838503121561415957600080fd5b600061416785828601613d46565b925050602083013567ffffffffffffffff81111561418457600080fd5b61419085828601613dee565b9150509250929050565b600080604083850312156141ad57600080fd5b60006141bb85828601613d46565b92505060206141cc85828601613e18565b9150509250929050565b6000806000606084860312156141eb57600080fd5b60006141f986828701613d46565b935050602061420a86828701613e18565b925050604061421b86828701613e18565b9150509250925092565b6000806000806080858703121561423b57600080fd5b600061424987828801613d46565b945050602061425a87828801613e18565b935050604061426b87828801613e18565b925050606085013567ffffffffffffffff81111561428857600080fd5b61429487828801613dee565b91505092959194509250565b600080604083850312156142b357600080fd5b600083013567ffffffffffffffff8111156142cd57600080fd5b6142d985828601613d5b565b925050602083013567ffffffffffffffff8111156142f657600080fd5b61430285828601613d85565b9150509250929050565b60006020828403121561431e57600080fd5b600061432c84828501613dc4565b91505092915050565b60006020828403121561434757600080fd5b600061435584828501613dd9565b91505092915050565b60006020828403121561437057600080fd5b600061437e84828501613e18565b91505092915050565b60006143938383614806565b60208301905092915050565b6143a881614ea6565b82525050565b60006143b982614db0565b6143c38185614dde565b93506143ce83614da0565b8060005b838110156143ff5781516143e68882614387565b97506143f183614dd1565b9250506001810190506143d2565b5085935050505092915050565b61441581614eb8565b82525050565b600061442682614dbb565b6144308185614def565b9350614440818560208601614f29565b614449816150b7565b840191505092915050565b600061445f82614dbb565b6144698185614e00565b9350614479818560208601614f29565b80840191505092915050565b600061449082614dc6565b61449a8185614e0b565b93506144aa818560208601614f29565b6144b3816150b7565b840191505092915050565b60006144cb603483614e0b565b91506144d6826150d5565b604082019050919050565b60006144ee602883614e0b565b91506144f982615124565b604082019050919050565b6000614511601483614e0b565b915061451c82615173565b602082019050919050565b6000614534602b83614e0b565b915061453f8261519c565b604082019050919050565b6000614557602f83614e0b565b9150614562826151eb565b604082019050919050565b600061457a602683614e0b565b91506145858261523a565b604082019050919050565b600061459d602483614e0b565b91506145a882615289565b604082019050919050565b60006145c0602c83614e0b565b91506145cb826152d8565b604082019050919050565b60006145e3602983614e0b565b91506145ee82615327565b604082019050919050565b6000614606602c83614e0b565b915061461182615376565b604082019050919050565b6000614629601083614e0b565b9150614634826153c5565b602082019050919050565b600061464c602583614e0b565b9150614657826153ee565b604082019050919050565b600061466f603283614e0b565b915061467a8261543d565b604082019050919050565b6000614692602e83614e0b565b915061469d8261548c565b604082019050919050565b60006146b5602383614e0b565b91506146c0826154db565b604082019050919050565b60006146d8602a83614e0b565b91506146e38261552a565b604082019050919050565b60006146fb602d83614e0b565b915061470682615579565b604082019050919050565b600061471e602083614e0b565b9150614729826155c8565b602082019050919050565b6000614741602683614e0b565b915061474c826155f1565b604082019050919050565b6000614764602b83614e0b565b915061476f82615640565b604082019050919050565b6000614787602983614e0b565b91506147928261568f565b604082019050919050565b60006147aa602983614e0b565b91506147b5826156de565b604082019050919050565b60006147cd602883614e0b565b91506147d88261572d565b604082019050919050565b60006147f0602183614e0b565b91506147fb8261577c565b604082019050919050565b61480f81614f10565b82525050565b61481e81614f10565b82525050565b60006148308284614454565b915081905092915050565b6000602082019050614850600083018461439f565b92915050565b600060a08201905061486b600083018861439f565b614878602083018761439f565b818103604083015261488a81866143ae565b9050818103606083015261489e81856143ae565b905081810360808301526148b2818461441b565b90509695505050505050565b600060a0820190506148d3600083018861439f565b6148e0602083018761439f565b6148ed6040830186614815565b6148fa6060830185614815565b818103608083015261490c818461441b565b90509695505050505050565b6000602082019050818103600083015261493281846143ae565b905092915050565b6000604082019050818103600083015261495481856143ae565b9050818103602083015261496881846143ae565b90509392505050565b6000602082019050614986600083018461440c565b92915050565b600060208201905081810360008301526149a68184614485565b905092915050565b600060208201905081810360008301526149c7816144be565b9050919050565b600060208201905081810360008301526149e7816144e1565b9050919050565b60006020820190508181036000830152614a0781614504565b9050919050565b60006020820190508181036000830152614a2781614527565b9050919050565b60006020820190508181036000830152614a478161454a565b9050919050565b60006020820190508181036000830152614a678161456d565b9050919050565b60006020820190508181036000830152614a8781614590565b9050919050565b60006020820190508181036000830152614aa7816145b3565b9050919050565b60006020820190508181036000830152614ac7816145d6565b9050919050565b60006020820190508181036000830152614ae7816145f9565b9050919050565b60006020820190508181036000830152614b078161461c565b9050919050565b60006020820190508181036000830152614b278161463f565b9050919050565b60006020820190508181036000830152614b4781614662565b9050919050565b60006020820190508181036000830152614b6781614685565b9050919050565b60006020820190508181036000830152614b87816146a8565b9050919050565b60006020820190508181036000830152614ba7816146cb565b9050919050565b60006020820190508181036000830152614bc7816146ee565b9050919050565b60006020820190508181036000830152614be781614711565b9050919050565b60006020820190508181036000830152614c0781614734565b9050919050565b60006020820190508181036000830152614c2781614757565b9050919050565b60006020820190508181036000830152614c478161477a565b9050919050565b60006020820190508181036000830152614c678161479d565b9050919050565b60006020820190508181036000830152614c87816147c0565b9050919050565b60006020820190508181036000830152614ca7816147e3565b9050919050565b6000602082019050614cc36000830184614815565b92915050565b6000604082019050614cde6000830185614815565b614ceb6020830184614815565b9392505050565b6000614cfc614d0d565b9050614d088282614f8e565b919050565b6000604051905090565b600067ffffffffffffffff821115614d3257614d31615066565b5b602082029050602081019050919050565b600067ffffffffffffffff821115614d5e57614d5d615066565b5b602082029050602081019050919050565b600067ffffffffffffffff821115614d8a57614d89615066565b5b614d93826150b7565b9050602081019050919050565b6000819050602082019050919050565b600081519050919050565b600081519050919050565b600081519050919050565b6000602082019050919050565b600082825260208201905092915050565b600082825260208201905092915050565b600081905092915050565b600082825260208201905092915050565b6000614e2782614f10565b9150614e3283614f10565b9250827fffffffffffffffffffffffffffffffffffffffffffffffffffffffffffffffff03821115614e6757614e66615008565b5b828201905092915050565b6000614e7d82614f10565b9150614e8883614f10565b925082821015614e9b57614e9a615008565b5b828203905092915050565b6000614eb182614ef0565b9050919050565b60008115159050919050565b60007fffffffff0000000000000000000000000000000000000000000000000000000082169050919050565b600073ffffffffffffffffffffffffffffffffffffffff82169050919050565b6000819050919050565b82818337600083830152505050565b60005b83811015614f47578082015181840152602081019050614f2c565b83811115614f56576000848401525b50505050565b60006002820490506001821680614f7457607f821691505b60208210811415614f8857614f87615037565b5b50919050565b614f97826150b7565b810181811067ffffffffffffffff82111715614fb657614fb5615066565b5b80604052505050565b6000614fca82614f10565b91507fffffffffffffffffffffffffffffffffffffffffffffffffffffffffffffffff821415614ffd57614ffc615008565b5b600182019050919050565b7f4e487b7100000000000000000000000000000000000000000000000000000000600052601160045260246000fd5b7f4e487b7100000000000000000000000000000000000000000000000000000000600052602260045260246000fd5b7f4e487b7100000000000000000000000000000000000000000000000000000000600052604160045260246000fd5b600060033d11156150b45760046000803e6150b16000516150c8565b90505b90565b6000601f19601f8301169050919050565b60008160e01c9050919050565b7f455243313135353a207472616e7366657220746f206e6f6e204552433131353560008201527f526563656976657220696d706c656d656e746572000000000000000000000000602082015250565b7f455243313135353a204552433131353552656365697665722072656a6563746560008201527f6420746f6b656e73000000000000000000000000000000000000000000000000602082015250565b7f5061757361626c653a206e6f7420706175736564000000000000000000000000600082015250565b7f455243313135353a2062616c616e636520717565727920666f7220746865207a60008201527f65726f2061646472657373000000000000000000000000000000000000000000602082015250565b7f45524331393637557067726164653a207570677261646520627265616b73206660008201527f7572746865722075706772616465730000000000000000000000000000000000602082015250565b7f4f776e61626c653a206e6577206f776e657220697320746865207a65726f206160008201527f6464726573730000000000000000000000000000000000000000000000000000602082015250565b7f455243313135353a206275726e20616d6f756e7420657863656564732062616c60008201527f616e636500000000000000000000000000000000000000000000000000000000602082015250565b7f46756e6374696f6e206d7573742062652063616c6c6564207468726f7567682060008201527f64656c656761746563616c6c0000000000000000000000000000000000000000602082015250565b7f455243313135353a2063616c6c6572206973206e6f74206f776e6572206e6f7260008201527f20617070726f7665640000000000000000000000000000000000000000000000602082015250565b7f46756e6374696f6e206d7573742062652063616c6c6564207468726f7567682060008201527f6163746976652070726f78790000000000000000000000000000000000000000602082015250565b7f5061757361626c653a2070617573656400000000000000000000000000000000600082015250565b7f455243313135353a207472616e7366657220746f20746865207a65726f20616460008201527f6472657373000000000000000000000000000000000000000000000000000000602082015250565b7f455243313135353a207472616e736665722063616c6c6572206973206e6f742060008201527f6f776e6572206e6f7220617070726f7665640000000000000000000000000000602082015250565b7f496e697469616c697a61626c653a20636f6e747261637420697320616c72656160008201527f647920696e697469616c697a6564000000000000000000000000000000000000602082015250565b7f455243313135353a206275726e2066726f6d20746865207a65726f206164647260008201527f6573730000000000000000000000000000000000000000000000000000000000602082015250565b7f455243313135353a20696e73756666696369656e742062616c616e636520666f60008201527f72207472616e7366657200000000000000000000000000000000000000000000602082015250565b7f455243313936373a206e657720696d706c656d656e746174696f6e206973206e60008201527f6f74206120636f6e747261637400000000000000000000000000000000000000602082015250565b7f4f776e61626c653a2063616c6c6572206973206e6f7420746865206f776e6572600082015250565b7f416464726573733a2064656c65676174652063616c6c20746f206e6f6e2d636f60008201527f6e74726163740000000000000000000000000000000000000000000000000000602082015250565b7f496e697469616c697a61626c653a20636f6e7472616374206973206e6f74206960008201527f6e697469616c697a696e67000000000000000000000000000000000000000000602082015250565b7f455243313135353a2073657474696e6720617070726f76616c2073746174757360008201527f20666f722073656c660000000000000000000000000000000000000000000000602082015250565b7f455243313135353a206163636f756e747320616e6420696473206c656e67746860008201527f206d69736d617463680000000000000000000000000000000000000000000000602082015250565b7f455243313135353a2069647320616e6420616d6f756e7473206c656e6774682060008201527f6d69736d61746368000000000000000000000000000000000000000000000000602082015250565b7f455243313135353a206d696e7420746f20746865207a65726f2061646472657360008201527f7300000000000000000000000000000000000000000000000000000000000000602082015250565b600060443d10156157db5761585e565b6157e3614d0d565b60043d036004823e80513d602482011167ffffffffffffffff8211171561580b57505061585e565b808201805167ffffffffffffffff811115615829575050505061585e565b80602083010160043d03850181111561584657505050505061585e565b61585582602001850186614f8e565b82955050505050505b90565b61586a81614ea6565b811461587557600080fd5b50565b61588181614eb8565b811461588c57600080fd5b50565b61589881614ec4565b81146158a357600080fd5b50565b6158af81614f10565b81146158ba57600080fd5b5056fe416464726573733a206c6f772d6c6576656c2064656c65676174652063616c6c206661696c6564a26469706673582212209641717e2fe0cb677fa3ae1cda44b3ea1392775a70efa8a9e46434dafceb911164736f6c63430008040033",
  "linkReferences": {},
  "deployedLinkReferences": {}
}