{
  "_format": "hh-sol-artifact-1",
  "contractName": "EventMarketplace",
  "sourceName": "contracts/EventMarketplace.sol",
  "abi": [
    {
      "inputs": [],
      "stateMutability": "nonpayable",
      "type": "constructor"
    },
    {
      "anonymous": false,
      "inputs": [
        {
          "indexed": true,
          "internalType": "uint256",
          "name": "itemId",
          "type": "uint256"
        },
        {
          "indexed": true,
          "internalType": "address",
          "name": "nftContract",
          "type": "address"
        },
        {
          "indexed": true,
          "internalType": "uint256",
          "name": "tokenId",
          "type": "uint256"
        },
        {
          "indexed": false,
          "internalType": "address",
          "name": "seller",
          "type": "address"
        },
        {
          "indexed": false,
          "internalType": "address",
          "name": "owner",
          "type": "address"
        },
        {
          "indexed": false,
          "internalType": "uint256",
          "name": "price",
          "type": "uint256"
        },
        {
          "indexed": false,
          "internalType": "bool",
          "name": "sold",
          "type": "bool"
        }
      ],
      "name": "EventItemCreated",
      "type": "event"
    },
    {
      "inputs": [
        {
          "internalType": "address",
          "name": "nftContract",
          "type": "address"
        },
        {
          "internalType": "uint256",
          "name": "price",
          "type": "uint256"
        },
        {
          "internalType": "uint256",
          "name": "ticketCount",
          "type": "uint256"
        },
        {
          "internalType": "string",
          "name": "eventName",
          "type": "string"
        },
        {
          "internalType": "string",
          "name": "promoterBrandSymbol",
          "type": "string"
        }
      ],
      "name": "createEventItem",
      "outputs": [],
      "stateMutability": "payable",
      "type": "function"
    },
    {
      "inputs": [],
      "name": "getListingPrice",
      "outputs": [
        {
          "internalType": "uint256",
          "name": "",
          "type": "uint256"
        }
      ],
      "stateMutability": "view",
      "type": "function"
    }
  ],
  "bytecode": "0x60806040526658d15e1762800060045534801561001b57600080fd5b50600160008190555033600360006101000a81548173ffffffffffffffffffffffffffffffffffffffff021916908373ffffffffffffffffffffffffffffffffffffffff160217905550610aee806100746000396000f3fe6080604052600436106100295760003560e01c806312e855851461002e5780631e0a5e1514610059575b600080fd5b34801561003a57600080fd5b50610043610075565b604051610050919061082a565b60405180910390f35b610073600480360381019061006e91906105cd565b61007f565b005b6000600454905090565b600260005414156100c5576040517f08c379a00000000000000000000000000000000000000000000000000000000081526004016100bc906107ea565b60405180910390fd5b600260008190555060008411610110576040517f08c379a00000000000000000000000000000000000000000000000000000000081526004016101079061080a565b60405180910390fd5b6004543414610154576040517f08c379a000000000000000000000000000000000000000000000000000000000815260040161014b906107ca565b60405180910390fd5b61015e6001610474565b600061016a600161048a565b905060006040518061018001604052808381526020018873ffffffffffffffffffffffffffffffffffffffff1681526020018381526020013373ffffffffffffffffffffffffffffffffffffffff168152602001600073ffffffffffffffffffffffffffffffffffffffff1681526020018781526020016000151581526020018581526020018481526020018681526020016000815260200186815250905080600560008481526020019081526020016000206000820151816000015560208201518160010160006101000a81548173ffffffffffffffffffffffffffffffffffffffff021916908373ffffffffffffffffffffffffffffffffffffffff1602179055506040820151816002015560608201518160030160006101000a81548173ffffffffffffffffffffffffffffffffffffffff021916908373ffffffffffffffffffffffffffffffffffffffff16021790555060808201518160040160006101000a81548173ffffffffffffffffffffffffffffffffffffffff021916908373ffffffffffffffffffffffffffffffffffffffff16021790555060a0820151816005015560c08201518160060160006101000a81548160ff02191690831515021790555060e082015181600701908051906020019061034c929190610498565b5061010082015181600801908051906020019061036a929190610498565b50610120820151816009015561014082015181600a015561016082015181600b01559050508673ffffffffffffffffffffffffffffffffffffffff1663f242432a333085896040518563ffffffff1660e01b81526004016103ce9493929190610772565b600060405180830381600087803b1580156103e857600080fd5b505af11580156103fc573d6000803e3d6000fd5b505050508060000151816020015173ffffffffffffffffffffffffffffffffffffffff1682600001517f2983b19fd22408097b79ed00dcd36a2a63aba8e6a72ad35e5f515a0ff2b8fcb333338b600060405161045b949392919061072d565b60405180910390a4505060016000819055505050505050565b6001816000016000828254019250508190555050565b600081600001549050919050565b8280546104a490610914565b90600052602060002090601f0160209004810192826104c6576000855561050d565b82601f106104df57805160ff191683800117855561050d565b8280016001018555821561050d579182015b8281111561050c5782518255916020019190600101906104f1565b5b50905061051a919061051e565b5090565b5b8082111561053757600081600090555060010161051f565b5090565b600061054e6105498461086a565b610845565b90508281526020810184848401111561056657600080fd5b610571848285610905565b509392505050565b60008135905061058881610a8a565b92915050565b600082601f83011261059f57600080fd5b81356105af84826020860161053b565b91505092915050565b6000813590506105c781610aa1565b92915050565b600080600080600060a086880312156105e557600080fd5b60006105f388828901610579565b9550506020610604888289016105b8565b9450506040610615888289016105b8565b935050606086013567ffffffffffffffff81111561063257600080fd5b61063e8882890161058e565b925050608086013567ffffffffffffffff81111561065b57600080fd5b6106678882890161058e565b9150509295509295909350565b61067d816108bd565b82525050565b61068c816108cf565b82525050565b600061069f602b836108ac565b91506106aa826109e6565b604082019050919050565b60006106c260008361089b565b91506106cd82610a35565b600082019050919050565b60006106e5601f836108ac565b91506106f082610a38565b602082019050919050565b6000610708601c836108ac565b915061071382610a61565b602082019050919050565b610727816108fb565b82525050565b60006080820190506107426000830187610674565b61074f6020830186610674565b61075c604083018561071e565b6107696060830184610683565b95945050505050565b600060a0820190506107876000830187610674565b6107946020830186610674565b6107a1604083018561071e565b6107ae606083018461071e565b81810360808301526107bf816106b5565b905095945050505050565b600060208201905081810360008301526107e381610692565b9050919050565b60006020820190508181036000830152610803816106d8565b9050919050565b60006020820190508181036000830152610823816106fb565b9050919050565b600060208201905061083f600083018461071e565b92915050565b600061084f610860565b905061085b8282610946565b919050565b6000604051905090565b600067ffffffffffffffff821115610885576108846109a6565b5b61088e826109d5565b9050602081019050919050565b600082825260208201905092915050565b600082825260208201905092915050565b60006108c8826108db565b9050919050565b60008115159050919050565b600073ffffffffffffffffffffffffffffffffffffffff82169050919050565b6000819050919050565b82818337600083830152505050565b6000600282049050600182168061092c57607f821691505b602082108114156109405761093f610977565b5b50919050565b61094f826109d5565b810181811067ffffffffffffffff8211171561096e5761096d6109a6565b5b80604052505050565b7f4e487b7100000000000000000000000000000000000000000000000000000000600052602260045260246000fd5b7f4e487b7100000000000000000000000000000000000000000000000000000000600052604160045260246000fd5b6000601f19601f8301169050919050565b7f507269636520746f20736574206d75737420626520657175616c20746f206c6960008201527f7374696e67207072696365000000000000000000000000000000000000000000602082015250565b50565b7f5265656e7472616e637947756172643a207265656e7472616e742063616c6c00600082015250565b7f5072696365206d757374206265206174206c6561737420312077656900000000600082015250565b610a93816108bd565b8114610a9e57600080fd5b50565b610aaa816108fb565b8114610ab557600080fd5b5056fea2646970667358221220252b7ae8d1221ad9bb17d90b180e02842b9172b39534d9d60c8d5e50043be15f64736f6c63430008040033",
  "linkReferences": {},
  "deployedLinkReferences": {}
}