{
  "_format": "hh-sol-artifact-1",
  "contractName": "EventMarketplace",
  "sourceName": "contracts/EventMarketplace.sol",
  "abi": [
    {
      "inputs": [],
      "stateMutability": "nonpayable",
      "type": "constructor"
    },
    {
      "anonymous": false,
      "inputs": [
        {
          "indexed": true,
          "internalType": "uint256",
          "name": "itemId",
          "type": "uint256"
        },
        {
          "indexed": true,
          "internalType": "address",
          "name": "nftContract",
          "type": "address"
        },
        {
          "indexed": true,
          "internalType": "uint256",
          "name": "tokenId",
          "type": "uint256"
        },
        {
          "indexed": false,
          "internalType": "address",
          "name": "seller",
          "type": "address"
        },
        {
          "indexed": false,
          "internalType": "address",
          "name": "owner",
          "type": "address"
        },
        {
          "indexed": false,
          "internalType": "uint256",
          "name": "price",
          "type": "uint256"
        },
        {
          "indexed": false,
          "internalType": "bool",
          "name": "sold",
          "type": "bool"
        }
      ],
      "name": "EventItemCreated",
      "type": "event"
    },
    {
      "inputs": [
        {
          "internalType": "address",
          "name": "nftContract",
          "type": "address"
        },
        {
          "internalType": "uint256",
          "name": "tokenId",
          "type": "uint256"
        },
        {
          "internalType": "uint256",
          "name": "price",
          "type": "uint256"
        },
        {
          "internalType": "uint256",
          "name": "ticketCount",
          "type": "uint256"
        },
        {
          "internalType": "string",
          "name": "eventName",
          "type": "string"
        },
        {
          "internalType": "string",
          "name": "promoterBrandSymbol",
          "type": "string"
        }
      ],
      "name": "createEventItem",
      "outputs": [],
      "stateMutability": "payable",
      "type": "function"
    },
    {
      "inputs": [
        {
          "internalType": "address",
          "name": "nftContract",
          "type": "address"
        },
        {
          "internalType": "uint256",
          "name": "itemId",
          "type": "uint256"
        },
        {
          "internalType": "uint256",
          "name": "amount",
          "type": "uint256"
        }
      ],
      "name": "createEventSale",
      "outputs": [],
      "stateMutability": "payable",
      "type": "function"
    },
    {
      "inputs": [],
      "name": "fetchEventItems",
      "outputs": [
        {
          "components": [
            {
              "internalType": "uint256",
              "name": "itemId",
              "type": "uint256"
            },
            {
              "internalType": "address",
              "name": "nftContract",
              "type": "address"
            },
            {
              "internalType": "uint256",
              "name": "tokenId",
              "type": "uint256"
            },
            {
              "internalType": "address payable",
              "name": "seller",
              "type": "address"
            },
            {
              "internalType": "address payable",
              "name": "owner",
              "type": "address"
            },
            {
              "internalType": "uint256",
              "name": "price",
              "type": "uint256"
            },
            {
              "internalType": "bool",
              "name": "sold",
              "type": "bool"
            },
            {
              "internalType": "string",
              "name": "eventName",
              "type": "string"
            },
            {
              "internalType": "string",
              "name": "promoterBrandSymbol",
              "type": "string"
            },
            {
              "internalType": "uint256",
              "name": "ticketCount",
              "type": "uint256"
            },
            {
              "internalType": "uint256",
              "name": "ticketSold",
              "type": "uint256"
            },
            {
              "internalType": "uint256",
              "name": "ticketRemaining",
              "type": "uint256"
            }
          ],
          "internalType": "struct EventMarketplace.EventItem[]",
          "name": "",
          "type": "tuple[]"
        }
      ],
      "stateMutability": "view",
      "type": "function"
    },
    {
      "inputs": [],
      "name": "fetchItemsCreated",
      "outputs": [
        {
          "components": [
            {
              "internalType": "uint256",
              "name": "itemId",
              "type": "uint256"
            },
            {
              "internalType": "address",
              "name": "nftContract",
              "type": "address"
            },
            {
              "internalType": "uint256",
              "name": "tokenId",
              "type": "uint256"
            },
            {
              "internalType": "address payable",
              "name": "seller",
              "type": "address"
            },
            {
              "internalType": "address payable",
              "name": "owner",
              "type": "address"
            },
            {
              "internalType": "uint256",
              "name": "price",
              "type": "uint256"
            },
            {
              "internalType": "bool",
              "name": "sold",
              "type": "bool"
            },
            {
              "internalType": "string",
              "name": "eventName",
              "type": "string"
            },
            {
              "internalType": "string",
              "name": "promoterBrandSymbol",
              "type": "string"
            },
            {
              "internalType": "uint256",
              "name": "ticketCount",
              "type": "uint256"
            },
            {
              "internalType": "uint256",
              "name": "ticketSold",
              "type": "uint256"
            },
            {
              "internalType": "uint256",
              "name": "ticketRemaining",
              "type": "uint256"
            }
          ],
          "internalType": "struct EventMarketplace.EventItem[]",
          "name": "",
          "type": "tuple[]"
        }
      ],
      "stateMutability": "view",
      "type": "function"
    },
    {
      "inputs": [],
      "name": "fetchMyNFTs",
      "outputs": [
        {
          "components": [
            {
              "internalType": "uint256",
              "name": "itemId",
              "type": "uint256"
            },
            {
              "internalType": "address",
              "name": "nftContract",
              "type": "address"
            },
            {
              "internalType": "uint256",
              "name": "tokenId",
              "type": "uint256"
            },
            {
              "internalType": "address payable",
              "name": "seller",
              "type": "address"
            },
            {
              "internalType": "address payable",
              "name": "owner",
              "type": "address"
            },
            {
              "internalType": "uint256",
              "name": "price",
              "type": "uint256"
            },
            {
              "internalType": "bool",
              "name": "sold",
              "type": "bool"
            },
            {
              "internalType": "string",
              "name": "eventName",
              "type": "string"
            },
            {
              "internalType": "string",
              "name": "promoterBrandSymbol",
              "type": "string"
            },
            {
              "internalType": "uint256",
              "name": "ticketCount",
              "type": "uint256"
            },
            {
              "internalType": "uint256",
              "name": "ticketSold",
              "type": "uint256"
            },
            {
              "internalType": "uint256",
              "name": "ticketRemaining",
              "type": "uint256"
            }
          ],
          "internalType": "struct EventMarketplace.EventItem[]",
          "name": "",
          "type": "tuple[]"
        }
      ],
      "stateMutability": "view",
      "type": "function"
    },
    {
      "inputs": [],
      "name": "getListingPrice",
      "outputs": [
        {
          "internalType": "uint256",
          "name": "",
          "type": "uint256"
        }
      ],
      "stateMutability": "view",
      "type": "function"
    }
  ],
  "bytecode": "0x60806040526658d15e1762800060045534801561001b57600080fd5b50600160008190555033600360006101000a81548173ffffffffffffffffffffffffffffffffffffffff021916908373ffffffffffffffffffffffffffffffffffffffff160217905550612266806100746000396000f3fe6080604052600436106100555760003560e01c806312e855851461005a578063154ace8814610085578063202e3740146100a15780637c366819146100cc578063e70081be146100f7578063f064c32e14610113575b600080fd5b34801561006657600080fd5b5061006f61013e565b60405161007c9190611db7565b60405180910390f35b61009f600480360381019061009a91906118da565b610148565b005b3480156100ad57600080fd5b506100b661053f565b6040516100c39190611d15565b60405180910390f35b3480156100d857600080fd5b506100e1610a1c565b6040516100ee9190611d15565b60405180910390f35b610111600480360381019061010c919061188b565b610e75565b005b34801561011f57600080fd5b506101286111b0565b6040516101359190611d15565b60405180910390f35b6000600454905090565b6002600054141561018e576040517f08c379a000000000000000000000000000000000000000000000000000000000815260040161018590611d77565b60405180910390fd5b6002600081905550600084116101d9576040517f08c379a00000000000000000000000000000000000000000000000000000000081526004016101d090611d97565b60405180910390fd5b600454341461021d576040517f08c379a000000000000000000000000000000000000000000000000000000000815260040161021490611d37565b60405180910390fd5b610227600161168d565b600061023360016116a3565b905060006040518061018001604052808381526020018973ffffffffffffffffffffffffffffffffffffffff1681526020018881526020013373ffffffffffffffffffffffffffffffffffffffff168152602001600073ffffffffffffffffffffffffffffffffffffffff1681526020018781526020016000151581526020018581526020018481526020018681526020016000815260200186815250905080600560008481526020019081526020016000206000820151816000015560208201518160010160006101000a81548173ffffffffffffffffffffffffffffffffffffffff021916908373ffffffffffffffffffffffffffffffffffffffff1602179055506040820151816002015560608201518160030160006101000a81548173ffffffffffffffffffffffffffffffffffffffff021916908373ffffffffffffffffffffffffffffffffffffffff16021790555060808201518160040160006101000a81548173ffffffffffffffffffffffffffffffffffffffff021916908373ffffffffffffffffffffffffffffffffffffffff16021790555060a0820151816005015560c08201518160060160006101000a81548160ff02191690831515021790555060e08201518160070190805190602001906104159291906116b1565b506101008201518160080190805190602001906104339291906116b1565b50610120820151816009015561014082015181600a015561016082015181600b01559050508773ffffffffffffffffffffffffffffffffffffffff1663f242432a33308a896040518563ffffffff1660e01b81526004016104979493929190611cbd565b600060405180830381600087803b1580156104b157600080fd5b505af11580156104c5573d6000803e3d6000fd5b505050508060400151816020015173ffffffffffffffffffffffffffffffffffffffff1682600001517f2983b19fd22408097b79ed00dcd36a2a63aba8e6a72ad35e5f515a0ff2b8fcb33360008b60006040516105259493929190611c78565b60405180910390a450506001600081905550505050505050565b6060600061054d60016116a3565b905060008060005b838110156105f6573373ffffffffffffffffffffffffffffffffffffffff16600560006001846105859190611e9f565b815260200190815260200160002060040160009054906101000a900473ffffffffffffffffffffffffffffffffffffffff1673ffffffffffffffffffffffffffffffffffffffff1614156105e3576001836105e09190611e9f565b92505b80806105ee90612028565b915050610555565b5060008267ffffffffffffffff811115610639577f4e487b7100000000000000000000000000000000000000000000000000000000600052604160045260246000fd5b60405190808252806020026020018201604052801561067257816020015b61065f611737565b8152602001906001900390816106575790505b50905060005b84811015610a11573373ffffffffffffffffffffffffffffffffffffffff16600560006001846106a89190611e9f565b815260200190815260200160002060040160009054906101000a900473ffffffffffffffffffffffffffffffffffffffff1673ffffffffffffffffffffffffffffffffffffffff1614156109fe5760006001826107059190611e9f565b905060006005600083815260200190815260200160002090508060405180610180016040529081600082015481526020016001820160009054906101000a900473ffffffffffffffffffffffffffffffffffffffff1673ffffffffffffffffffffffffffffffffffffffff1673ffffffffffffffffffffffffffffffffffffffff168152602001600282015481526020016003820160009054906101000a900473ffffffffffffffffffffffffffffffffffffffff1673ffffffffffffffffffffffffffffffffffffffff1673ffffffffffffffffffffffffffffffffffffffff1681526020016004820160009054906101000a900473ffffffffffffffffffffffffffffffffffffffff1673ffffffffffffffffffffffffffffffffffffffff1673ffffffffffffffffffffffffffffffffffffffff168152602001600582015481526020016006820160009054906101000a900460ff1615151515815260200160078201805461087690611fc5565b80601f01602080910402602001604051908101604052809291908181526020018280546108a290611fc5565b80156108ef5780601f106108c4576101008083540402835291602001916108ef565b820191906000526020600020905b8154815290600101906020018083116108d257829003601f168201915b5050505050815260200160088201805461090890611fc5565b80601f016020809104026020016040519081016040528092919081815260200182805461093490611fc5565b80156109815780601f1061095657610100808354040283529160200191610981565b820191906000526020600020905b81548152906001019060200180831161096457829003601f168201915b5050505050815260200160098201548152602001600a8201548152602001600b820154815250508486815181106109e1577f4e487b7100000000000000000000000000000000000000000000000000000000600052603260045260246000fd5b60200260200101819052506001856109f99190611e9f565b945050505b8080610a0990612028565b915050610678565b508094505050505090565b60606000610a2a60016116a3565b90506000610a3860026116a3565b610a4260016116a3565b610a4c9190611ef5565b90506000808267ffffffffffffffff811115610a91577f4e487b7100000000000000000000000000000000000000000000000000000000600052604160045260246000fd5b604051908082528060200260200182016040528015610aca57816020015b610ab7611737565b815260200190600190039081610aaf5790505b50905060005b84811015610e6a57600073ffffffffffffffffffffffffffffffffffffffff1660056000600184610b019190611e9f565b815260200190815260200160002060040160009054906101000a900473ffffffffffffffffffffffffffffffffffffffff1673ffffffffffffffffffffffffffffffffffffffff161415610e57576000600182610b5e9190611e9f565b905060006005600083815260200190815260200160002090508060405180610180016040529081600082015481526020016001820160009054906101000a900473ffffffffffffffffffffffffffffffffffffffff1673ffffffffffffffffffffffffffffffffffffffff1673ffffffffffffffffffffffffffffffffffffffff168152602001600282015481526020016003820160009054906101000a900473ffffffffffffffffffffffffffffffffffffffff1673ffffffffffffffffffffffffffffffffffffffff1673ffffffffffffffffffffffffffffffffffffffff1681526020016004820160009054906101000a900473ffffffffffffffffffffffffffffffffffffffff1673ffffffffffffffffffffffffffffffffffffffff1673ffffffffffffffffffffffffffffffffffffffff168152602001600582015481526020016006820160009054906101000a900460ff16151515158152602001600782018054610ccf90611fc5565b80601f0160208091040260200160405190810160405280929190818152602001828054610cfb90611fc5565b8015610d485780601f10610d1d57610100808354040283529160200191610d48565b820191906000526020600020905b815481529060010190602001808311610d2b57829003601f168201915b50505050508152602001600882018054610d6190611fc5565b80601f0160208091040260200160405190810160405280929190818152602001828054610d8d90611fc5565b8015610dda5780601f10610daf57610100808354040283529160200191610dda565b820191906000526020600020905b815481529060010190602001808311610dbd57829003601f168201915b5050505050815260200160098201548152602001600a8201548152602001600b82015481525050848681518110610e3a577f4e487b7100000000000000000000000000000000000000000000000000000000600052603260045260246000fd5b6020026020010181905250600185610e529190611e9f565b945050505b8080610e6290612028565b915050610ad0565b508094505050505090565b60026000541415610ebb576040517f08c379a0000000000000000000000000000000000000000000000000000000008152600401610eb290611d77565b60405180910390fd5b6002600081905550600060056000848152602001908152602001600020600501549050600060056000858152602001908152602001600020600201549050813414610f3b576040517f08c379a0000000000000000000000000000000000000000000000000000000008152600401610f3290611d57565b60405180910390fd5b6005600085815260200190815260200160002060030160009054906101000a900473ffffffffffffffffffffffffffffffffffffffff1673ffffffffffffffffffffffffffffffffffffffff166108fc349081150290604051600060405180830381858888f19350505050158015610fb7573d6000803e3d6000fd5b508473ffffffffffffffffffffffffffffffffffffffff1663f242432a303384876040518563ffffffff1660e01b8152600401610ff79493929190611cbd565b600060405180830381600087803b15801561101157600080fd5b505af1158015611025573d6000803e3d6000fd5b50505050336005600086815260200190815260200160002060040160006101000a81548173ffffffffffffffffffffffffffffffffffffffff021916908373ffffffffffffffffffffffffffffffffffffffff16021790555060016005600086815260200190815260200160002060060160006101000a81548160ff0219169083151502179055508260056000868152602001908152602001600020600a0160008282546110d39190611e9f565b9250508190555060056000858152602001908152602001600020600a015460056000868152602001908152602001600020600901546111129190611ef5565b60056000868152602001908152602001600020600b0181905550611136600261168d565b600360009054906101000a900473ffffffffffffffffffffffffffffffffffffffff1673ffffffffffffffffffffffffffffffffffffffff166108fc6004549081150290604051600060405180830381858888f193505050501580156111a0573d6000803e3d6000fd5b5050506001600081905550505050565b606060006111be60016116a3565b905060008060005b83811015611267573373ffffffffffffffffffffffffffffffffffffffff16600560006001846111f69190611e9f565b815260200190815260200160002060030160009054906101000a900473ffffffffffffffffffffffffffffffffffffffff1673ffffffffffffffffffffffffffffffffffffffff161415611254576001836112519190611e9f565b92505b808061125f90612028565b9150506111c6565b5060008267ffffffffffffffff8111156112aa577f4e487b7100000000000000000000000000000000000000000000000000000000600052604160045260246000fd5b6040519080825280602002602001820160405280156112e357816020015b6112d0611737565b8152602001906001900390816112c85790505b50905060005b84811015611682573373ffffffffffffffffffffffffffffffffffffffff16600560006001846113199190611e9f565b815260200190815260200160002060030160009054906101000a900473ffffffffffffffffffffffffffffffffffffffff1673ffffffffffffffffffffffffffffffffffffffff16141561166f5760006001826113769190611e9f565b905060006005600083815260200190815260200160002090508060405180610180016040529081600082015481526020016001820160009054906101000a900473ffffffffffffffffffffffffffffffffffffffff1673ffffffffffffffffffffffffffffffffffffffff1673ffffffffffffffffffffffffffffffffffffffff168152602001600282015481526020016003820160009054906101000a900473ffffffffffffffffffffffffffffffffffffffff1673ffffffffffffffffffffffffffffffffffffffff1673ffffffffffffffffffffffffffffffffffffffff1681526020016004820160009054906101000a900473ffffffffffffffffffffffffffffffffffffffff1673ffffffffffffffffffffffffffffffffffffffff1673ffffffffffffffffffffffffffffffffffffffff168152602001600582015481526020016006820160009054906101000a900460ff161515151581526020016007820180546114e790611fc5565b80601f016020809104026020016040519081016040528092919081815260200182805461151390611fc5565b80156115605780601f1061153557610100808354040283529160200191611560565b820191906000526020600020905b81548152906001019060200180831161154357829003601f168201915b5050505050815260200160088201805461157990611fc5565b80601f01602080910402602001604051908101604052809291908181526020018280546115a590611fc5565b80156115f25780601f106115c7576101008083540402835291602001916115f2565b820191906000526020600020905b8154815290600101906020018083116115d557829003601f168201915b5050505050815260200160098201548152602001600a8201548152602001600b82015481525050848681518110611652577f4e487b7100000000000000000000000000000000000000000000000000000000600052603260045260246000fd5b602002602001018190525060018561166a9190611e9f565b945050505b808061167a90612028565b9150506112e9565b508094505050505090565b6001816000016000828254019250508190555050565b600081600001549050919050565b8280546116bd90611fc5565b90600052602060002090601f0160209004810192826116df5760008555611726565b82601f106116f857805160ff1916838001178555611726565b82800160010185558215611726579182015b8281111561172557825182559160200191906001019061170a565b5b50905061173391906117dc565b5090565b60405180610180016040528060008152602001600073ffffffffffffffffffffffffffffffffffffffff16815260200160008152602001600073ffffffffffffffffffffffffffffffffffffffff168152602001600073ffffffffffffffffffffffffffffffffffffffff1681526020016000815260200160001515815260200160608152602001606081526020016000815260200160008152602001600081525090565b5b808211156117f55760008160009055506001016117dd565b5090565b600061180c61180784611df7565b611dd2565b90508281526020810184848401111561182457600080fd5b61182f848285611f83565b509392505050565b60008135905061184681612202565b92915050565b600082601f83011261185d57600080fd5b813561186d8482602086016117f9565b91505092915050565b60008135905061188581612219565b92915050565b6000806000606084860312156118a057600080fd5b60006118ae86828701611837565b93505060206118bf86828701611876565b92505060406118d086828701611876565b9150509250925092565b60008060008060008060c087890312156118f357600080fd5b600061190189828a01611837565b965050602061191289828a01611876565b955050604061192389828a01611876565b945050606061193489828a01611876565b935050608087013567ffffffffffffffff81111561195157600080fd5b61195d89828a0161184c565b92505060a087013567ffffffffffffffff81111561197a57600080fd5b61198689828a0161184c565b9150509295509295509295565b600061199f8383611b4f565b905092915050565b6119b081611f3b565b82525050565b6119bf81611f29565b82525050565b6119ce81611f29565b82525050565b60006119df82611e38565b6119e98185611e5b565b9350836020820285016119fb85611e28565b8060005b85811015611a375784840389528151611a188582611993565b9450611a2383611e4e565b925060208a019950506001810190506119ff565b50829750879550505050505092915050565b611a5281611f4d565b82525050565b611a6181611f4d565b82525050565b6000611a7282611e43565b611a7c8185611e7d565b9350611a8c818560208601611f92565b611a95816120fe565b840191505092915050565b6000611aad602b83611e8e565b9150611ab88261210f565b604082019050919050565b6000611ad0604083611e8e565b9150611adb8261215e565b604082019050919050565b6000611af3600083611e6c565b9150611afe826121ad565b600082019050919050565b6000611b16601f83611e8e565b9150611b21826121b0565b602082019050919050565b6000611b39601c83611e8e565b9150611b44826121d9565b602082019050919050565b600061018083016000830151611b686000860182611c5a565b506020830151611b7b60208601826119b6565b506040830151611b8e6040860182611c5a565b506060830151611ba160608601826119a7565b506080830151611bb460808601826119a7565b5060a0830151611bc760a0860182611c5a565b5060c0830151611bda60c0860182611a49565b5060e083015184820360e0860152611bf28282611a67565b915050610100830151848203610100860152611c0e8282611a67565b915050610120830151611c25610120860182611c5a565b50610140830151611c3a610140860182611c5a565b50610160830151611c4f610160860182611c5a565b508091505092915050565b611c6381611f79565b82525050565b611c7281611f79565b82525050565b6000608082019050611c8d60008301876119c5565b611c9a60208301866119c5565b611ca76040830185611c69565b611cb46060830184611a58565b95945050505050565b600060a082019050611cd260008301876119c5565b611cdf60208301866119c5565b611cec6040830185611c69565b611cf96060830184611c69565b8181036080830152611d0a81611ae6565b905095945050505050565b60006020820190508181036000830152611d2f81846119d4565b905092915050565b60006020820190508181036000830152611d5081611aa0565b9050919050565b60006020820190508181036000830152611d7081611ac3565b9050919050565b60006020820190508181036000830152611d9081611b09565b9050919050565b60006020820190508181036000830152611db081611b2c565b9050919050565b6000602082019050611dcc6000830184611c69565b92915050565b6000611ddc611ded565b9050611de88282611ff7565b919050565b6000604051905090565b600067ffffffffffffffff821115611e1257611e116120cf565b5b611e1b826120fe565b9050602081019050919050565b6000819050602082019050919050565b600081519050919050565b600081519050919050565b6000602082019050919050565b600082825260208201905092915050565b600082825260208201905092915050565b600082825260208201905092915050565b600082825260208201905092915050565b6000611eaa82611f79565b9150611eb583611f79565b9250827fffffffffffffffffffffffffffffffffffffffffffffffffffffffffffffffff03821115611eea57611ee9612071565b5b828201905092915050565b6000611f0082611f79565b9150611f0b83611f79565b925082821015611f1e57611f1d612071565b5b828203905092915050565b6000611f3482611f59565b9050919050565b6000611f4682611f59565b9050919050565b60008115159050919050565b600073ffffffffffffffffffffffffffffffffffffffff82169050919050565b6000819050919050565b82818337600083830152505050565b60005b83811015611fb0578082015181840152602081019050611f95565b83811115611fbf576000848401525b50505050565b60006002820490506001821680611fdd57607f821691505b60208210811415611ff157611ff06120a0565b5b50919050565b612000826120fe565b810181811067ffffffffffffffff8211171561201f5761201e6120cf565b5b80604052505050565b600061203382611f79565b91507fffffffffffffffffffffffffffffffffffffffffffffffffffffffffffffffff82141561206657612065612071565b5b600182019050919050565b7f4e487b7100000000000000000000000000000000000000000000000000000000600052601160045260246000fd5b7f4e487b7100000000000000000000000000000000000000000000000000000000600052602260045260246000fd5b7f4e487b7100000000000000000000000000000000000000000000000000000000600052604160045260246000fd5b6000601f19601f8301169050919050565b7f507269636520746f20736574206d75737420626520657175616c20746f206c6960008201527f7374696e67207072696365000000000000000000000000000000000000000000602082015250565b7f506c65617365207375626d6974207468652061736b696e67207072696365206960008201527f6e206f7264657220746f20636f6d706c65746520746865207075726368617365602082015250565b50565b7f5265656e7472616e637947756172643a207265656e7472616e742063616c6c00600082015250565b7f5072696365206d757374206265206174206c6561737420312077656900000000600082015250565b61220b81611f29565b811461221657600080fd5b50565b61222281611f79565b811461222d57600080fd5b5056fea2646970667358221220cce3eb96f1e071b477cce8f88edb68d1c6cd040e4fe96f63c824cdbddd91df5f64736f6c63430008040033",
  "linkReferences": {},
  "deployedLinkReferences": {}
}