{
  "_format": "hh-sol-artifact-1",
  "contractName": "ConcertMarketPlace",
  "sourceName": "contracts/ConcertMarketPlace.sol",
  "abi": [
    {
      "inputs": [],
      "stateMutability": "nonpayable",
      "type": "constructor"
    },
    {
      "anonymous": false,
      "inputs": [
        {
          "indexed": true,
          "internalType": "address",
          "name": "account",
          "type": "address"
        },
        {
          "indexed": true,
          "internalType": "address",
          "name": "operator",
          "type": "address"
        },
        {
          "indexed": false,
          "internalType": "bool",
          "name": "approved",
          "type": "bool"
        }
      ],
      "name": "ApprovalForAll",
      "type": "event"
    },
    {
      "anonymous": false,
      "inputs": [
        {
          "indexed": true,
          "internalType": "uint256",
          "name": "id",
          "type": "uint256"
        },
        {
          "indexed": false,
          "internalType": "string",
          "name": "name",
          "type": "string"
        },
        {
          "indexed": false,
          "internalType": "string",
          "name": "description",
          "type": "string"
        },
        {
          "indexed": false,
          "internalType": "uint256",
          "name": "totalSupply",
          "type": "uint256"
        },
        {
          "indexed": true,
          "internalType": "address",
          "name": "owner",
          "type": "address"
        },
        {
          "indexed": false,
          "internalType": "uint256",
          "name": "pricePerTicket",
          "type": "uint256"
        },
        {
          "indexed": false,
          "internalType": "uint256",
          "name": "maxMintAmount",
          "type": "uint256"
        },
        {
          "indexed": false,
          "internalType": "string",
          "name": "baseURI",
          "type": "string"
        }
      ],
      "name": "EventObjectCreated",
      "type": "event"
    },
    {
      "anonymous": false,
      "inputs": [
        {
          "indexed": true,
          "internalType": "address",
          "name": "previousOwner",
          "type": "address"
        },
        {
          "indexed": true,
          "internalType": "address",
          "name": "newOwner",
          "type": "address"
        }
      ],
      "name": "OwnershipTransferred",
      "type": "event"
    },
    {
      "anonymous": false,
      "inputs": [
        {
          "indexed": true,
          "internalType": "address",
          "name": "operator",
          "type": "address"
        },
        {
          "indexed": true,
          "internalType": "address",
          "name": "from",
          "type": "address"
        },
        {
          "indexed": true,
          "internalType": "address",
          "name": "to",
          "type": "address"
        },
        {
          "indexed": false,
          "internalType": "uint256[]",
          "name": "ids",
          "type": "uint256[]"
        },
        {
          "indexed": false,
          "internalType": "uint256[]",
          "name": "values",
          "type": "uint256[]"
        }
      ],
      "name": "TransferBatch",
      "type": "event"
    },
    {
      "anonymous": false,
      "inputs": [
        {
          "indexed": true,
          "internalType": "address",
          "name": "operator",
          "type": "address"
        },
        {
          "indexed": true,
          "internalType": "address",
          "name": "from",
          "type": "address"
        },
        {
          "indexed": true,
          "internalType": "address",
          "name": "to",
          "type": "address"
        },
        {
          "indexed": false,
          "internalType": "uint256",
          "name": "id",
          "type": "uint256"
        },
        {
          "indexed": false,
          "internalType": "uint256",
          "name": "value",
          "type": "uint256"
        }
      ],
      "name": "TransferSingle",
      "type": "event"
    },
    {
      "anonymous": false,
      "inputs": [
        {
          "indexed": false,
          "internalType": "string",
          "name": "value",
          "type": "string"
        },
        {
          "indexed": true,
          "internalType": "uint256",
          "name": "id",
          "type": "uint256"
        }
      ],
      "name": "URI",
      "type": "event"
    },
    {
      "anonymous": false,
      "inputs": [
        {
          "indexed": false,
          "internalType": "uint256",
          "name": "id",
          "type": "uint256"
        },
        {
          "indexed": false,
          "internalType": "uint256",
          "name": "amount",
          "type": "uint256"
        },
        {
          "indexed": false,
          "internalType": "address",
          "name": "buyer",
          "type": "address"
        },
        {
          "indexed": false,
          "internalType": "uint256",
          "name": "price",
          "type": "uint256"
        }
      ],
      "name": "purchaseComplete",
      "type": "event"
    },
    {
      "anonymous": false,
      "inputs": [
        {
          "indexed": false,
          "internalType": "uint256",
          "name": "id",
          "type": "uint256"
        },
        {
          "indexed": false,
          "internalType": "uint256",
          "name": "amount",
          "type": "uint256"
        },
        {
          "indexed": false,
          "internalType": "address",
          "name": "buyer",
          "type": "address"
        }
      ],
      "name": "purchaseFailed",
      "type": "event"
    },
    {
      "anonymous": false,
      "inputs": [
        {
          "indexed": false,
          "internalType": "uint256",
          "name": "id",
          "type": "uint256"
        },
        {
          "indexed": false,
          "internalType": "uint256",
          "name": "amount",
          "type": "uint256"
        },
        {
          "indexed": false,
          "internalType": "address",
          "name": "buyer",
          "type": "address"
        }
      ],
      "name": "purchaseStarted",
      "type": "event"
    },
    {
      "inputs": [
        {
          "internalType": "address",
          "name": "account",
          "type": "address"
        },
        {
          "internalType": "uint256",
          "name": "id",
          "type": "uint256"
        }
      ],
      "name": "balanceOf",
      "outputs": [
        {
          "internalType": "uint256",
          "name": "",
          "type": "uint256"
        }
      ],
      "stateMutability": "view",
      "type": "function"
    },
    {
      "inputs": [
        {
          "internalType": "address[]",
          "name": "accounts",
          "type": "address[]"
        },
        {
          "internalType": "uint256[]",
          "name": "ids",
          "type": "uint256[]"
        }
      ],
      "name": "balanceOfBatch",
      "outputs": [
        {
          "internalType": "uint256[]",
          "name": "",
          "type": "uint256[]"
        }
      ],
      "stateMutability": "view",
      "type": "function"
    },
    {
      "inputs": [
        {
          "internalType": "uint256",
          "name": "id",
          "type": "uint256"
        },
        {
          "internalType": "uint256",
          "name": "amount",
          "type": "uint256"
        }
      ],
      "name": "buyTicket",
      "outputs": [],
      "stateMutability": "payable",
      "type": "function"
    },
    {
      "inputs": [],
      "name": "contractName",
      "outputs": [
        {
          "internalType": "string",
          "name": "",
          "type": "string"
        }
      ],
      "stateMutability": "view",
      "type": "function"
    },
    {
      "inputs": [
        {
          "internalType": "string",
          "name": "name",
          "type": "string"
        },
        {
          "internalType": "string",
          "name": "description",
          "type": "string"
        },
        {
          "internalType": "uint256",
          "name": "totalSupply",
          "type": "uint256"
        },
        {
          "internalType": "uint256",
          "name": "pricePerTicket",
          "type": "uint256"
        },
        {
          "internalType": "uint256",
          "name": "maxMintAmount",
          "type": "uint256"
        },
        {
          "internalType": "string",
          "name": "baseURI",
          "type": "string"
        }
      ],
      "name": "createEventObject",
      "outputs": [],
      "stateMutability": "payable",
      "type": "function"
    },
    {
      "inputs": [
        {
          "internalType": "uint256",
          "name": "id",
          "type": "uint256"
        }
      ],
      "name": "getEvent",
      "outputs": [
        {
          "components": [
            {
              "internalType": "uint256",
              "name": "id",
              "type": "uint256"
            },
            {
              "internalType": "string",
              "name": "name",
              "type": "string"
            },
            {
              "internalType": "string",
              "name": "description",
              "type": "string"
            },
            {
              "internalType": "uint256",
              "name": "totalSupply",
              "type": "uint256"
            },
            {
              "internalType": "address",
              "name": "owner",
              "type": "address"
            },
            {
              "internalType": "uint256",
              "name": "pricePerTicket",
              "type": "uint256"
            },
            {
              "internalType": "uint256",
              "name": "maxMintAmount",
              "type": "uint256"
            },
            {
              "internalType": "string",
              "name": "baseURI",
              "type": "string"
            }
          ],
          "internalType": "struct ConcertMarketPlace.EventObject",
          "name": "",
          "type": "tuple"
        }
      ],
      "stateMutability": "view",
      "type": "function"
    },
    {
      "inputs": [],
      "name": "getEventIds",
      "outputs": [
        {
          "internalType": "uint256[]",
          "name": "",
          "type": "uint256[]"
        }
      ],
      "stateMutability": "view",
      "type": "function"
    },
    {
      "inputs": [
        {
          "internalType": "string",
          "name": "_str",
          "type": "string"
        }
      ],
      "name": "getStrLen",
      "outputs": [
        {
          "internalType": "uint256",
          "name": "",
          "type": "uint256"
        }
      ],
      "stateMutability": "view",
      "type": "function"
    },
    {
      "inputs": [
        {
          "internalType": "address",
          "name": "account",
          "type": "address"
        },
        {
          "internalType": "address",
          "name": "operator",
          "type": "address"
        }
      ],
      "name": "isApprovedForAll",
      "outputs": [
        {
          "internalType": "bool",
          "name": "",
          "type": "bool"
        }
      ],
      "stateMutability": "view",
      "type": "function"
    },
    {
      "inputs": [],
      "name": "owner",
      "outputs": [
        {
          "internalType": "address",
          "name": "",
          "type": "address"
        }
      ],
      "stateMutability": "view",
      "type": "function"
    },
    {
      "inputs": [],
      "name": "renounceOwnership",
      "outputs": [],
      "stateMutability": "nonpayable",
      "type": "function"
    },
    {
      "inputs": [
        {
          "internalType": "address",
          "name": "from",
          "type": "address"
        },
        {
          "internalType": "address",
          "name": "to",
          "type": "address"
        },
        {
          "internalType": "uint256[]",
          "name": "ids",
          "type": "uint256[]"
        },
        {
          "internalType": "uint256[]",
          "name": "amounts",
          "type": "uint256[]"
        },
        {
          "internalType": "bytes",
          "name": "data",
          "type": "bytes"
        }
      ],
      "name": "safeBatchTransferFrom",
      "outputs": [],
      "stateMutability": "nonpayable",
      "type": "function"
    },
    {
      "inputs": [
        {
          "internalType": "address",
          "name": "from",
          "type": "address"
        },
        {
          "internalType": "address",
          "name": "to",
          "type": "address"
        },
        {
          "internalType": "uint256",
          "name": "id",
          "type": "uint256"
        },
        {
          "internalType": "uint256",
          "name": "amount",
          "type": "uint256"
        },
        {
          "internalType": "bytes",
          "name": "data",
          "type": "bytes"
        }
      ],
      "name": "safeTransferFrom",
      "outputs": [],
      "stateMutability": "nonpayable",
      "type": "function"
    },
    {
      "inputs": [
        {
          "internalType": "address",
          "name": "operator",
          "type": "address"
        },
        {
          "internalType": "bool",
          "name": "approved",
          "type": "bool"
        }
      ],
      "name": "setApprovalForAll",
      "outputs": [],
      "stateMutability": "nonpayable",
      "type": "function"
    },
    {
      "inputs": [
        {
          "internalType": "bytes4",
          "name": "interfaceId",
          "type": "bytes4"
        }
      ],
      "name": "supportsInterface",
      "outputs": [
        {
          "internalType": "bool",
          "name": "",
          "type": "bool"
        }
      ],
      "stateMutability": "view",
      "type": "function"
    },
    {
      "inputs": [],
      "name": "symbol",
      "outputs": [
        {
          "internalType": "string",
          "name": "",
          "type": "string"
        }
      ],
      "stateMutability": "view",
      "type": "function"
    },
    {
      "inputs": [
        {
          "internalType": "address",
          "name": "newOwner",
          "type": "address"
        }
      ],
      "name": "transferOwnership",
      "outputs": [],
      "stateMutability": "nonpayable",
      "type": "function"
    },
    {
      "inputs": [
        {
          "internalType": "uint256",
          "name": "",
          "type": "uint256"
        }
      ],
      "name": "uri",
      "outputs": [
        {
          "internalType": "string",
          "name": "",
          "type": "string"
        }
      ],
      "stateMutability": "view",
      "type": "function"
    },
    {
      "inputs": [
        {
          "internalType": "uint256",
          "name": "id",
          "type": "uint256"
        },
        {
          "internalType": "uint256",
          "name": "withdrawAmount",
          "type": "uint256"
        }
      ],
      "name": "withdrawFunds",
      "outputs": [],
      "stateMutability": "payable",
      "type": "function"
    }
  ],
  "bytecode": "0x6080604052670de0b6b3a76400006007553480156200001d57600080fd5b50604051806020016040528060008152506200003f816200010a60201b60201c565b506001600381905550620000686200005c6200012660201b60201c565b6200012e60201b60201c565b6040518060400160405280600981526020017f4e465469636b657473000000000000000000000000000000000000000000000081525060059080519060200190620000b5929190620001f4565b506040518060400160405280600381526020017f4e465400000000000000000000000000000000000000000000000000000000008152506006908051906020019062000103929190620001f4565b5062000309565b806002908051906020019062000122929190620001f4565b5050565b600033905090565b6000600460009054906101000a900473ffffffffffffffffffffffffffffffffffffffff16905081600460006101000a81548173ffffffffffffffffffffffffffffffffffffffff021916908373ffffffffffffffffffffffffffffffffffffffff1602179055508173ffffffffffffffffffffffffffffffffffffffff168173ffffffffffffffffffffffffffffffffffffffff167f8be0079c531659141344cd1fd0a4f28419497f9722a3daafe3b4186f6b6457e060405160405180910390a35050565b8280546200020290620002a4565b90600052602060002090601f01602090048101928262000226576000855562000272565b82601f106200024157805160ff191683800117855562000272565b8280016001018555821562000272579182015b828111156200027157825182559160200191906001019062000254565b5b50905062000281919062000285565b5090565b5b80821115620002a057600081600090555060010162000286565b5090565b60006002820490506001821680620002bd57607f821691505b60208210811415620002d457620002d3620002da565b5b50919050565b7f4e487b7100000000000000000000000000000000000000000000000000000000600052602260045260246000fd5b6147d280620003196000396000f3fe6080604052600436106101135760003560e01c80638da5cb5b116100a0578063e525310511610064578063e5253105146103b7578063e985e9c5146103d3578063ec1f76ba14610410578063f242432a1461042c578063f2fde38b1461045557610113565b80638da5cb5b146102d05780638dbd9ca2146102fb57806395d89b4114610326578063a22cb46514610351578063cb931bac1461037a57610113565b80632eb2c2d6116100e75780632eb2c2d6146101eb5780634e1273f4146102145780636d1884e014610251578063715018a61461028e57806375d0c0dc146102a557610113565b8062fdd58e1461011857806301ffc9a7146101555780630e89341c14610192578063298ec208146101cf575b600080fd5b34801561012457600080fd5b5061013f600480360381019061013a9190612d45565b61047e565b60405161014c9190613b0b565b60405180910390f35b34801561016157600080fd5b5061017c60048036038101906101779190612e16565b610547565b60405161018991906136f6565b60405180910390f35b34801561019e57600080fd5b506101b960048036038101906101b49190612f7a565b610629565b6040516101c69190613711565b60405180910390f35b6101e960048036038101906101e49190612fa3565b6106bd565b005b3480156101f757600080fd5b50610212600480360381019061020d9190612bbb565b610970565b005b34801561022057600080fd5b5061023b60048036038101906102369190612d81565b610a11565b604051610248919061369d565b60405180910390f35b34801561025d57600080fd5b5061027860048036038101906102739190612f7a565b610bc2565b6040516102859190613ae9565b60405180910390f35b34801561029a57600080fd5b506102a3610e24565b005b3480156102b157600080fd5b506102ba610eac565b6040516102c79190613711565b60405180910390f35b3480156102dc57600080fd5b506102e5610f3a565b6040516102f29190613597565b60405180910390f35b34801561030757600080fd5b50610310610f64565b60405161031d919061369d565b60405180910390f35b34801561033257600080fd5b5061033b610fbc565b6040516103489190613711565b60405180910390f35b34801561035d57600080fd5b5061037860048036038101906103739190612d09565b61104a565b005b34801561038657600080fd5b506103a1600480360381019061039c9190612e68565b611060565b6040516103ae9190613b0b565b60405180910390f35b6103d160048036038101906103cc9190612fa3565b611070565b005b3480156103df57600080fd5b506103fa60048036038101906103f59190612b7f565b6112bd565b60405161040791906136f6565b60405180910390f35b61042a60048036038101906104259190612ea9565b611351565b005b34801561043857600080fd5b50610453600480360381019061044e9190612c7a565b61173f565b005b34801561046157600080fd5b5061047c60048036038101906104779190612b56565b6117e0565b005b60008073ffffffffffffffffffffffffffffffffffffffff168373ffffffffffffffffffffffffffffffffffffffff1614156104ef576040517f08c379a00000000000000000000000000000000000000000000000000000000081526004016104e690613809565b60405180910390fd5b60008083815260200190815260200160002060008473ffffffffffffffffffffffffffffffffffffffff1673ffffffffffffffffffffffffffffffffffffffff16815260200190815260200160002054905092915050565b60007fd9b67a26000000000000000000000000000000000000000000000000000000007bffffffffffffffffffffffffffffffffffffffffffffffffffffffff1916827bffffffffffffffffffffffffffffffffffffffffffffffffffffffff1916148061061257507f0e89341c000000000000000000000000000000000000000000000000000000007bffffffffffffffffffffffffffffffffffffffffffffffffffffffff1916827bffffffffffffffffffffffffffffffffffffffffffffffffffffffff1916145b806106225750610621826118d8565b5b9050919050565b60606002805461063890613e5b565b80601f016020809104026020016040519081016040528092919081815260200182805461066490613e5b565b80156106b15780601f10610686576101008083540402835291602001916106b1565b820191906000526020600020905b81548152906001019060200180831161069457829003601f168201915b50505050509050919050565b60026003541415610703576040517f08c379a00000000000000000000000000000000000000000000000000000000081526004016106fa90613aa9565b60405180910390fd5b60026003819055506000811161074e576040517f08c379a000000000000000000000000000000000000000000000000000000000815260040161074590613989565b60405180910390fd5b60096000838152602001908152602001600020600601548111156107a7576040517f08c379a000000000000000000000000000000000000000000000000000000000815260040161079e90613a09565b60405180910390fd5b60096000838152602001908152602001600020600301546107eb826107dd600a6000878152602001908152602001600020611942565b61195090919063ffffffff16565b111561082c576040517f08c379a0000000000000000000000000000000000000000000000000000000008152600401610823906139a9565b60405180910390fd5b80600960008481526020019081526020016000206005015461084e9190613d4b565b341461088f576040517f08c379a000000000000000000000000000000000000000000000000000000000815260040161088690613909565b60405180910390fd5b6108aa33838360405180602001604052806000815250611966565b60005b818110156108e3576108d0600a6000858152602001908152602001600020611afc565b80806108db90613ebe565b9150506108ad565b5034600b6000848152602001908152602001600020600101600082825461090a9190613cf5565b925050819055507f0c53b649fc163eb5403c70b0e478499a759ed0987d5fd51fbb4c3ca0458da846828233600960008781526020019081526020016000206005015460405161095c9493929190613b4f565b60405180910390a160016003819055505050565b610978611b12565b73ffffffffffffffffffffffffffffffffffffffff168573ffffffffffffffffffffffffffffffffffffffff1614806109be57506109bd856109b8611b12565b6112bd565b5b6109fd576040517f08c379a00000000000000000000000000000000000000000000000000000000081526004016109f4906138c9565b60405180910390fd5b610a0a8585858585611b1a565b5050505050565b60608151835114610a57576040517f08c379a0000000000000000000000000000000000000000000000000000000008152600401610a4e90613a49565b60405180910390fd5b6000835167ffffffffffffffff811115610a9a577f4e487b7100000000000000000000000000000000000000000000000000000000600052604160045260246000fd5b604051908082528060200260200182016040528015610ac85781602001602082028036833780820191505090505b50905060005b8451811015610bb757610b61858281518110610b13577f4e487b7100000000000000000000000000000000000000000000000000000000600052603260045260246000fd5b6020026020010151858381518110610b54577f4e487b7100000000000000000000000000000000000000000000000000000000600052603260045260246000fd5b602002602001015161047e565b828281518110610b9a577f4e487b7100000000000000000000000000000000000000000000000000000000600052603260045260246000fd5b60200260200101818152505080610bb090613ebe565b9050610ace565b508091505092915050565b610bca6127de565b600960008381526020019081526020016000206040518061010001604052908160008201548152602001600182018054610c0390613e5b565b80601f0160208091040260200160405190810160405280929190818152602001828054610c2f90613e5b565b8015610c7c5780601f10610c5157610100808354040283529160200191610c7c565b820191906000526020600020905b815481529060010190602001808311610c5f57829003601f168201915b50505050508152602001600282018054610c9590613e5b565b80601f0160208091040260200160405190810160405280929190818152602001828054610cc190613e5b565b8015610d0e5780601f10610ce357610100808354040283529160200191610d0e565b820191906000526020600020905b815481529060010190602001808311610cf157829003601f168201915b50505050508152602001600382015481526020016004820160009054906101000a900473ffffffffffffffffffffffffffffffffffffffff1673ffffffffffffffffffffffffffffffffffffffff1673ffffffffffffffffffffffffffffffffffffffff1681526020016005820154815260200160068201548152602001600782018054610d9b90613e5b565b80601f0160208091040260200160405190810160405280929190818152602001828054610dc790613e5b565b8015610e145780601f10610de957610100808354040283529160200191610e14565b820191906000526020600020905b815481529060010190602001808311610df757829003601f168201915b5050505050815250509050919050565b610e2c611b12565b73ffffffffffffffffffffffffffffffffffffffff16610e4a610f3a565b73ffffffffffffffffffffffffffffffffffffffff1614610ea0576040517f08c379a0000000000000000000000000000000000000000000000000000000008152600401610e9790613949565b60405180910390fd5b610eaa6000611e7a565b565b60058054610eb990613e5b565b80601f0160208091040260200160405190810160405280929190818152602001828054610ee590613e5b565b8015610f325780601f10610f0757610100808354040283529160200191610f32565b820191906000526020600020905b815481529060010190602001808311610f1557829003601f168201915b505050505081565b6000600460009054906101000a900473ffffffffffffffffffffffffffffffffffffffff16905090565b6060600c805480602002602001604051908101604052809291908181526020018280548015610fb257602002820191906000526020600020905b815481526020019060010190808311610f9e575b5050505050905090565b60068054610fc990613e5b565b80601f0160208091040260200160405190810160405280929190818152602001828054610ff590613e5b565b80156110425780601f1061101757610100808354040283529160200191611042565b820191906000526020600020905b81548152906001019060200180831161102557829003601f168201915b505050505081565b61105c611055611b12565b8383611f40565b5050565b6000808251905080915050919050565b600260035414156110b6576040517f08c379a00000000000000000000000000000000000000000000000000000000081526004016110ad90613aa9565b60405180910390fd5b60026003819055503373ffffffffffffffffffffffffffffffffffffffff166009600084815260200190815260200160002060040160009054906101000a900473ffffffffffffffffffffffffffffffffffffffff1673ffffffffffffffffffffffffffffffffffffffff1614611162576040517f08c379a000000000000000000000000000000000000000000000000000000000815260040161115990613969565b60405180910390fd5b80600b6000848152602001908152602001600020600001546111849190613cf5565b600b60008481526020019081526020016000206001015410156111dc576040517f08c379a00000000000000000000000000000000000000000000000000000000081526004016111d390613869565b60405180910390fd5b80600b600084815260200190815260200160002060000160008282546112029190613cf5565b925050819055506000737d1afa7b718fb893db30a3abc0cfc608aacfebb090508073ffffffffffffffffffffffffffffffffffffffff1663a9059cbb33846040518363ffffffff1660e01b815260040161125d929190613674565b602060405180830381600087803b15801561127757600080fd5b505af115801561128b573d6000803e3d6000fd5b505050506040513d601f19601f820116820180604052508101906112af9190612ded565b505060016003819055505050565b6000600160008473ffffffffffffffffffffffffffffffffffffffff1673ffffffffffffffffffffffffffffffffffffffff16815260200190815260200160002060008373ffffffffffffffffffffffffffffffffffffffff1673ffffffffffffffffffffffffffffffffffffffff16815260200190815260200160002060009054906101000a900460ff16905092915050565b60026003541415611397576040517f08c379a000000000000000000000000000000000000000000000000000000000815260040161138e90613aa9565b60405180910390fd5b600260038190555060006113aa87611060565b116113ea576040517f08c379a00000000000000000000000000000000000000000000000000000000081526004016113e1906139e9565b60405180910390fd5b60006113f586611060565b11611435576040517f08c379a000000000000000000000000000000000000000000000000000000000815260040161142c906137e9565b60405180910390fd5b60008411611478576040517f08c379a000000000000000000000000000000000000000000000000000000000815260040161146f90613889565b60405180910390fd5b600083116114bb576040517f08c379a00000000000000000000000000000000000000000000000000000000081526004016114b290613ac9565b60405180910390fd5b600082116114fe576040517f08c379a00000000000000000000000000000000000000000000000000000000081526004016114f5906138e9565b60405180910390fd5b6007543414611542576040517f08c379a0000000000000000000000000000000000000000000000000000000008152600401611539906139c9565b60405180910390fd5b61154c6008611afc565b60006115586008611942565b905060006040518061010001604052808381526020018981526020018881526020018781526020013373ffffffffffffffffffffffffffffffffffffffff168152602001868152602001858152602001848152509050600c816000015190806001815401808255809150506001900390600052602060002001600090919091909150556000604051806040016040528060008152602001600081525090508160096000858152602001908152602001600020600082015181600001556020820151816001019080519060200190611630929190612839565b50604082015181600201908051906020019061164d929190612839565b506060820151816003015560808201518160040160006101000a81548173ffffffffffffffffffffffffffffffffffffffff021916908373ffffffffffffffffffffffffffffffffffffffff16021790555060a0820151816005015560c0820151816006015560e08201518160070190805190602001906116cf929190612839565b509050503373ffffffffffffffffffffffffffffffffffffffff16837f6011e720ff6c75ff1615e4c304930647f7dbd85609f7d5ef2545d66c374e72008b8b8b8b8b8b60405161172496959493929190613733565b60405180910390a35050506001600381905550505050505050565b611747611b12565b73ffffffffffffffffffffffffffffffffffffffff168573ffffffffffffffffffffffffffffffffffffffff16148061178d575061178c85611787611b12565b6112bd565b5b6117cc576040517f08c379a00000000000000000000000000000000000000000000000000000000081526004016117c390613849565b60405180910390fd5b6117d985858585856120ad565b5050505050565b6117e8611b12565b73ffffffffffffffffffffffffffffffffffffffff16611806610f3a565b73ffffffffffffffffffffffffffffffffffffffff161461185c576040517f08c379a000000000000000000000000000000000000000000000000000000000815260040161185390613949565b60405180910390fd5b600073ffffffffffffffffffffffffffffffffffffffff168173ffffffffffffffffffffffffffffffffffffffff1614156118cc576040517f08c379a00000000000000000000000000000000000000000000000000000000081526004016118c390613829565b60405180910390fd5b6118d581611e7a565b50565b60007f01ffc9a7000000000000000000000000000000000000000000000000000000007bffffffffffffffffffffffffffffffffffffffffffffffffffffffff1916827bffffffffffffffffffffffffffffffffffffffffffffffffffffffff1916149050919050565b600081600001549050919050565b6000818361195e9190613cf5565b905092915050565b600073ffffffffffffffffffffffffffffffffffffffff168473ffffffffffffffffffffffffffffffffffffffff1614156119d6576040517f08c379a00000000000000000000000000000000000000000000000000000000081526004016119cd90613a89565b60405180910390fd5b60006119e0611b12565b9050611a01816000876119f28861232f565b6119fb8861232f565b876123f5565b8260008086815260200190815260200160002060008773ffffffffffffffffffffffffffffffffffffffff1673ffffffffffffffffffffffffffffffffffffffff1681526020019081526020016000206000828254611a609190613cf5565b925050819055508473ffffffffffffffffffffffffffffffffffffffff16600073ffffffffffffffffffffffffffffffffffffffff168273ffffffffffffffffffffffffffffffffffffffff167fc3d58168c5ae7397731d063d5bbf3d657854427343f4c083240f7aacaa2d0f628787604051611ade929190613b26565b60405180910390a4611af5816000878787876123fd565b5050505050565b6001816000016000828254019250508190555050565b600033905090565b8151835114611b5e576040517f08c379a0000000000000000000000000000000000000000000000000000000008152600401611b5590613a69565b60405180910390fd5b600073ffffffffffffffffffffffffffffffffffffffff168473ffffffffffffffffffffffffffffffffffffffff161415611bce576040517f08c379a0000000000000000000000000000000000000000000000000000000008152600401611bc5906138a9565b60405180910390fd5b6000611bd8611b12565b9050611be88187878787876123f5565b60005b8451811015611de5576000858281518110611c2f577f4e487b7100000000000000000000000000000000000000000000000000000000600052603260045260246000fd5b602002602001015190506000858381518110611c74577f4e487b7100000000000000000000000000000000000000000000000000000000600052603260045260246000fd5b60200260200101519050600080600084815260200190815260200160002060008b73ffffffffffffffffffffffffffffffffffffffff1673ffffffffffffffffffffffffffffffffffffffff16815260200190815260200160002054905081811015611d15576040517f08c379a0000000000000000000000000000000000000000000000000000000008152600401611d0c90613929565b60405180910390fd5b81810360008085815260200190815260200160002060008c73ffffffffffffffffffffffffffffffffffffffff1673ffffffffffffffffffffffffffffffffffffffff168152602001908152602001600020819055508160008085815260200190815260200160002060008b73ffffffffffffffffffffffffffffffffffffffff1673ffffffffffffffffffffffffffffffffffffffff1681526020019081526020016000206000828254611dca9190613cf5565b9250508190555050505080611dde90613ebe565b9050611beb565b508473ffffffffffffffffffffffffffffffffffffffff168673ffffffffffffffffffffffffffffffffffffffff168273ffffffffffffffffffffffffffffffffffffffff167f4a39dc06d4c0dbc64b70af90fd698a233a518aa5d07e595d983b8c0526c8f7fb8787604051611e5c9291906136bf565b60405180910390a4611e728187878787876125e4565b505050505050565b6000600460009054906101000a900473ffffffffffffffffffffffffffffffffffffffff16905081600460006101000a81548173ffffffffffffffffffffffffffffffffffffffff021916908373ffffffffffffffffffffffffffffffffffffffff1602179055508173ffffffffffffffffffffffffffffffffffffffff168173ffffffffffffffffffffffffffffffffffffffff167f8be0079c531659141344cd1fd0a4f28419497f9722a3daafe3b4186f6b6457e060405160405180910390a35050565b8173ffffffffffffffffffffffffffffffffffffffff168373ffffffffffffffffffffffffffffffffffffffff161415611faf576040517f08c379a0000000000000000000000000000000000000000000000000000000008152600401611fa690613a29565b60405180910390fd5b80600160008573ffffffffffffffffffffffffffffffffffffffff1673ffffffffffffffffffffffffffffffffffffffff16815260200190815260200160002060008473ffffffffffffffffffffffffffffffffffffffff1673ffffffffffffffffffffffffffffffffffffffff16815260200190815260200160002060006101000a81548160ff0219169083151502179055508173ffffffffffffffffffffffffffffffffffffffff168373ffffffffffffffffffffffffffffffffffffffff167f17307eab39ab6107e8899845ad3d59bd9653f200f220920489ca2b5937696c31836040516120a091906136f6565b60405180910390a3505050565b600073ffffffffffffffffffffffffffffffffffffffff168473ffffffffffffffffffffffffffffffffffffffff16141561211d576040517f08c379a0000000000000000000000000000000000000000000000000000000008152600401612114906138a9565b60405180910390fd5b6000612127611b12565b90506121478187876121388861232f565b6121418861232f565b876123f5565b600080600086815260200190815260200160002060008873ffffffffffffffffffffffffffffffffffffffff1673ffffffffffffffffffffffffffffffffffffffff168152602001908152602001600020549050838110156121de576040517f08c379a00000000000000000000000000000000000000000000000000000000081526004016121d590613929565b60405180910390fd5b83810360008087815260200190815260200160002060008973ffffffffffffffffffffffffffffffffffffffff1673ffffffffffffffffffffffffffffffffffffffff168152602001908152602001600020819055508360008087815260200190815260200160002060008873ffffffffffffffffffffffffffffffffffffffff1673ffffffffffffffffffffffffffffffffffffffff16815260200190815260200160002060008282546122939190613cf5565b925050819055508573ffffffffffffffffffffffffffffffffffffffff168773ffffffffffffffffffffffffffffffffffffffff168373ffffffffffffffffffffffffffffffffffffffff167fc3d58168c5ae7397731d063d5bbf3d657854427343f4c083240f7aacaa2d0f628888604051612310929190613b26565b60405180910390a46123268288888888886123fd565b50505050505050565b60606000600167ffffffffffffffff811115612374577f4e487b7100000000000000000000000000000000000000000000000000000000600052604160045260246000fd5b6040519080825280602002602001820160405280156123a25781602001602082028036833780820191505090505b50905082816000815181106123e0577f4e487b7100000000000000000000000000000000000000000000000000000000600052603260045260246000fd5b60200260200101818152505080915050919050565b505050505050565b61241c8473ffffffffffffffffffffffffffffffffffffffff166127cb565b156125dc578373ffffffffffffffffffffffffffffffffffffffff1663f23a6e6187878686866040518663ffffffff1660e01b815260040161246295949392919061361a565b602060405180830381600087803b15801561247c57600080fd5b505af19250505080156124ad57506040513d601f19601f820116820180604052508101906124aa9190612e3f565b60015b612553576124b9613f94565b806308c379a0141561251657506124ce6146aa565b806124d95750612518565b806040517f08c379a000000000000000000000000000000000000000000000000000000000815260040161250d9190613711565b60405180910390fd5b505b6040517f08c379a000000000000000000000000000000000000000000000000000000000815260040161254a906137a9565b60405180910390fd5b63f23a6e6160e01b7bffffffffffffffffffffffffffffffffffffffffffffffffffffffff1916817bffffffffffffffffffffffffffffffffffffffffffffffffffffffff1916146125da576040517f08c379a00000000000000000000000000000000000000000000000000000000081526004016125d1906137c9565b60405180910390fd5b505b505050505050565b6126038473ffffffffffffffffffffffffffffffffffffffff166127cb565b156127c3578373ffffffffffffffffffffffffffffffffffffffff1663bc197c8187878686866040518663ffffffff1660e01b81526004016126499594939291906135b2565b602060405180830381600087803b15801561266357600080fd5b505af192505050801561269457506040513d601f19601f820116820180604052508101906126919190612e3f565b60015b61273a576126a0613f94565b806308c379a014156126fd57506126b56146aa565b806126c057506126ff565b806040517f08c379a00000000000000000000000000000000000000000000000000000000081526004016126f49190613711565b60405180910390fd5b505b6040517f08c379a0000000000000000000000000000000000000000000000000000000008152600401612731906137a9565b60405180910390fd5b63bc197c8160e01b7bffffffffffffffffffffffffffffffffffffffffffffffffffffffff1916817bffffffffffffffffffffffffffffffffffffffffffffffffffffffff1916146127c1576040517f08c379a00000000000000000000000000000000000000000000000000000000081526004016127b8906137c9565b60405180910390fd5b505b505050505050565b600080823b905060008111915050919050565b60405180610100016040528060008152602001606081526020016060815260200160008152602001600073ffffffffffffffffffffffffffffffffffffffff1681526020016000815260200160008152602001606081525090565b82805461284590613e5b565b90600052602060002090601f01602090048101928261286757600085556128ae565b82601f1061288057805160ff19168380011785556128ae565b828001600101855582156128ae579182015b828111156128ad578251825591602001919060010190612892565b5b5090506128bb91906128bf565b5090565b5b808211156128d85760008160009055506001016128c0565b5090565b60006128ef6128ea84613bb9565b613b94565b9050808382526020820190508285602086028201111561290e57600080fd5b60005b8581101561293e57816129248882612a30565b845260208401935060208301925050600181019050612911565b5050509392505050565b600061295b61295684613be5565b613b94565b9050808382526020820190508285602086028201111561297a57600080fd5b60005b858110156129aa57816129908882612b41565b84526020840193506020830192505060018101905061297d565b5050509392505050565b60006129c76129c284613c11565b613b94565b9050828152602081018484840111156129df57600080fd5b6129ea848285613e19565b509392505050565b6000612a05612a0084613c42565b613b94565b905082815260208101848484011115612a1d57600080fd5b612a28848285613e19565b509392505050565b600081359050612a3f81614740565b92915050565b600082601f830112612a5657600080fd5b8135612a668482602086016128dc565b91505092915050565b600082601f830112612a8057600080fd5b8135612a90848260208601612948565b91505092915050565b600081359050612aa881614757565b92915050565b600081519050612abd81614757565b92915050565b600081359050612ad28161476e565b92915050565b600081519050612ae78161476e565b92915050565b600082601f830112612afe57600080fd5b8135612b0e8482602086016129b4565b91505092915050565b600082601f830112612b2857600080fd5b8135612b388482602086016129f2565b91505092915050565b600081359050612b5081614785565b92915050565b600060208284031215612b6857600080fd5b6000612b7684828501612a30565b91505092915050565b60008060408385031215612b9257600080fd5b6000612ba085828601612a30565b9250506020612bb185828601612a30565b9150509250929050565b600080600080600060a08688031215612bd357600080fd5b6000612be188828901612a30565b9550506020612bf288828901612a30565b945050604086013567ffffffffffffffff811115612c0f57600080fd5b612c1b88828901612a6f565b935050606086013567ffffffffffffffff811115612c3857600080fd5b612c4488828901612a6f565b925050608086013567ffffffffffffffff811115612c6157600080fd5b612c6d88828901612aed565b9150509295509295909350565b600080600080600060a08688031215612c9257600080fd5b6000612ca088828901612a30565b9550506020612cb188828901612a30565b9450506040612cc288828901612b41565b9350506060612cd388828901612b41565b925050608086013567ffffffffffffffff811115612cf057600080fd5b612cfc88828901612aed565b9150509295509295909350565b60008060408385031215612d1c57600080fd5b6000612d2a85828601612a30565b9250506020612d3b85828601612a99565b9150509250929050565b60008060408385031215612d5857600080fd5b6000612d6685828601612a30565b9250506020612d7785828601612b41565b9150509250929050565b60008060408385031215612d9457600080fd5b600083013567ffffffffffffffff811115612dae57600080fd5b612dba85828601612a45565b925050602083013567ffffffffffffffff811115612dd757600080fd5b612de385828601612a6f565b9150509250929050565b600060208284031215612dff57600080fd5b6000612e0d84828501612aae565b91505092915050565b600060208284031215612e2857600080fd5b6000612e3684828501612ac3565b91505092915050565b600060208284031215612e5157600080fd5b6000612e5f84828501612ad8565b91505092915050565b600060208284031215612e7a57600080fd5b600082013567ffffffffffffffff811115612e9457600080fd5b612ea084828501612b17565b91505092915050565b60008060008060008060c08789031215612ec257600080fd5b600087013567ffffffffffffffff811115612edc57600080fd5b612ee889828a01612b17565b965050602087013567ffffffffffffffff811115612f0557600080fd5b612f1189828a01612b17565b9550506040612f2289828a01612b41565b9450506060612f3389828a01612b41565b9350506080612f4489828a01612b41565b92505060a087013567ffffffffffffffff811115612f6157600080fd5b612f6d89828a01612b17565b9150509295509295509295565b600060208284031215612f8c57600080fd5b6000612f9a84828501612b41565b91505092915050565b60008060408385031215612fb657600080fd5b6000612fc485828601612b41565b9250506020612fd585828601612b41565b9150509250929050565b6000612feb8383613579565b60208301905092915050565b61300081613da5565b82525050565b61300f81613da5565b82525050565b600061302082613c83565b61302a8185613cb1565b935061303583613c73565b8060005b8381101561306657815161304d8882612fdf565b975061305883613ca4565b925050600181019050613039565b5085935050505092915050565b61307c81613db7565b82525050565b600061308d82613c8e565b6130978185613cc2565b93506130a7818560208601613e28565b6130b081613fb6565b840191505092915050565b60006130c682613c99565b6130d08185613cd3565b93506130e0818560208601613e28565b6130e981613fb6565b840191505092915050565b60006130ff82613c99565b6131098185613ce4565b9350613119818560208601613e28565b61312281613fb6565b840191505092915050565b600061313a603483613ce4565b915061314582613fd4565b604082019050919050565b600061315d602883613ce4565b915061316882614023565b604082019050919050565b6000613180601b83613ce4565b915061318b82614072565b602082019050919050565b60006131a3602b83613ce4565b91506131ae8261409b565b604082019050919050565b60006131c6602683613ce4565b91506131d1826140ea565b604082019050919050565b60006131e9602983613ce4565b91506131f482614139565b604082019050919050565b600061320c602883613ce4565b915061321782614188565b604082019050919050565b600061322f602083613ce4565b915061323a826141d7565b602082019050919050565b6000613252602583613ce4565b915061325d82614200565b604082019050919050565b6000613275603283613ce4565b91506132808261424f565b604082019050919050565b6000613298602883613ce4565b91506132a38261429e565b604082019050919050565b60006132bb602e83613ce4565b91506132c6826142ed565b604082019050919050565b60006132de602a83613ce4565b91506132e98261433c565b604082019050919050565b6000613301602083613ce4565b915061330c8261438b565b602082019050919050565b6000613324601583613ce4565b915061332f826143b4565b602082019050919050565b6000613347601d83613ce4565b9150613352826143dd565b602082019050919050565b600061336a602a83613ce4565b915061337582614406565b604082019050919050565b600061338d602a83613ce4565b915061339882614455565b604082019050919050565b60006133b0601483613ce4565b91506133bb826144a4565b602082019050919050565b60006133d3602983613ce4565b91506133de826144cd565b604082019050919050565b60006133f6602983613ce4565b91506134018261451c565b604082019050919050565b6000613419602983613ce4565b91506134248261456b565b604082019050919050565b600061343c602883613ce4565b9150613447826145ba565b604082019050919050565b600061345f602183613ce4565b915061346a82614609565b604082019050919050565b6000613482601f83613ce4565b915061348d82614658565b602082019050919050565b60006134a5601c83613ce4565b91506134b082614681565b602082019050919050565b6000610100830160008301516134d46000860182613579565b50602083015184820360208601526134ec82826130bb565b9150506040830151848203604086015261350682826130bb565b915050606083015161351b6060860182613579565b50608083015161352e6080860182612ff7565b5060a083015161354160a0860182613579565b5060c083015161355460c0860182613579565b5060e083015184820360e086015261356c82826130bb565b9150508091505092915050565b61358281613e0f565b82525050565b61359181613e0f565b82525050565b60006020820190506135ac6000830184613006565b92915050565b600060a0820190506135c76000830188613006565b6135d46020830187613006565b81810360408301526135e68186613015565b905081810360608301526135fa8185613015565b9050818103608083015261360e8184613082565b90509695505050505050565b600060a08201905061362f6000830188613006565b61363c6020830187613006565b6136496040830186613588565b6136566060830185613588565b81810360808301526136688184613082565b90509695505050505050565b60006040820190506136896000830185613006565b6136966020830184613588565b9392505050565b600060208201905081810360008301526136b78184613015565b905092915050565b600060408201905081810360008301526136d98185613015565b905081810360208301526136ed8184613015565b90509392505050565b600060208201905061370b6000830184613073565b92915050565b6000602082019050818103600083015261372b81846130f4565b905092915050565b600060c082019050818103600083015261374d81896130f4565b9050818103602083015261376181886130f4565b90506137706040830187613588565b61377d6060830186613588565b61378a6080830185613588565b81810360a083015261379c81846130f4565b9050979650505050505050565b600060208201905081810360008301526137c28161312d565b9050919050565b600060208201905081810360008301526137e281613150565b9050919050565b6000602082019050818103600083015261380281613173565b9050919050565b6000602082019050818103600083015261382281613196565b9050919050565b60006020820190508181036000830152613842816131b9565b9050919050565b60006020820190508181036000830152613862816131dc565b9050919050565b60006020820190508181036000830152613882816131ff565b9050919050565b600060208201905081810360008301526138a281613222565b9050919050565b600060208201905081810360008301526138c281613245565b9050919050565b600060208201905081810360008301526138e281613268565b9050919050565b600060208201905081810360008301526139028161328b565b9050919050565b60006020820190508181036000830152613922816132ae565b9050919050565b60006020820190508181036000830152613942816132d1565b9050919050565b60006020820190508181036000830152613962816132f4565b9050919050565b6000602082019050818103600083015261398281613317565b9050919050565b600060208201905081810360008301526139a28161333a565b9050919050565b600060208201905081810360008301526139c28161335d565b9050919050565b600060208201905081810360008301526139e281613380565b9050919050565b60006020820190508181036000830152613a02816133a3565b9050919050565b60006020820190508181036000830152613a22816133c6565b9050919050565b60006020820190508181036000830152613a42816133e9565b9050919050565b60006020820190508181036000830152613a628161340c565b9050919050565b60006020820190508181036000830152613a828161342f565b9050919050565b60006020820190508181036000830152613aa281613452565b9050919050565b60006020820190508181036000830152613ac281613475565b9050919050565b60006020820190508181036000830152613ae281613498565b9050919050565b60006020820190508181036000830152613b0381846134bb565b905092915050565b6000602082019050613b206000830184613588565b92915050565b6000604082019050613b3b6000830185613588565b613b486020830184613588565b9392505050565b6000608082019050613b646000830187613588565b613b716020830186613588565b613b7e6040830185613006565b613b8b6060830184613588565b95945050505050565b6000613b9e613baf565b9050613baa8282613e8d565b919050565b6000604051905090565b600067ffffffffffffffff821115613bd457613bd3613f65565b5b602082029050602081019050919050565b600067ffffffffffffffff821115613c0057613bff613f65565b5b602082029050602081019050919050565b600067ffffffffffffffff821115613c2c57613c2b613f65565b5b613c3582613fb6565b9050602081019050919050565b600067ffffffffffffffff821115613c5d57613c5c613f65565b5b613c6682613fb6565b9050602081019050919050565b6000819050602082019050919050565b600081519050919050565b600081519050919050565b600081519050919050565b6000602082019050919050565b600082825260208201905092915050565b600082825260208201905092915050565b600082825260208201905092915050565b600082825260208201905092915050565b6000613d0082613e0f565b9150613d0b83613e0f565b9250827fffffffffffffffffffffffffffffffffffffffffffffffffffffffffffffffff03821115613d4057613d3f613f07565b5b828201905092915050565b6000613d5682613e0f565b9150613d6183613e0f565b9250817fffffffffffffffffffffffffffffffffffffffffffffffffffffffffffffffff0483118215151615613d9a57613d99613f07565b5b828202905092915050565b6000613db082613def565b9050919050565b60008115159050919050565b60007fffffffff0000000000000000000000000000000000000000000000000000000082169050919050565b600073ffffffffffffffffffffffffffffffffffffffff82169050919050565b6000819050919050565b82818337600083830152505050565b60005b83811015613e46578082015181840152602081019050613e2b565b83811115613e55576000848401525b50505050565b60006002820490506001821680613e7357607f821691505b60208210811415613e8757613e86613f36565b5b50919050565b613e9682613fb6565b810181811067ffffffffffffffff82111715613eb557613eb4613f65565b5b80604052505050565b6000613ec982613e0f565b91507fffffffffffffffffffffffffffffffffffffffffffffffffffffffffffffffff821415613efc57613efb613f07565b5b600182019050919050565b7f4e487b7100000000000000000000000000000000000000000000000000000000600052601160045260246000fd5b7f4e487b7100000000000000000000000000000000000000000000000000000000600052602260045260246000fd5b7f4e487b7100000000000000000000000000000000000000000000000000000000600052604160045260246000fd5b600060033d1115613fb35760046000803e613fb0600051613fc7565b90505b90565b6000601f19601f8301169050919050565b60008160e01c9050919050565b7f455243313135353a207472616e7366657220746f206e6f6e204552433131353560008201527f526563656976657220696d706c656d656e746572000000000000000000000000602082015250565b7f455243313135353a204552433131353552656365697665722072656a6563746560008201527f6420746f6b656e73000000000000000000000000000000000000000000000000602082015250565b7f4576656e74206d7573742068617665206465736372697074696f6e0000000000600082015250565b7f455243313135353a2062616c616e636520717565727920666f7220746865207a60008201527f65726f2061646472657373000000000000000000000000000000000000000000602082015250565b7f4f776e61626c653a206e6577206f776e657220697320746865207a65726f206160008201527f6464726573730000000000000000000000000000000000000000000000000000602082015250565b7f455243313135353a2063616c6c6572206973206e6f74206f776e6572206e6f7260008201527f20617070726f7665640000000000000000000000000000000000000000000000602082015250565b7f547279696e6720746f207769746864726177206d6f7265207468616e20796f7560008201527f277665206d616465000000000000000000000000000000000000000000000000602082015250565b7f4576656e74206d75737420686176652031207469636b657420746f2073656c6c600082015250565b7f455243313135353a207472616e7366657220746f20746865207a65726f20616460008201527f6472657373000000000000000000000000000000000000000000000000000000602082015250565b7f455243313135353a207472616e736665722063616c6c6572206973206e6f742060008201527f6f776e6572206e6f7220617070726f7665640000000000000000000000000000602082015250565b7f4d6178207469636b65747320706572206f72646572206d75737420626520617460008201527f206c656173742031000000000000000000000000000000000000000000000000602082015250565b7f73656e742077726f6e6720616d6f756e74206f662066756e647320666f72206d60008201527f696e74696e67207469636b657473000000000000000000000000000000000000602082015250565b7f455243313135353a20696e73756666696369656e742062616c616e636520666f60008201527f72207472616e7366657200000000000000000000000000000000000000000000602082015250565b7f4f776e61626c653a2063616c6c6572206973206e6f7420746865206f776e6572600082015250565b7f4d757374206265206576656e742063726561746f720000000000000000000000600082015250565b7f616d6f756e7420676f747461206265206c6172676572207468616e2030000000600082015250565b7f707572636861736520776f756c6420627579206d6f7265207469636b6574732060008201527f7468616e20657869737400000000000000000000000000000000000000000000602082015250565b7f4d7573742073656e6420637265617465206576656e742066656520617420657860008201527f61637420616d6f756e7400000000000000000000000000000000000000000000602082015250565b7f4576656e74206d7573742068617665206e616d65000000000000000000000000600082015250565b7f63616e277420627579206d6f7265207469636b657473207468616e206d61786d60008201527f696e74416d6f756e740000000000000000000000000000000000000000000000602082015250565b7f455243313135353a2073657474696e6720617070726f76616c2073746174757360008201527f20666f722073656c660000000000000000000000000000000000000000000000602082015250565b7f455243313135353a206163636f756e747320616e6420696473206c656e67746860008201527f206d69736d617463680000000000000000000000000000000000000000000000602082015250565b7f455243313135353a2069647320616e6420616d6f756e7473206c656e6774682060008201527f6d69736d61746368000000000000000000000000000000000000000000000000602082015250565b7f455243313135353a206d696e7420746f20746865207a65726f2061646472657360008201527f7300000000000000000000000000000000000000000000000000000000000000602082015250565b7f5265656e7472616e637947756172643a207265656e7472616e742063616c6c00600082015250565b7f5072696365206d757374206265206174206c6561737420312077656900000000600082015250565b600060443d10156146ba5761473d565b6146c2613baf565b60043d036004823e80513d602482011167ffffffffffffffff821117156146ea57505061473d565b808201805167ffffffffffffffff811115614708575050505061473d565b80602083010160043d03850181111561472557505050505061473d565b61473482602001850186613e8d565b82955050505050505b90565b61474981613da5565b811461475457600080fd5b50565b61476081613db7565b811461476b57600080fd5b50565b61477781613dc3565b811461478257600080fd5b50565b61478e81613e0f565b811461479957600080fd5b5056fea26469706673582212208c0fb9c9679249d2ec8c7e6e5990f0d7021c1c4fb6e8379fc2f9345da7d8379264736f6c63430008040033",
  "linkReferences": {},
  "deployedLinkReferences": {}
}