{
  "_format": "hh-sol-artifact-1",
  "contractName": "ConcertMarketPlace",
  "sourceName": "contracts/ConcertMarketPlace.sol",
  "abi": [
    {
      "inputs": [],
      "stateMutability": "nonpayable",
      "type": "constructor"
    },
    {
      "anonymous": false,
      "inputs": [
        {
          "indexed": true,
          "internalType": "address",
          "name": "account",
          "type": "address"
        },
        {
          "indexed": true,
          "internalType": "address",
          "name": "operator",
          "type": "address"
        },
        {
          "indexed": false,
          "internalType": "bool",
          "name": "approved",
          "type": "bool"
        }
      ],
      "name": "ApprovalForAll",
      "type": "event"
    },
    {
      "anonymous": false,
      "inputs": [
        {
          "indexed": true,
          "internalType": "uint256",
          "name": "id",
          "type": "uint256"
        },
        {
          "indexed": false,
          "internalType": "string",
          "name": "name",
          "type": "string"
        },
        {
          "indexed": false,
          "internalType": "string",
          "name": "description",
          "type": "string"
        },
        {
          "indexed": false,
          "internalType": "uint256",
          "name": "totalSupply",
          "type": "uint256"
        },
        {
          "indexed": true,
          "internalType": "address",
          "name": "owner",
          "type": "address"
        },
        {
          "indexed": false,
          "internalType": "uint256",
          "name": "pricePerTicket",
          "type": "uint256"
        },
        {
          "indexed": false,
          "internalType": "uint256",
          "name": "maxMintAmount",
          "type": "uint256"
        },
        {
          "indexed": false,
          "internalType": "string",
          "name": "baseURI",
          "type": "string"
        }
      ],
      "name": "EventObjectCreated",
      "type": "event"
    },
    {
      "anonymous": false,
      "inputs": [
        {
          "indexed": true,
          "internalType": "address",
          "name": "previousOwner",
          "type": "address"
        },
        {
          "indexed": true,
          "internalType": "address",
          "name": "newOwner",
          "type": "address"
        }
      ],
      "name": "OwnershipTransferred",
      "type": "event"
    },
    {
      "anonymous": false,
      "inputs": [
        {
          "indexed": true,
          "internalType": "address",
          "name": "operator",
          "type": "address"
        },
        {
          "indexed": true,
          "internalType": "address",
          "name": "from",
          "type": "address"
        },
        {
          "indexed": true,
          "internalType": "address",
          "name": "to",
          "type": "address"
        },
        {
          "indexed": false,
          "internalType": "uint256[]",
          "name": "ids",
          "type": "uint256[]"
        },
        {
          "indexed": false,
          "internalType": "uint256[]",
          "name": "values",
          "type": "uint256[]"
        }
      ],
      "name": "TransferBatch",
      "type": "event"
    },
    {
      "anonymous": false,
      "inputs": [
        {
          "indexed": true,
          "internalType": "address",
          "name": "operator",
          "type": "address"
        },
        {
          "indexed": true,
          "internalType": "address",
          "name": "from",
          "type": "address"
        },
        {
          "indexed": true,
          "internalType": "address",
          "name": "to",
          "type": "address"
        },
        {
          "indexed": false,
          "internalType": "uint256",
          "name": "id",
          "type": "uint256"
        },
        {
          "indexed": false,
          "internalType": "uint256",
          "name": "value",
          "type": "uint256"
        }
      ],
      "name": "TransferSingle",
      "type": "event"
    },
    {
      "anonymous": false,
      "inputs": [
        {
          "indexed": false,
          "internalType": "string",
          "name": "value",
          "type": "string"
        },
        {
          "indexed": true,
          "internalType": "uint256",
          "name": "id",
          "type": "uint256"
        }
      ],
      "name": "URI",
      "type": "event"
    },
    {
      "anonymous": false,
      "inputs": [
        {
          "indexed": false,
          "internalType": "uint256",
          "name": "id",
          "type": "uint256"
        },
        {
          "indexed": false,
          "internalType": "uint256",
          "name": "amount",
          "type": "uint256"
        },
        {
          "indexed": false,
          "internalType": "address",
          "name": "buyer",
          "type": "address"
        },
        {
          "indexed": false,
          "internalType": "uint256",
          "name": "price",
          "type": "uint256"
        }
      ],
      "name": "purchaseComplete",
      "type": "event"
    },
    {
      "anonymous": false,
      "inputs": [
        {
          "indexed": false,
          "internalType": "uint256",
          "name": "id",
          "type": "uint256"
        },
        {
          "indexed": false,
          "internalType": "uint256",
          "name": "amount",
          "type": "uint256"
        },
        {
          "indexed": false,
          "internalType": "address",
          "name": "buyer",
          "type": "address"
        }
      ],
      "name": "purchaseFailed",
      "type": "event"
    },
    {
      "anonymous": false,
      "inputs": [
        {
          "indexed": false,
          "internalType": "uint256",
          "name": "id",
          "type": "uint256"
        },
        {
          "indexed": false,
          "internalType": "uint256",
          "name": "amount",
          "type": "uint256"
        },
        {
          "indexed": false,
          "internalType": "address",
          "name": "buyer",
          "type": "address"
        }
      ],
      "name": "purchaseStarted",
      "type": "event"
    },
    {
      "inputs": [
        {
          "internalType": "address",
          "name": "account",
          "type": "address"
        },
        {
          "internalType": "uint256",
          "name": "id",
          "type": "uint256"
        }
      ],
      "name": "balanceOf",
      "outputs": [
        {
          "internalType": "uint256",
          "name": "",
          "type": "uint256"
        }
      ],
      "stateMutability": "view",
      "type": "function"
    },
    {
      "inputs": [
        {
          "internalType": "address[]",
          "name": "accounts",
          "type": "address[]"
        },
        {
          "internalType": "uint256[]",
          "name": "ids",
          "type": "uint256[]"
        }
      ],
      "name": "balanceOfBatch",
      "outputs": [
        {
          "internalType": "uint256[]",
          "name": "",
          "type": "uint256[]"
        }
      ],
      "stateMutability": "view",
      "type": "function"
    },
    {
      "inputs": [
        {
          "internalType": "uint256",
          "name": "id",
          "type": "uint256"
        },
        {
          "internalType": "uint256",
          "name": "amount",
          "type": "uint256"
        }
      ],
      "name": "buyTicket",
      "outputs": [],
      "stateMutability": "payable",
      "type": "function"
    },
    {
      "inputs": [],
      "name": "contractName",
      "outputs": [
        {
          "internalType": "string",
          "name": "",
          "type": "string"
        }
      ],
      "stateMutability": "view",
      "type": "function"
    },
    {
      "inputs": [
        {
          "internalType": "string",
          "name": "name",
          "type": "string"
        },
        {
          "internalType": "string",
          "name": "description",
          "type": "string"
        },
        {
          "internalType": "uint256",
          "name": "totalSupply",
          "type": "uint256"
        },
        {
          "internalType": "uint256",
          "name": "pricePerTicket",
          "type": "uint256"
        },
        {
          "internalType": "uint256",
          "name": "maxMintAmount",
          "type": "uint256"
        },
        {
          "internalType": "string",
          "name": "baseURI",
          "type": "string"
        }
      ],
      "name": "createEventObject",
      "outputs": [],
      "stateMutability": "payable",
      "type": "function"
    },
    {
      "inputs": [
        {
          "internalType": "string",
          "name": "_str",
          "type": "string"
        }
      ],
      "name": "getStrLen",
      "outputs": [
        {
          "internalType": "uint256",
          "name": "",
          "type": "uint256"
        }
      ],
      "stateMutability": "view",
      "type": "function"
    },
    {
      "inputs": [
        {
          "internalType": "address",
          "name": "account",
          "type": "address"
        },
        {
          "internalType": "address",
          "name": "operator",
          "type": "address"
        }
      ],
      "name": "isApprovedForAll",
      "outputs": [
        {
          "internalType": "bool",
          "name": "",
          "type": "bool"
        }
      ],
      "stateMutability": "view",
      "type": "function"
    },
    {
      "inputs": [],
      "name": "owner",
      "outputs": [
        {
          "internalType": "address",
          "name": "",
          "type": "address"
        }
      ],
      "stateMutability": "view",
      "type": "function"
    },
    {
      "inputs": [],
      "name": "renounceOwnership",
      "outputs": [],
      "stateMutability": "nonpayable",
      "type": "function"
    },
    {
      "inputs": [
        {
          "internalType": "address",
          "name": "from",
          "type": "address"
        },
        {
          "internalType": "address",
          "name": "to",
          "type": "address"
        },
        {
          "internalType": "uint256[]",
          "name": "ids",
          "type": "uint256[]"
        },
        {
          "internalType": "uint256[]",
          "name": "amounts",
          "type": "uint256[]"
        },
        {
          "internalType": "bytes",
          "name": "data",
          "type": "bytes"
        }
      ],
      "name": "safeBatchTransferFrom",
      "outputs": [],
      "stateMutability": "nonpayable",
      "type": "function"
    },
    {
      "inputs": [
        {
          "internalType": "address",
          "name": "from",
          "type": "address"
        },
        {
          "internalType": "address",
          "name": "to",
          "type": "address"
        },
        {
          "internalType": "uint256",
          "name": "id",
          "type": "uint256"
        },
        {
          "internalType": "uint256",
          "name": "amount",
          "type": "uint256"
        },
        {
          "internalType": "bytes",
          "name": "data",
          "type": "bytes"
        }
      ],
      "name": "safeTransferFrom",
      "outputs": [],
      "stateMutability": "nonpayable",
      "type": "function"
    },
    {
      "inputs": [
        {
          "internalType": "address",
          "name": "operator",
          "type": "address"
        },
        {
          "internalType": "bool",
          "name": "approved",
          "type": "bool"
        }
      ],
      "name": "setApprovalForAll",
      "outputs": [],
      "stateMutability": "nonpayable",
      "type": "function"
    },
    {
      "inputs": [
        {
          "internalType": "bytes4",
          "name": "interfaceId",
          "type": "bytes4"
        }
      ],
      "name": "supportsInterface",
      "outputs": [
        {
          "internalType": "bool",
          "name": "",
          "type": "bool"
        }
      ],
      "stateMutability": "view",
      "type": "function"
    },
    {
      "inputs": [],
      "name": "symbol",
      "outputs": [
        {
          "internalType": "string",
          "name": "",
          "type": "string"
        }
      ],
      "stateMutability": "view",
      "type": "function"
    },
    {
      "inputs": [
        {
          "internalType": "address",
          "name": "newOwner",
          "type": "address"
        }
      ],
      "name": "transferOwnership",
      "outputs": [],
      "stateMutability": "nonpayable",
      "type": "function"
    },
    {
      "inputs": [
        {
          "internalType": "uint256",
          "name": "",
          "type": "uint256"
        }
      ],
      "name": "uri",
      "outputs": [
        {
          "internalType": "string",
          "name": "",
          "type": "string"
        }
      ],
      "stateMutability": "view",
      "type": "function"
    },
    {
      "inputs": [
        {
          "internalType": "uint256",
          "name": "id",
          "type": "uint256"
        },
        {
          "internalType": "uint256",
          "name": "withdrawAmount",
          "type": "uint256"
        }
      ],
      "name": "withdrawFunds",
      "outputs": [],
      "stateMutability": "payable",
      "type": "function"
    }
  ],
  "bytecode": "0x6080604052670de0b6b3a76400006007553480156200001d57600080fd5b50604051806020016040528060008152506200003f816200010a60201b60201c565b506001600381905550620000686200005c6200012660201b60201c565b6200012e60201b60201c565b6040518060400160405280600981526020017f4e465469636b657473000000000000000000000000000000000000000000000081525060059080519060200190620000b5929190620001f4565b506040518060400160405280600381526020017f4e465400000000000000000000000000000000000000000000000000000000008152506006908051906020019062000103929190620001f4565b5062000309565b806002908051906020019062000122929190620001f4565b5050565b600033905090565b6000600460009054906101000a900473ffffffffffffffffffffffffffffffffffffffff16905081600460006101000a81548173ffffffffffffffffffffffffffffffffffffffff021916908373ffffffffffffffffffffffffffffffffffffffff1602179055508173ffffffffffffffffffffffffffffffffffffffff168173ffffffffffffffffffffffffffffffffffffffff167f8be0079c531659141344cd1fd0a4f28419497f9722a3daafe3b4186f6b6457e060405160405180910390a35050565b8280546200020290620002a4565b90600052602060002090601f01602090048101928262000226576000855562000272565b82601f106200024157805160ff191683800117855562000272565b8280016001018555821562000272579182015b828111156200027157825182559160200191906001019062000254565b5b50905062000281919062000285565b5090565b5b80821115620002a057600081600090555060010162000286565b5090565b60006002820490506001821680620002bd57607f821691505b60208210811415620002d457620002d3620002da565b5b50919050565b7f4e487b7100000000000000000000000000000000000000000000000000000000600052602260045260246000fd5b6142d980620003196000396000f3fe6080604052600436106100fd5760003560e01c80638da5cb5b11610095578063e525310511610064578063e525310514610339578063e985e9c514610355578063ec1f76ba14610392578063f242432a146103ae578063f2fde38b146103d7576100fd565b80638da5cb5b1461027d57806395d89b41146102a8578063a22cb465146102d3578063cb931bac146102fc576100fd565b80632eb2c2d6116100d15780632eb2c2d6146101d55780634e1273f4146101fe578063715018a61461023b57806375d0c0dc14610252576100fd565b8062fdd58e1461010257806301ffc9a71461013f5780630e89341c1461017c578063298ec208146101b9575b600080fd5b34801561010e57600080fd5b5061012960048036038101906101249190612985565b610400565b6040516101369190613623565b60405180910390f35b34801561014b57600080fd5b5061016660048036038101906101619190612a56565b6104c9565b6040516101739190613230565b60405180910390f35b34801561018857600080fd5b506101a3600480360381019061019e9190612bba565b6105ab565b6040516101b0919061324b565b60405180910390f35b6101d360048036038101906101ce9190612be3565b61063f565b005b3480156101e157600080fd5b506101fc60048036038101906101f791906127fb565b6108f2565b005b34801561020a57600080fd5b50610225600480360381019061022091906129c1565b610993565b60405161023291906131d7565b60405180910390f35b34801561024757600080fd5b50610250610b44565b005b34801561025e57600080fd5b50610267610bcc565b604051610274919061324b565b60405180910390f35b34801561028957600080fd5b50610292610c5a565b60405161029f91906130d1565b60405180910390f35b3480156102b457600080fd5b506102bd610c84565b6040516102ca919061324b565b60405180910390f35b3480156102df57600080fd5b506102fa60048036038101906102f59190612949565b610d12565b005b34801561030857600080fd5b50610323600480360381019061031e9190612aa8565b610d28565b6040516103309190613623565b60405180910390f35b610353600480360381019061034e9190612be3565b610d38565b005b34801561036157600080fd5b5061037c600480360381019061037791906127bf565b610f85565b6040516103899190613230565b60405180910390f35b6103ac60048036038101906103a79190612ae9565b611019565b005b3480156103ba57600080fd5b506103d560048036038101906103d091906128ba565b6113da565b005b3480156103e357600080fd5b506103fe60048036038101906103f99190612796565b61147b565b005b60008073ffffffffffffffffffffffffffffffffffffffff168373ffffffffffffffffffffffffffffffffffffffff161415610471576040517f08c379a000000000000000000000000000000000000000000000000000000000815260040161046890613343565b60405180910390fd5b60008083815260200190815260200160002060008473ffffffffffffffffffffffffffffffffffffffff1673ffffffffffffffffffffffffffffffffffffffff16815260200190815260200160002054905092915050565b60007fd9b67a26000000000000000000000000000000000000000000000000000000007bffffffffffffffffffffffffffffffffffffffffffffffffffffffff1916827bffffffffffffffffffffffffffffffffffffffffffffffffffffffff1916148061059457507f0e89341c000000000000000000000000000000000000000000000000000000007bffffffffffffffffffffffffffffffffffffffffffffffffffffffff1916827bffffffffffffffffffffffffffffffffffffffffffffffffffffffff1916145b806105a457506105a382611573565b5b9050919050565b6060600280546105ba90613962565b80601f01602080910402602001604051908101604052809291908181526020018280546105e690613962565b80156106335780601f1061060857610100808354040283529160200191610633565b820191906000526020600020905b81548152906001019060200180831161061657829003601f168201915b50505050509050919050565b60026003541415610685576040517f08c379a000000000000000000000000000000000000000000000000000000000815260040161067c906135e3565b60405180910390fd5b6002600381905550600081116106d0576040517f08c379a00000000000000000000000000000000000000000000000000000000081526004016106c7906134c3565b60405180910390fd5b6009600083815260200190815260200160002060060154811115610729576040517f08c379a000000000000000000000000000000000000000000000000000000000815260040161072090613543565b60405180910390fd5b600960008381526020019081526020016000206003015461076d8261075f600a60008781526020019081526020016000206115dd565b6115eb90919063ffffffff16565b11156107ae576040517f08c379a00000000000000000000000000000000000000000000000000000000081526004016107a5906134e3565b60405180910390fd5b8060096000848152602001908152602001600020600501546107d09190613852565b3414610811576040517f08c379a000000000000000000000000000000000000000000000000000000000815260040161080890613443565b60405180910390fd5b61082c33838360405180602001604052806000815250611601565b60005b8181101561086557610852600a6000858152602001908152602001600020611797565b808061085d906139c5565b91505061082f565b5034600b6000848152602001908152602001600020600101600082825461088c91906137fc565b925050819055507f0c53b649fc163eb5403c70b0e478499a759ed0987d5fd51fbb4c3ca0458da84682823360096000878152602001908152602001600020600501546040516108de9493929190613667565b60405180910390a160016003819055505050565b6108fa6117ad565b73ffffffffffffffffffffffffffffffffffffffff168573ffffffffffffffffffffffffffffffffffffffff161480610940575061093f8561093a6117ad565b610f85565b5b61097f576040517f08c379a000000000000000000000000000000000000000000000000000000000815260040161097690613403565b60405180910390fd5b61098c85858585856117b5565b5050505050565b606081518351146109d9576040517f08c379a00000000000000000000000000000000000000000000000000000000081526004016109d090613583565b60405180910390fd5b6000835167ffffffffffffffff811115610a1c577f4e487b7100000000000000000000000000000000000000000000000000000000600052604160045260246000fd5b604051908082528060200260200182016040528015610a4a5781602001602082028036833780820191505090505b50905060005b8451811015610b3957610ae3858281518110610a95577f4e487b7100000000000000000000000000000000000000000000000000000000600052603260045260246000fd5b6020026020010151858381518110610ad6577f4e487b7100000000000000000000000000000000000000000000000000000000600052603260045260246000fd5b6020026020010151610400565b828281518110610b1c577f4e487b7100000000000000000000000000000000000000000000000000000000600052603260045260246000fd5b60200260200101818152505080610b32906139c5565b9050610a50565b508091505092915050565b610b4c6117ad565b73ffffffffffffffffffffffffffffffffffffffff16610b6a610c5a565b73ffffffffffffffffffffffffffffffffffffffff1614610bc0576040517f08c379a0000000000000000000000000000000000000000000000000000000008152600401610bb790613483565b60405180910390fd5b610bca6000611b15565b565b60058054610bd990613962565b80601f0160208091040260200160405190810160405280929190818152602001828054610c0590613962565b8015610c525780601f10610c2757610100808354040283529160200191610c52565b820191906000526020600020905b815481529060010190602001808311610c3557829003601f168201915b505050505081565b6000600460009054906101000a900473ffffffffffffffffffffffffffffffffffffffff16905090565b60068054610c9190613962565b80601f0160208091040260200160405190810160405280929190818152602001828054610cbd90613962565b8015610d0a5780601f10610cdf57610100808354040283529160200191610d0a565b820191906000526020600020905b815481529060010190602001808311610ced57829003601f168201915b505050505081565b610d24610d1d6117ad565b8383611bdb565b5050565b6000808251905080915050919050565b60026003541415610d7e576040517f08c379a0000000000000000000000000000000000000000000000000000000008152600401610d75906135e3565b60405180910390fd5b60026003819055503373ffffffffffffffffffffffffffffffffffffffff166009600084815260200190815260200160002060040160009054906101000a900473ffffffffffffffffffffffffffffffffffffffff1673ffffffffffffffffffffffffffffffffffffffff1614610e2a576040517f08c379a0000000000000000000000000000000000000000000000000000000008152600401610e21906134a3565b60405180910390fd5b80600b600084815260200190815260200160002060000154610e4c91906137fc565b600b6000848152602001908152602001600020600101541015610ea4576040517f08c379a0000000000000000000000000000000000000000000000000000000008152600401610e9b906133a3565b60405180910390fd5b80600b60008481526020019081526020016000206000016000828254610eca91906137fc565b925050819055506000737d1afa7b718fb893db30a3abc0cfc608aacfebb090508073ffffffffffffffffffffffffffffffffffffffff1663a9059cbb33846040518363ffffffff1660e01b8152600401610f259291906131ae565b602060405180830381600087803b158015610f3f57600080fd5b505af1158015610f53573d6000803e3d6000fd5b505050506040513d601f19601f82011682018060405250810190610f779190612a2d565b505060016003819055505050565b6000600160008473ffffffffffffffffffffffffffffffffffffffff1673ffffffffffffffffffffffffffffffffffffffff16815260200190815260200160002060008373ffffffffffffffffffffffffffffffffffffffff1673ffffffffffffffffffffffffffffffffffffffff16815260200190815260200160002060009054906101000a900460ff16905092915050565b6002600354141561105f576040517f08c379a0000000000000000000000000000000000000000000000000000000008152600401611056906135e3565b60405180910390fd5b6002600381905550600061107287610d28565b116110b2576040517f08c379a00000000000000000000000000000000000000000000000000000000081526004016110a990613523565b60405180910390fd5b60006110bd86610d28565b116110fd576040517f08c379a00000000000000000000000000000000000000000000000000000000081526004016110f490613323565b60405180910390fd5b60008411611140576040517f08c379a0000000000000000000000000000000000000000000000000000000008152600401611137906133c3565b60405180910390fd5b60008311611183576040517f08c379a000000000000000000000000000000000000000000000000000000000815260040161117a90613603565b60405180910390fd5b600082116111c6576040517f08c379a00000000000000000000000000000000000000000000000000000000081526004016111bd90613423565b60405180910390fd5b600754341461120a576040517f08c379a000000000000000000000000000000000000000000000000000000000815260040161120190613503565b60405180910390fd5b6112146008611797565b600061122060086115dd565b905060006040518061010001604052808381526020018981526020018881526020018781526020013373ffffffffffffffffffffffffffffffffffffffff16815260200186815260200185815260200184815250905060006040518060400160405280600081526020016000815250905081600960008581526020019081526020016000206000820151816000015560208201518160010190805190602001906112cb929190612479565b5060408201518160020190805190602001906112e8929190612479565b506060820151816003015560808201518160040160006101000a81548173ffffffffffffffffffffffffffffffffffffffff021916908373ffffffffffffffffffffffffffffffffffffffff16021790555060a0820151816005015560c0820151816006015560e082015181600701908051906020019061136a929190612479565b509050503373ffffffffffffffffffffffffffffffffffffffff16837f6011e720ff6c75ff1615e4c304930647f7dbd85609f7d5ef2545d66c374e72008b8b8b8b8b8b6040516113bf9695949392919061326d565b60405180910390a35050506001600381905550505050505050565b6113e26117ad565b73ffffffffffffffffffffffffffffffffffffffff168573ffffffffffffffffffffffffffffffffffffffff1614806114285750611427856114226117ad565b610f85565b5b611467576040517f08c379a000000000000000000000000000000000000000000000000000000000815260040161145e90613383565b60405180910390fd5b6114748585858585611d48565b5050505050565b6114836117ad565b73ffffffffffffffffffffffffffffffffffffffff166114a1610c5a565b73ffffffffffffffffffffffffffffffffffffffff16146114f7576040517f08c379a00000000000000000000000000000000000000000000000000000000081526004016114ee90613483565b60405180910390fd5b600073ffffffffffffffffffffffffffffffffffffffff168173ffffffffffffffffffffffffffffffffffffffff161415611567576040517f08c379a000000000000000000000000000000000000000000000000000000000815260040161155e90613363565b60405180910390fd5b61157081611b15565b50565b60007f01ffc9a7000000000000000000000000000000000000000000000000000000007bffffffffffffffffffffffffffffffffffffffffffffffffffffffff1916827bffffffffffffffffffffffffffffffffffffffffffffffffffffffff1916149050919050565b600081600001549050919050565b600081836115f991906137fc565b905092915050565b600073ffffffffffffffffffffffffffffffffffffffff168473ffffffffffffffffffffffffffffffffffffffff161415611671576040517f08c379a0000000000000000000000000000000000000000000000000000000008152600401611668906135c3565b60405180910390fd5b600061167b6117ad565b905061169c8160008761168d88611fca565b61169688611fca565b87612090565b8260008086815260200190815260200160002060008773ffffffffffffffffffffffffffffffffffffffff1673ffffffffffffffffffffffffffffffffffffffff16815260200190815260200160002060008282546116fb91906137fc565b925050819055508473ffffffffffffffffffffffffffffffffffffffff16600073ffffffffffffffffffffffffffffffffffffffff168273ffffffffffffffffffffffffffffffffffffffff167fc3d58168c5ae7397731d063d5bbf3d657854427343f4c083240f7aacaa2d0f62878760405161177992919061363e565b60405180910390a461179081600087878787612098565b5050505050565b6001816000016000828254019250508190555050565b600033905090565b81518351146117f9576040517f08c379a00000000000000000000000000000000000000000000000000000000081526004016117f0906135a3565b60405180910390fd5b600073ffffffffffffffffffffffffffffffffffffffff168473ffffffffffffffffffffffffffffffffffffffff161415611869576040517f08c379a0000000000000000000000000000000000000000000000000000000008152600401611860906133e3565b60405180910390fd5b60006118736117ad565b9050611883818787878787612090565b60005b8451811015611a805760008582815181106118ca577f4e487b7100000000000000000000000000000000000000000000000000000000600052603260045260246000fd5b60200260200101519050600085838151811061190f577f4e487b7100000000000000000000000000000000000000000000000000000000600052603260045260246000fd5b60200260200101519050600080600084815260200190815260200160002060008b73ffffffffffffffffffffffffffffffffffffffff1673ffffffffffffffffffffffffffffffffffffffff168152602001908152602001600020549050818110156119b0576040517f08c379a00000000000000000000000000000000000000000000000000000000081526004016119a790613463565b60405180910390fd5b81810360008085815260200190815260200160002060008c73ffffffffffffffffffffffffffffffffffffffff1673ffffffffffffffffffffffffffffffffffffffff168152602001908152602001600020819055508160008085815260200190815260200160002060008b73ffffffffffffffffffffffffffffffffffffffff1673ffffffffffffffffffffffffffffffffffffffff1681526020019081526020016000206000828254611a6591906137fc565b9250508190555050505080611a79906139c5565b9050611886565b508473ffffffffffffffffffffffffffffffffffffffff168673ffffffffffffffffffffffffffffffffffffffff168273ffffffffffffffffffffffffffffffffffffffff167f4a39dc06d4c0dbc64b70af90fd698a233a518aa5d07e595d983b8c0526c8f7fb8787604051611af79291906131f9565b60405180910390a4611b0d81878787878761227f565b505050505050565b6000600460009054906101000a900473ffffffffffffffffffffffffffffffffffffffff16905081600460006101000a81548173ffffffffffffffffffffffffffffffffffffffff021916908373ffffffffffffffffffffffffffffffffffffffff1602179055508173ffffffffffffffffffffffffffffffffffffffff168173ffffffffffffffffffffffffffffffffffffffff167f8be0079c531659141344cd1fd0a4f28419497f9722a3daafe3b4186f6b6457e060405160405180910390a35050565b8173ffffffffffffffffffffffffffffffffffffffff168373ffffffffffffffffffffffffffffffffffffffff161415611c4a576040517f08c379a0000000000000000000000000000000000000000000000000000000008152600401611c4190613563565b60405180910390fd5b80600160008573ffffffffffffffffffffffffffffffffffffffff1673ffffffffffffffffffffffffffffffffffffffff16815260200190815260200160002060008473ffffffffffffffffffffffffffffffffffffffff1673ffffffffffffffffffffffffffffffffffffffff16815260200190815260200160002060006101000a81548160ff0219169083151502179055508173ffffffffffffffffffffffffffffffffffffffff168373ffffffffffffffffffffffffffffffffffffffff167f17307eab39ab6107e8899845ad3d59bd9653f200f220920489ca2b5937696c3183604051611d3b9190613230565b60405180910390a3505050565b600073ffffffffffffffffffffffffffffffffffffffff168473ffffffffffffffffffffffffffffffffffffffff161415611db8576040517f08c379a0000000000000000000000000000000000000000000000000000000008152600401611daf906133e3565b60405180910390fd5b6000611dc26117ad565b9050611de2818787611dd388611fca565b611ddc88611fca565b87612090565b600080600086815260200190815260200160002060008873ffffffffffffffffffffffffffffffffffffffff1673ffffffffffffffffffffffffffffffffffffffff16815260200190815260200160002054905083811015611e79576040517f08c379a0000000000000000000000000000000000000000000000000000000008152600401611e7090613463565b60405180910390fd5b83810360008087815260200190815260200160002060008973ffffffffffffffffffffffffffffffffffffffff1673ffffffffffffffffffffffffffffffffffffffff168152602001908152602001600020819055508360008087815260200190815260200160002060008873ffffffffffffffffffffffffffffffffffffffff1673ffffffffffffffffffffffffffffffffffffffff1681526020019081526020016000206000828254611f2e91906137fc565b925050819055508573ffffffffffffffffffffffffffffffffffffffff168773ffffffffffffffffffffffffffffffffffffffff168373ffffffffffffffffffffffffffffffffffffffff167fc3d58168c5ae7397731d063d5bbf3d657854427343f4c083240f7aacaa2d0f628888604051611fab92919061363e565b60405180910390a4611fc1828888888888612098565b50505050505050565b60606000600167ffffffffffffffff81111561200f577f4e487b7100000000000000000000000000000000000000000000000000000000600052604160045260246000fd5b60405190808252806020026020018201604052801561203d5781602001602082028036833780820191505090505b509050828160008151811061207b577f4e487b7100000000000000000000000000000000000000000000000000000000600052603260045260246000fd5b60200260200101818152505080915050919050565b505050505050565b6120b78473ffffffffffffffffffffffffffffffffffffffff16612466565b15612277578373ffffffffffffffffffffffffffffffffffffffff1663f23a6e6187878686866040518663ffffffff1660e01b81526004016120fd959493929190613154565b602060405180830381600087803b15801561211757600080fd5b505af192505050801561214857506040513d601f19601f820116820180604052508101906121459190612a7f565b60015b6121ee57612154613a9b565b806308c379a014156121b157506121696141b1565b8061217457506121b3565b806040517f08c379a00000000000000000000000000000000000000000000000000000000081526004016121a8919061324b565b60405180910390fd5b505b6040517f08c379a00000000000000000000000000000000000000000000000000000000081526004016121e5906132e3565b60405180910390fd5b63f23a6e6160e01b7bffffffffffffffffffffffffffffffffffffffffffffffffffffffff1916817bffffffffffffffffffffffffffffffffffffffffffffffffffffffff191614612275576040517f08c379a000000000000000000000000000000000000000000000000000000000815260040161226c90613303565b60405180910390fd5b505b505050505050565b61229e8473ffffffffffffffffffffffffffffffffffffffff16612466565b1561245e578373ffffffffffffffffffffffffffffffffffffffff1663bc197c8187878686866040518663ffffffff1660e01b81526004016122e49594939291906130ec565b602060405180830381600087803b1580156122fe57600080fd5b505af192505050801561232f57506040513d601f19601f8201168201806040525081019061232c9190612a7f565b60015b6123d55761233b613a9b565b806308c379a0141561239857506123506141b1565b8061235b575061239a565b806040517f08c379a000000000000000000000000000000000000000000000000000000000815260040161238f919061324b565b60405180910390fd5b505b6040517f08c379a00000000000000000000000000000000000000000000000000000000081526004016123cc906132e3565b60405180910390fd5b63bc197c8160e01b7bffffffffffffffffffffffffffffffffffffffffffffffffffffffff1916817bffffffffffffffffffffffffffffffffffffffffffffffffffffffff19161461245c576040517f08c379a000000000000000000000000000000000000000000000000000000000815260040161245390613303565b60405180910390fd5b505b505050505050565b600080823b905060008111915050919050565b82805461248590613962565b90600052602060002090601f0160209004810192826124a757600085556124ee565b82601f106124c057805160ff19168380011785556124ee565b828001600101855582156124ee579182015b828111156124ed5782518255916020019190600101906124d2565b5b5090506124fb91906124ff565b5090565b5b80821115612518576000816000905550600101612500565b5090565b600061252f61252a846136d1565b6136ac565b9050808382526020820190508285602086028201111561254e57600080fd5b60005b8581101561257e57816125648882612670565b845260208401935060208301925050600181019050612551565b5050509392505050565b600061259b612596846136fd565b6136ac565b905080838252602082019050828560208602820111156125ba57600080fd5b60005b858110156125ea57816125d08882612781565b8452602084019350602083019250506001810190506125bd565b5050509392505050565b600061260761260284613729565b6136ac565b90508281526020810184848401111561261f57600080fd5b61262a848285613920565b509392505050565b60006126456126408461375a565b6136ac565b90508281526020810184848401111561265d57600080fd5b612668848285613920565b509392505050565b60008135905061267f81614247565b92915050565b600082601f83011261269657600080fd5b81356126a684826020860161251c565b91505092915050565b600082601f8301126126c057600080fd5b81356126d0848260208601612588565b91505092915050565b6000813590506126e88161425e565b92915050565b6000815190506126fd8161425e565b92915050565b60008135905061271281614275565b92915050565b60008151905061272781614275565b92915050565b600082601f83011261273e57600080fd5b813561274e8482602086016125f4565b91505092915050565b600082601f83011261276857600080fd5b8135612778848260208601612632565b91505092915050565b6000813590506127908161428c565b92915050565b6000602082840312156127a857600080fd5b60006127b684828501612670565b91505092915050565b600080604083850312156127d257600080fd5b60006127e085828601612670565b92505060206127f185828601612670565b9150509250929050565b600080600080600060a0868803121561281357600080fd5b600061282188828901612670565b955050602061283288828901612670565b945050604086013567ffffffffffffffff81111561284f57600080fd5b61285b888289016126af565b935050606086013567ffffffffffffffff81111561287857600080fd5b612884888289016126af565b925050608086013567ffffffffffffffff8111156128a157600080fd5b6128ad8882890161272d565b9150509295509295909350565b600080600080600060a086880312156128d257600080fd5b60006128e088828901612670565b95505060206128f188828901612670565b945050604061290288828901612781565b935050606061291388828901612781565b925050608086013567ffffffffffffffff81111561293057600080fd5b61293c8882890161272d565b9150509295509295909350565b6000806040838503121561295c57600080fd5b600061296a85828601612670565b925050602061297b858286016126d9565b9150509250929050565b6000806040838503121561299857600080fd5b60006129a685828601612670565b92505060206129b785828601612781565b9150509250929050565b600080604083850312156129d457600080fd5b600083013567ffffffffffffffff8111156129ee57600080fd5b6129fa85828601612685565b925050602083013567ffffffffffffffff811115612a1757600080fd5b612a23858286016126af565b9150509250929050565b600060208284031215612a3f57600080fd5b6000612a4d848285016126ee565b91505092915050565b600060208284031215612a6857600080fd5b6000612a7684828501612703565b91505092915050565b600060208284031215612a9157600080fd5b6000612a9f84828501612718565b91505092915050565b600060208284031215612aba57600080fd5b600082013567ffffffffffffffff811115612ad457600080fd5b612ae084828501612757565b91505092915050565b60008060008060008060c08789031215612b0257600080fd5b600087013567ffffffffffffffff811115612b1c57600080fd5b612b2889828a01612757565b965050602087013567ffffffffffffffff811115612b4557600080fd5b612b5189828a01612757565b9550506040612b6289828a01612781565b9450506060612b7389828a01612781565b9350506080612b8489828a01612781565b92505060a087013567ffffffffffffffff811115612ba157600080fd5b612bad89828a01612757565b9150509295509295509295565b600060208284031215612bcc57600080fd5b6000612bda84828501612781565b91505092915050565b60008060408385031215612bf657600080fd5b6000612c0485828601612781565b9250506020612c1585828601612781565b9150509250929050565b6000612c2b83836130b3565b60208301905092915050565b612c40816138ac565b82525050565b6000612c518261379b565b612c5b81856137c9565b9350612c668361378b565b8060005b83811015612c97578151612c7e8882612c1f565b9750612c89836137bc565b925050600181019050612c6a565b5085935050505092915050565b612cad816138be565b82525050565b6000612cbe826137a6565b612cc881856137da565b9350612cd881856020860161392f565b612ce181613abd565b840191505092915050565b6000612cf7826137b1565b612d0181856137eb565b9350612d1181856020860161392f565b612d1a81613abd565b840191505092915050565b6000612d326034836137eb565b9150612d3d82613adb565b604082019050919050565b6000612d556028836137eb565b9150612d6082613b2a565b604082019050919050565b6000612d78601b836137eb565b9150612d8382613b79565b602082019050919050565b6000612d9b602b836137eb565b9150612da682613ba2565b604082019050919050565b6000612dbe6026836137eb565b9150612dc982613bf1565b604082019050919050565b6000612de16029836137eb565b9150612dec82613c40565b604082019050919050565b6000612e046028836137eb565b9150612e0f82613c8f565b604082019050919050565b6000612e276020836137eb565b9150612e3282613cde565b602082019050919050565b6000612e4a6025836137eb565b9150612e5582613d07565b604082019050919050565b6000612e6d6032836137eb565b9150612e7882613d56565b604082019050919050565b6000612e906028836137eb565b9150612e9b82613da5565b604082019050919050565b6000612eb3602e836137eb565b9150612ebe82613df4565b604082019050919050565b6000612ed6602a836137eb565b9150612ee182613e43565b604082019050919050565b6000612ef96020836137eb565b9150612f0482613e92565b602082019050919050565b6000612f1c6015836137eb565b9150612f2782613ebb565b602082019050919050565b6000612f3f601d836137eb565b9150612f4a82613ee4565b602082019050919050565b6000612f62602a836137eb565b9150612f6d82613f0d565b604082019050919050565b6000612f85602a836137eb565b9150612f9082613f5c565b604082019050919050565b6000612fa86014836137eb565b9150612fb382613fab565b602082019050919050565b6000612fcb6029836137eb565b9150612fd682613fd4565b604082019050919050565b6000612fee6029836137eb565b9150612ff982614023565b604082019050919050565b60006130116029836137eb565b915061301c82614072565b604082019050919050565b60006130346028836137eb565b915061303f826140c1565b604082019050919050565b60006130576021836137eb565b915061306282614110565b604082019050919050565b600061307a601f836137eb565b91506130858261415f565b602082019050919050565b600061309d601c836137eb565b91506130a882614188565b602082019050919050565b6130bc81613916565b82525050565b6130cb81613916565b82525050565b60006020820190506130e66000830184612c37565b92915050565b600060a0820190506131016000830188612c37565b61310e6020830187612c37565b81810360408301526131208186612c46565b905081810360608301526131348185612c46565b905081810360808301526131488184612cb3565b90509695505050505050565b600060a0820190506131696000830188612c37565b6131766020830187612c37565b61318360408301866130c2565b61319060608301856130c2565b81810360808301526131a28184612cb3565b90509695505050505050565b60006040820190506131c36000830185612c37565b6131d060208301846130c2565b9392505050565b600060208201905081810360008301526131f18184612c46565b905092915050565b600060408201905081810360008301526132138185612c46565b905081810360208301526132278184612c46565b90509392505050565b60006020820190506132456000830184612ca4565b92915050565b600060208201905081810360008301526132658184612cec565b905092915050565b600060c08201905081810360008301526132878189612cec565b9050818103602083015261329b8188612cec565b90506132aa60408301876130c2565b6132b760608301866130c2565b6132c460808301856130c2565b81810360a08301526132d68184612cec565b9050979650505050505050565b600060208201905081810360008301526132fc81612d25565b9050919050565b6000602082019050818103600083015261331c81612d48565b9050919050565b6000602082019050818103600083015261333c81612d6b565b9050919050565b6000602082019050818103600083015261335c81612d8e565b9050919050565b6000602082019050818103600083015261337c81612db1565b9050919050565b6000602082019050818103600083015261339c81612dd4565b9050919050565b600060208201905081810360008301526133bc81612df7565b9050919050565b600060208201905081810360008301526133dc81612e1a565b9050919050565b600060208201905081810360008301526133fc81612e3d565b9050919050565b6000602082019050818103600083015261341c81612e60565b9050919050565b6000602082019050818103600083015261343c81612e83565b9050919050565b6000602082019050818103600083015261345c81612ea6565b9050919050565b6000602082019050818103600083015261347c81612ec9565b9050919050565b6000602082019050818103600083015261349c81612eec565b9050919050565b600060208201905081810360008301526134bc81612f0f565b9050919050565b600060208201905081810360008301526134dc81612f32565b9050919050565b600060208201905081810360008301526134fc81612f55565b9050919050565b6000602082019050818103600083015261351c81612f78565b9050919050565b6000602082019050818103600083015261353c81612f9b565b9050919050565b6000602082019050818103600083015261355c81612fbe565b9050919050565b6000602082019050818103600083015261357c81612fe1565b9050919050565b6000602082019050818103600083015261359c81613004565b9050919050565b600060208201905081810360008301526135bc81613027565b9050919050565b600060208201905081810360008301526135dc8161304a565b9050919050565b600060208201905081810360008301526135fc8161306d565b9050919050565b6000602082019050818103600083015261361c81613090565b9050919050565b600060208201905061363860008301846130c2565b92915050565b600060408201905061365360008301856130c2565b61366060208301846130c2565b9392505050565b600060808201905061367c60008301876130c2565b61368960208301866130c2565b6136966040830185612c37565b6136a360608301846130c2565b95945050505050565b60006136b66136c7565b90506136c28282613994565b919050565b6000604051905090565b600067ffffffffffffffff8211156136ec576136eb613a6c565b5b602082029050602081019050919050565b600067ffffffffffffffff82111561371857613717613a6c565b5b602082029050602081019050919050565b600067ffffffffffffffff82111561374457613743613a6c565b5b61374d82613abd565b9050602081019050919050565b600067ffffffffffffffff82111561377557613774613a6c565b5b61377e82613abd565b9050602081019050919050565b6000819050602082019050919050565b600081519050919050565b600081519050919050565b600081519050919050565b6000602082019050919050565b600082825260208201905092915050565b600082825260208201905092915050565b600082825260208201905092915050565b600061380782613916565b915061381283613916565b9250827fffffffffffffffffffffffffffffffffffffffffffffffffffffffffffffffff0382111561384757613846613a0e565b5b828201905092915050565b600061385d82613916565b915061386883613916565b9250817fffffffffffffffffffffffffffffffffffffffffffffffffffffffffffffffff04831182151516156138a1576138a0613a0e565b5b828202905092915050565b60006138b7826138f6565b9050919050565b60008115159050919050565b60007fffffffff0000000000000000000000000000000000000000000000000000000082169050919050565b600073ffffffffffffffffffffffffffffffffffffffff82169050919050565b6000819050919050565b82818337600083830152505050565b60005b8381101561394d578082015181840152602081019050613932565b8381111561395c576000848401525b50505050565b6000600282049050600182168061397a57607f821691505b6020821081141561398e5761398d613a3d565b5b50919050565b61399d82613abd565b810181811067ffffffffffffffff821117156139bc576139bb613a6c565b5b80604052505050565b60006139d082613916565b91507fffffffffffffffffffffffffffffffffffffffffffffffffffffffffffffffff821415613a0357613a02613a0e565b5b600182019050919050565b7f4e487b7100000000000000000000000000000000000000000000000000000000600052601160045260246000fd5b7f4e487b7100000000000000000000000000000000000000000000000000000000600052602260045260246000fd5b7f4e487b7100000000000000000000000000000000000000000000000000000000600052604160045260246000fd5b600060033d1115613aba5760046000803e613ab7600051613ace565b90505b90565b6000601f19601f8301169050919050565b60008160e01c9050919050565b7f455243313135353a207472616e7366657220746f206e6f6e204552433131353560008201527f526563656976657220696d706c656d656e746572000000000000000000000000602082015250565b7f455243313135353a204552433131353552656365697665722072656a6563746560008201527f6420746f6b656e73000000000000000000000000000000000000000000000000602082015250565b7f4576656e74206d7573742068617665206465736372697074696f6e0000000000600082015250565b7f455243313135353a2062616c616e636520717565727920666f7220746865207a60008201527f65726f2061646472657373000000000000000000000000000000000000000000602082015250565b7f4f776e61626c653a206e6577206f776e657220697320746865207a65726f206160008201527f6464726573730000000000000000000000000000000000000000000000000000602082015250565b7f455243313135353a2063616c6c6572206973206e6f74206f776e6572206e6f7260008201527f20617070726f7665640000000000000000000000000000000000000000000000602082015250565b7f547279696e6720746f207769746864726177206d6f7265207468616e20796f7560008201527f277665206d616465000000000000000000000000000000000000000000000000602082015250565b7f4576656e74206d75737420686176652031207469636b657420746f2073656c6c600082015250565b7f455243313135353a207472616e7366657220746f20746865207a65726f20616460008201527f6472657373000000000000000000000000000000000000000000000000000000602082015250565b7f455243313135353a207472616e736665722063616c6c6572206973206e6f742060008201527f6f776e6572206e6f7220617070726f7665640000000000000000000000000000602082015250565b7f4d6178207469636b65747320706572206f72646572206d75737420626520617460008201527f206c656173742031000000000000000000000000000000000000000000000000602082015250565b7f73656e742077726f6e6720616d6f756e74206f662066756e647320666f72206d60008201527f696e74696e67207469636b657473000000000000000000000000000000000000602082015250565b7f455243313135353a20696e73756666696369656e742062616c616e636520666f60008201527f72207472616e7366657200000000000000000000000000000000000000000000602082015250565b7f4f776e61626c653a2063616c6c6572206973206e6f7420746865206f776e6572600082015250565b7f4d757374206265206576656e742063726561746f720000000000000000000000600082015250565b7f616d6f756e7420676f747461206265206c6172676572207468616e2030000000600082015250565b7f707572636861736520776f756c6420627579206d6f7265207469636b6574732060008201527f7468616e20657869737400000000000000000000000000000000000000000000602082015250565b7f4d7573742073656e6420637265617465206576656e742066656520617420657860008201527f61637420616d6f756e7400000000000000000000000000000000000000000000602082015250565b7f4576656e74206d7573742068617665206e616d65000000000000000000000000600082015250565b7f63616e277420627579206d6f7265207469636b657473207468616e206d61786d60008201527f696e74416d6f756e740000000000000000000000000000000000000000000000602082015250565b7f455243313135353a2073657474696e6720617070726f76616c2073746174757360008201527f20666f722073656c660000000000000000000000000000000000000000000000602082015250565b7f455243313135353a206163636f756e747320616e6420696473206c656e67746860008201527f206d69736d617463680000000000000000000000000000000000000000000000602082015250565b7f455243313135353a2069647320616e6420616d6f756e7473206c656e6774682060008201527f6d69736d61746368000000000000000000000000000000000000000000000000602082015250565b7f455243313135353a206d696e7420746f20746865207a65726f2061646472657360008201527f7300000000000000000000000000000000000000000000000000000000000000602082015250565b7f5265656e7472616e637947756172643a207265656e7472616e742063616c6c00600082015250565b7f5072696365206d757374206265206174206c6561737420312077656900000000600082015250565b600060443d10156141c157614244565b6141c96136c7565b60043d036004823e80513d602482011167ffffffffffffffff821117156141f1575050614244565b808201805167ffffffffffffffff81111561420f5750505050614244565b80602083010160043d03850181111561422c575050505050614244565b61423b82602001850186613994565b82955050505050505b90565b614250816138ac565b811461425b57600080fd5b50565b614267816138be565b811461427257600080fd5b50565b61427e816138ca565b811461428957600080fd5b50565b61429581613916565b81146142a057600080fd5b5056fea26469706673582212202c8e35ca0254d40080399fbc5b4a5ea1ab785e7f045403e87a3d9678c57bca6f64736f6c63430008040033",
  "linkReferences": {},
  "deployedLinkReferences": {}
}